{
  "contractName": "AuctionMaster",
  "abi": [
    {
      "inputs": [],
      "stateMutability": "payable",
      "type": "constructor"
    },
    {
      "anonymous": false,
      "inputs": [
        {
          "indexed": true,
          "internalType": "bytes32",
          "name": "hash",
          "type": "bytes32"
        },
        {
          "indexed": true,
          "internalType": "address",
          "name": "",
          "type": "address"
        },
        {
          "indexed": true,
          "internalType": "uint256",
          "name": "",
          "type": "uint256"
        },
        {
          "indexed": false,
          "internalType": "uint256",
          "name": "",
          "type": "uint256"
        }
      ],
      "name": "AuctionFinalized",
      "type": "event"
    },
    {
      "anonymous": false,
      "inputs": [
        {
          "indexed": true,
          "internalType": "bytes32",
          "name": "hash",
          "type": "bytes32"
        },
        {
          "indexed": true,
          "internalType": "uint256",
          "name": "",
          "type": "uint256"
        }
      ],
      "name": "AuctionStarted",
      "type": "event"
    },
    {
      "anonymous": false,
      "inputs": [
        {
          "indexed": true,
          "internalType": "bytes32",
          "name": "hash",
          "type": "bytes32"
        },
        {
          "indexed": true,
          "internalType": "address",
          "name": "",
          "type": "address"
        },
        {
          "indexed": true,
          "internalType": "uint256",
          "name": "",
          "type": "uint256"
        },
        {
          "indexed": false,
          "internalType": "uint8",
          "name": "",
          "type": "uint8"
        }
      ],
      "name": "BidRevealed",
      "type": "event"
    },
    {
      "anonymous": false,
      "inputs": [
        {
          "indexed": true,
          "internalType": "address",
          "name": "",
          "type": "address"
        },
        {
          "indexed": true,
          "internalType": "uint256",
          "name": "",
          "type": "uint256"
        }
      ],
      "name": "Deposit",
      "type": "event"
    },
    {
      "anonymous": false,
      "inputs": [
        {
          "indexed": true,
          "internalType": "address",
          "name": "",
          "type": "address"
        }
      ],
      "name": "ExternalDeedMaster",
      "type": "event"
    },
    {
      "anonymous": false,
      "inputs": [
        {
          "indexed": true,
          "internalType": "bytes32",
          "name": "hash",
          "type": "bytes32"
        },
        {
          "indexed": true,
          "internalType": "uint256",
          "name": "",
          "type": "uint256"
        }
      ],
      "name": "HashReleased",
      "type": "event"
    },
    {
      "anonymous": false,
      "inputs": [
        {
          "indexed": true,
          "internalType": "address",
          "name": "",
          "type": "address"
        }
      ],
      "name": "InternalDeedMaster",
      "type": "event"
    },
    {
      "anonymous": false,
      "inputs": [
        {
          "indexed": true,
          "internalType": "bytes32",
          "name": "hash",
          "type": "bytes32"
        },
        {
          "indexed": true,
          "internalType": "address",
          "name": "",
          "type": "address"
        },
        {
          "indexed": true,
          "internalType": "uint256",
          "name": "",
          "type": "uint256"
        }
      ],
      "name": "NewBid",
      "type": "event"
    },
    {
      "anonymous": false,
      "inputs": [
        {
          "indexed": false,
          "internalType": "uint256",
          "name": "v1",
          "type": "uint256"
        },
        {
          "indexed": false,
          "internalType": "uint256",
          "name": "v2",
          "type": "uint256"
        },
        {
          "indexed": false,
          "internalType": "uint256",
          "name": "v3",
          "type": "uint256"
        },
        {
          "indexed": false,
          "internalType": "uint256",
          "name": "v4",
          "type": "uint256"
        }
      ],
      "name": "TestReturn",
      "type": "event"
    },
    {
      "stateMutability": "nonpayable",
      "type": "fallback"
    },
    {
      "inputs": [],
      "name": "RegOwner",
      "outputs": [
        {
          "internalType": "address",
          "name": "",
          "type": "address"
        }
      ],
      "stateMutability": "view",
      "type": "function"
    },
    {
      "inputs": [],
      "name": "registryStarted",
      "outputs": [
        {
          "internalType": "uint256",
          "name": "",
          "type": "uint256"
        }
      ],
      "stateMutability": "view",
      "type": "function"
    },
    {
      "stateMutability": "payable",
      "type": "receive"
    },
    {
      "inputs": [
        {
          "internalType": "bytes32",
          "name": "_hash",
          "type": "bytes32"
        }
      ],
      "name": "state_pln",
      "outputs": [
        {
          "internalType": "enum AuctionMaster.Mode",
          "name": "",
          "type": "uint8"
        }
      ],
      "stateMutability": "view",
      "type": "function"
    },
    {
      "inputs": [
        {
          "internalType": "bytes32",
          "name": "_hash",
          "type": "bytes32"
        }
      ],
      "name": "entries",
      "outputs": [
        {
          "internalType": "enum AuctionMaster.Mode",
          "name": "",
          "type": "uint8"
        },
        {
          "internalType": "address",
          "name": "",
          "type": "address"
        },
        {
          "internalType": "uint256",
          "name": "",
          "type": "uint256"
        },
        {
          "internalType": "uint256",
          "name": "",
          "type": "uint256"
        },
        {
          "internalType": "uint256",
          "name": "",
          "type": "uint256"
        },
        {
          "internalType": "uint256",
          "name": "",
          "type": "uint256"
        },
        {
          "internalType": "uint256",
          "name": "",
          "type": "uint256"
        },
        {
          "internalType": "uint256",
          "name": "",
          "type": "uint256"
        }
      ],
      "stateMutability": "view",
      "type": "function"
    },
    {
      "inputs": [
        {
          "internalType": "address",
          "name": "bidder",
          "type": "address"
        },
        {
          "internalType": "bytes32",
          "name": "hash",
          "type": "bytes32"
        }
      ],
      "name": "getBiddingValue",
      "outputs": [
        {
          "internalType": "uint256",
          "name": "",
          "type": "uint256"
        }
      ],
      "stateMutability": "view",
      "type": "function"
    },
    {
      "inputs": [
        {
          "internalType": "address",
          "name": "bidder",
          "type": "address"
        },
        {
          "internalType": "bytes32",
          "name": "hash",
          "type": "bytes32"
        }
      ],
      "name": "sealedBidContract",
      "outputs": [
        {
          "internalType": "address",
          "name": "",
          "type": "address"
        }
      ],
      "stateMutability": "view",
      "type": "function"
    },
    {
      "inputs": [],
      "name": "getChainId",
      "outputs": [
        {
          "internalType": "uint256",
          "name": "",
          "type": "uint256"
        }
      ],
      "stateMutability": "view",
      "type": "function"
    },
    {
      "inputs": [],
      "name": "getAllowedTime",
      "outputs": [
        {
          "internalType": "uint256",
          "name": "timestamp",
          "type": "uint256"
        }
      ],
      "stateMutability": "view",
      "type": "function"
    },
    {
      "inputs": [
        {
          "internalType": "bytes32",
          "name": "_hash",
          "type": "bytes32"
        }
      ],
      "name": "getGWPfromAuction",
      "outputs": [
        {
          "internalType": "address",
          "name": "",
          "type": "address"
        }
      ],
      "stateMutability": "view",
      "type": "function"
    },
    {
      "inputs": [
        {
          "internalType": "bytes32",
          "name": "_hash",
          "type": "bytes32"
        }
      ],
      "name": "getAuctionMinBiddingPrice",
      "outputs": [
        {
          "internalType": "uint256",
          "name": "",
          "type": "uint256"
        }
      ],
      "stateMutability": "view",
      "type": "function"
    },
    {
      "inputs": [
        {
          "internalType": "bytes32",
          "name": "_hash",
          "type": "bytes32"
        },
        {
          "internalType": "uint256",
          "name": "revealP",
          "type": "uint256"
        }
      ],
      "name": "startAuction_ge0",
      "outputs": [],
      "stateMutability": "payable",
      "type": "function"
    },
    {
      "inputs": [
        {
          "internalType": "bytes32",
          "name": "hash",
          "type": "bytes32"
        },
        {
          "internalType": "address",
          "name": "owner",
          "type": "address"
        },
        {
          "internalType": "uint256",
          "name": "value",
          "type": "uint256"
        },
        {
          "internalType": "bytes32",
          "name": "salt",
          "type": "bytes32"
        }
      ],
      "name": "shaBid",
      "outputs": [
        {
          "internalType": "bytes32",
          "name": "sealedBid",
          "type": "bytes32"
        }
      ],
      "stateMutability": "pure",
      "type": "function"
    },
    {
      "inputs": [
        {
          "internalType": "address",
          "name": "_sender",
          "type": "address"
        },
        {
          "internalType": "bytes32",
          "name": "_hash",
          "type": "bytes32"
        },
        {
          "internalType": "uint256",
          "name": "_value",
          "type": "uint256"
        }
      ],
      "name": "saveExtDeedCntr_gm9",
      "outputs": [],
      "stateMutability": "payable",
      "type": "function"
    },
    {
      "inputs": [
        {
          "internalType": "bytes32",
          "name": "seal",
          "type": "bytes32"
        },
        {
          "internalType": "bytes32",
          "name": "hash",
          "type": "bytes32"
        },
        {
          "internalType": "address",
          "name": "masterContract",
          "type": "address"
        }
      ],
      "name": "newBidProxy_DKJ",
      "outputs": [],
      "stateMutability": "payable",
      "type": "function"
    },
    {
      "inputs": [
        {
          "internalType": "bytes32",
          "name": "_hash",
          "type": "bytes32"
        },
        {
          "internalType": "address",
          "name": "masterContract",
          "type": "address"
        }
      ],
      "name": "createBidBucketProxy",
      "outputs": [],
      "stateMutability": "payable",
      "type": "function"
    },
    {
      "inputs": [
        {
          "internalType": "bytes32",
          "name": "_hash",
          "type": "bytes32"
        },
        {
          "internalType": "uint256",
          "name": "_value",
          "type": "uint256"
        },
        {
          "internalType": "bytes32",
          "name": "_salt",
          "type": "bytes32"
        }
      ],
      "name": "unsealBid_le$",
      "outputs": [],
      "stateMutability": "payable",
      "type": "function"
    },
    {
      "inputs": [
        {
          "internalType": "bytes32",
          "name": "_hash",
          "type": "bytes32"
        }
      ],
      "name": "unsealExternalBid_qfG",
      "outputs": [],
      "stateMutability": "payable",
      "type": "function"
    },
    {
      "inputs": [
        {
          "internalType": "bytes32",
          "name": "_hash",
          "type": "bytes32"
        }
      ],
      "name": "finalizeAuction_H3D",
      "outputs": [],
      "stateMutability": "payable",
      "type": "function"
    },
    {
      "inputs": [
        {
          "internalType": "bytes32",
          "name": "_hash",
          "type": "bytes32"
        }
      ],
      "name": "finalizeExternalAuction_WmS",
      "outputs": [],
      "stateMutability": "payable",
      "type": "function"
    },
    {
      "inputs": [
        {
          "internalType": "bytes32",
          "name": "seal",
          "type": "bytes32"
        },
        {
          "internalType": "bytes32",
          "name": "hash",
          "type": "bytes32"
        }
      ],
      "name": "cancelBid_k4U",
      "outputs": [],
      "stateMutability": "payable",
      "type": "function"
    },
    {
      "inputs": [
        {
          "internalType": "bytes32",
          "name": "seal",
          "type": "bytes32"
        },
        {
          "internalType": "bytes32",
          "name": "hash",
          "type": "bytes32"
        }
      ],
      "name": "cancelExternalBid_9ig",
      "outputs": [],
      "stateMutability": "payable",
      "type": "function"
    },
    {
      "inputs": [
        {
          "internalType": "bytes32",
          "name": "_hash",
          "type": "bytes32"
        }
      ],
      "name": "releaseDeed",
      "outputs": [],
      "stateMutability": "payable",
      "type": "function"
    },
    {
      "inputs": [
        {
          "internalType": "bytes32",
          "name": "_hash",
          "type": "bytes32"
        }
      ],
      "name": "releaseExternalDeed",
      "outputs": [],
      "stateMutability": "payable",
      "type": "function"
    },
    {
      "inputs": [],
      "name": "deployExtDeedMaster",
      "outputs": [],
      "stateMutability": "payable",
      "type": "function"
    },
    {
      "inputs": [],
      "name": "deployIntDeedMaster",
      "outputs": [],
      "stateMutability": "payable",
      "type": "function"
    },
    {
      "inputs": [],
      "name": "version",
      "outputs": [
        {
          "internalType": "uint256",
          "name": "v",
          "type": "uint256"
        }
      ],
      "stateMutability": "pure",
      "type": "function"
    },
    {
      "inputs": [],
      "name": "withdraw",
      "outputs": [],
      "stateMutability": "nonpayable",
      "type": "function"
    }
  ],
  "bytecode": "0x6080604052600580546001600160a01b03191633179055426004556152fb806100296000396000f3fe608060405260043610620001b95760003560e01c80633ccfd60b11620001035780639e5886311162000097578063d4846c35116200006d578063d4846c3514620004e4578063d70caccc1462000506578063e1ea2b07146200051d578063fad8d6d4146200053457620001ee565b80639e58863114620004ac578063a3570b9b14620004c3578063bd00444d14620004cd57620001ee565b806354fd4d5011620000d957806354fd4d50146200043f578063610db7af146200045857806383027f45146200047d5780639c67f06f146200049457620001ee565b80633ccfd60b14620003f8578063488a90f0146200041057806351de0daa146200043557620001ee565b8061f5c2116200017757806322ec1244116200014f57806322ec1244146200035d578063267b692214620003915780632b936b7c14620003cc5780633408e47014620003e357620001ee565b8061f5c214620002f15780630230a07c146200030857806311ac72e0146200031f57620001ee565b8061283b146200024157806146cb14620002585780616154146200026f5780616a2614620002ac578061824d14620002c3578061920414620002da57620001ee565b36620001ee57604051349033907fe1fffcc4923d04b559f4d29a8bfc6cda04eb5b0d3c460751c2402c5c5cc9109c90600090a3005b348015620001fb57600080fd5b5060405162461bcd60e51b81526020600482015260136024820152725265676973747261722066616c6c6261636b2160681b60448201526064015b60405180910390fd5b005b6200023f6200025236600462003d12565b62000559565b6200023f6200026936600462003d2c565b6200095d565b3480156200027c57600080fd5b50620002946200028e36600462003d12565b62000b2c565b604051620002a3919062003d88565b60405180910390f35b6200023f620002bd36600462003d2c565b62000bf7565b6200023f620002d436600462003d12565b62000e87565b6200023f620002eb36600462003d12565b6200144b565b6200023f6200030236600462003db1565b62001855565b6200023f6200031936600462003d12565b6200194a565b3480156200032c57600080fd5b50620003446200033e36600462003d12565b62001ad8565b6040516001600160a01b039091168152602001620002a3565b3480156200036a57600080fd5b50620003826200037c36600462003ded565b62001b15565b604051908152602001620002a3565b3480156200039e57600080fd5b50620003b6620003b036600462003d12565b62001b50565b604051620002a398979695949392919062003e2d565b6200023f620003dd36600462003d12565b62001c9c565b348015620003f057600080fd5b504662000382565b3480156200040557600080fd5b506200023f62001dbe565b3480156200041d57600080fd5b50620003826200042f36600462003e7c565b62001e8d565b6200023f62001ec2565b3480156200044c57600080fd5b50630131545d62000382565b3480156200046557600080fd5b50620003826200047736600462003d12565b62001f3d565b3480156200048a57600080fd5b5060045462000382565b348015620004a157600080fd5b506200038260045481565b6200023f620004bd36600462003eab565b62001f5f565b6200023f62002129565b6200023f620004de36600462003ede565b620021a4565b348015620004f157600080fd5b5060055462000344906001600160a01b031681565b6200023f6200051736600462003f0b565b620026f0565b6200023f6200052e36600462003d2c565b620027e2565b3480156200054157600080fd5b50620003446200055336600462003e7c565b62002921565b600062000566826200292f565b90506002620005758362000b2c565b600681111562000589576200058962003d4f565b1480620005b4575060066200059e8362000b2c565b6006811115620005b257620005b262003d4f565b145b8015620006365750806001600160a01b0316638da5cb5b6040518163ffffffff1660e01b8152600401602060405180830381865afa158015620005fb573d6000803e3d6000fd5b505050506040513d601f19601f8201168201806040525081019062000621919062003f43565b6001600160a01b0316336001600160a01b0316145b620006785760405162461bcd60e51b81526020600482015260116024820152706f6e6c794f776e657246696e616c697a6560781b604482015260640162000236565b600082815260036020526040812054620006b8906001600160501b03165b60008581526002602052604090205460b01c67ffffffffffff0000166200294a565b9050620006c6838262002965565b60405163f959e1ad60e01b8152600481018290526001600160a01b0383169063f959e1ad90602401600060405180830381600087803b1580156200070957600080fd5b505af11580156200071e573d6000803e3d6000fd5b5050506000848152600260205260409020546001600160a01b0316905080158015906200074b5750803b15155b156200082257620007c381846001600160a01b0316638da5cb5b6040518163ffffffff1660e01b8152600401602060405180830381865afa15801562000795573d6000803e3d6000fd5b505050506040513d601f19601f82011682018060405250810190620007bb919062003f43565b8486620029ad565b60405161495560e01b81526001600160a01b03828116600483015284169061495590602401600060405180830381600087803b1580156200080357600080fd5b505af115801562000818573d6000803e3d6000fd5b505050506200087a565b60405161495560e01b81523060048201526001600160a01b0384169061495590602401600060405180830381600087803b1580156200086057600080fd5b505af115801562000875573d6000803e3d6000fd5b505050505b6200088784600162002be9565b620008953385600062002c4b565b81836001600160a01b0316638da5cb5b6040518163ffffffff1660e01b8152600401602060405180830381865afa158015620008d5573d6000803e3d6000fd5b505050506040513d601f19601f82011682018060405250810190620008fb919062003f43565b6001600160a01b0316857f581e6a55831079cea5921c4f298ef03621df4c829692f6b1c0c687d74f330a8c620009468860009081526002602052604090205460a01c637fffffff1690565b60405190815260200160405180910390a450505050565b60006200096b338462002cbb565b90506001600160a01b0381161562000adc576200099d8260009081526003602052604090205460501c637fffffff1690565b620009aa90600262003f79565b816001600160a01b03166305b344106040518163ffffffff1660e01b8152600401602060405180830381865afa158015620009e9573d6000803e3d6000fd5b505050506040513d601f19601f8201168201806040525081019062000a0f919062003f93565b67ffffffffffffffff1662000a25919062003fbf565b42101562000a765760405162461bcd60e51b815260206004820152601d60248201527f63616e63656c4269642061756374696f6e4c656e677468206572726f72000000604482015260640162000236565b60405161495560e01b8152600060048201526001600160a01b0382169061495590602401600060405180830381600087803b15801562000ab557600080fd5b505af115801562000aca573d6000803e3d6000fd5b5050505062000adc3384600062002ce4565b62000aea3383600062002c4b565b6000828152600260205260409020546001600160a01b0316801580159062000b125750803b15155b1562000b265762000b24818262002d2b565b505b50505050565b600062000b398262002ec0565b1562000b4757506006919050565b600062000b698360009081526002602052604090205460a01c637fffffff1690565b90508042101562000bba5762000b948360009081526003602052604090205460501c637fffffff1690565b62000ba0908262003fd5565b42101562000bb15750600192915050565b50600492915050565b62000bdd8360009081526001602052604090205460a01c6001600160501b031690565b60000362000bee5750600092915050565b50600292915050565b62000c028162002ec0565b801562000c845750306001600160a01b0316336001600160a01b0316632b20e3976040518163ffffffff1660e01b8152600401602060405180830381865afa15801562000c53573d6000803e3d6000fd5b505050506040513d601f19601f8201168201806040525081019062000c79919062003f43565b6001600160a01b0316145b62000cbe5760405162461bcd60e51b815260206004820152600960248201526818d85b98d95b115e1d60ba1b604482015260640162000236565b32600062000ccd828562002cbb565b90506001600160a01b0381161562000e375762000cff8360009081526003602052604090205460501c637fffffff1690565b62000d0c90600262003f79565b816001600160a01b03166305b344106040518163ffffffff1660e01b8152600401602060405180830381865afa15801562000d4b573d6000803e3d6000fd5b505050506040513d601f19601f8201168201806040525081019062000d71919062003f93565b67ffffffffffffffff1662000d87919062003fbf565b42101562000dd15760405162461bcd60e51b81526020600482015260166024820152750c6c2dcc6cad88af084d2c840c2eac6e898cadccee8d60531b604482015260640162000236565b60405161495560e01b8152600060048201526001600160a01b0382169061495590602401600060405180830381600087803b15801562000e1057600080fd5b505af115801562000e25573d6000803e3d6000fd5b5050505062000e378285600062002ce4565b62000e458284600062002c4b565b6000838152600260205260409020546001600160a01b0316801580159062000e6d5750803b15155b1562000b245762000e7f818262002d2b565b505050505050565b801580159062000f0c5750306001600160a01b0316336001600160a01b0316632b20e3976040518163ffffffff1660e01b8152600401602060405180830381865afa15801562000edb573d6000803e3d6000fd5b505050506040513d601f19601f8201168201806040525081019062000f01919062003f43565b6001600160a01b0316145b801562000f8e5750326001600160a01b0316336001600160a01b0316638da5cb5b6040518163ffffffff1660e01b8152600401602060405180830381865afa15801562000f5d573d6000803e3d6000fd5b505050506040513d601f19601f8201168201806040525081019062000f83919062003f43565b6001600160a01b0316145b62000fc65760405162461bcd60e51b8152602060048201526007602482015266195e1d1119595960ca1b604482015260640162000236565b604051329033319060009062001007908590859085907f4db45745d63e3d3fca02d388bb6d96a256b72fa6a5ca7e7b2c10c90c84130f3b9060200162003feb565b604051602081830303815290604052805190602001209050336001600160a01b031662001035848362002cbb565b6001600160a01b0316146200107c5760405162461bcd60e51b815260206004820152600c60248201526b195e1d14d9585b1959109a5960a21b604482015260640162000236565b60006200108a848362002cbb565b90506001600160a01b038116620010cf5760405162461bcd60e51b815260206004820152600860248201526706269643d3d3078360c41b604482015260640162000236565b620010dd8483600062002ce4565b60008581526002602052604090205460b01c67ffffffffffff000016831080620011bf5750620011228560009081526003602052604090205460501c637fffffff1690565b620011428660009081526002602052604090205460a01c637fffffff1690565b6200114e919062003fd5565b816001600160a01b03166305b344106040518163ffffffff1660e01b8152600401602060405180830381865afa1580156200118d573d6000803e3d6000fd5b505050506040513d601f19601f82011682018060405250810190620011b3919062003f93565b67ffffffffffffffff16115b15620012325760405161495560e01b8152600060048201526001600160a01b03821690614955906024015b600060405180830381600087803b1580156200120557600080fd5b505af11580156200121a573d6000803e3d6000fd5b505050506200122c3386600062002c4b565b62000b24565b620012558560009081526001602052604090205460a01c6001600160501b031690565b8311156200138f5760006200126a866200292f565b6001600160a01b0316146200135457600062001286866200292f565b9050620012fa816001600160a01b0316638da5cb5b6040518163ffffffff1660e01b8152600401602060405180830381865afa158015620012cb573d6000803e3d6000fd5b505050506040513d601f19601f82011682018060405250810190620012f1919062003f43565b87600062002c4b565b60405161495560e01b8152600060048201526001600160a01b0382169061495590602401600060405180830381600087803b1580156200133957600080fd5b505af11580156200134e573d6000803e3d6000fd5b50505050505b62001382856200137c8760009081526001602052604090205460a01c6001600160501b031690565b62002965565b6200122c85828562002eda565b6000858152600360205260409020546001600160501b0316831115620013e557620013bb858462002965565b60405161495560e01b8152600060048201526001600160a01b0382169061495590602401620011ea565b60405161495560e01b8152600060048201526001600160a01b0382169061495590602401600060405180830381600087803b1580156200142457600080fd5b505af115801562001439573d6000803e3d6000fd5b5050505062000b243386600062002c4b565b600062001458826200292f565b9050620014658262002ec0565b1580156200149257506200148e8260009081526002602052604090205460a01c637fffffff1690565b4210155b8015620014c157506000620014bf8360009081526001602052604090205460a01c6001600160501b031690565b115b8015620015435750306001600160a01b0316336001600160a01b0316632b20e3976040518163ffffffff1660e01b8152600401602060405180830381865afa15801562001512573d6000803e3d6000fd5b505050506040513d601f19601f8201168201806040525081019062001538919062003f43565b6001600160a01b0316145b8015620015c55750806001600160a01b0316638da5cb5b6040518163ffffffff1660e01b8152600401602060405180830381865afa1580156200158a573d6000803e3d6000fd5b505050506040513d601f19601f82011682018060405250810190620015b0919062003f43565b6001600160a01b0316326001600160a01b0316145b8015620016475750326001600160a01b0316336001600160a01b0316638da5cb5b6040518163ffffffff1660e01b8152600401602060405180830381865afa15801562001616573d6000803e3d6000fd5b505050506040513d601f19601f820116820180604052508101906200163c919062003f43565b6001600160a01b0316145b620016835760405162461bcd60e51b815260206004820152600b60248201526a199a5b985b1a5e99515e1d60aa1b604482015260640162000236565b600082815260036020526040812054620016a6906001600160501b031662000696565b9050620016b4838262002965565b60405163f959e1ad60e01b8152600481018290526001600160a01b0383169063f959e1ad90602401600060405180830381600087803b158015620016f757600080fd5b505af11580156200170c573d6000803e3d6000fd5b5050506000848152600260205260409020546001600160a01b031690508015801590620017395750803b15155b15620017e2576200178381846001600160a01b0316638da5cb5b6040518163ffffffff1660e01b8152600401602060405180830381865afa15801562000795573d6000803e3d6000fd5b60405161495560e01b81526001600160a01b03828116600483015284169061495590602401600060405180830381600087803b158015620017c357600080fd5b505af1158015620017d8573d6000803e3d6000fd5b505050506200183a565b60405161495560e01b81523060048201526001600160a01b0384169061495590602401600060405180830381600087803b1580156200182057600080fd5b505af115801562001835573d6000803e3d6000fd5b505050505b6200184784600162002be9565b620008953285600062002c4b565b821580159062001879575060006200186e338562002cbb565b6001600160a01b0316145b8015620018a1575060008281526002602052604090205460b01c67ffffffffffff0000163410155b620018dd5760405162461bcd60e51b815260206004820152600b60248201526a6e657742696450726f787960a81b604482015260640162000236565b600034823385604051620018f19062003cbc565b6001600160a01b03938416815292909116602083015260408201526060016040518091039082f09050801580156200192d573d6000803e3d6000fd5b5090506200193d33858362002ce4565b62000b2633843462002c4b565b600062001957826200292f565b90506006620019668362000b2c565b60068111156200197a576200197a62003d4f565b148015620019fd5750806001600160a01b0316638da5cb5b6040518163ffffffff1660e01b8152600401602060405180830381865afa158015620019c2573d6000803e3d6000fd5b505050506040513d601f19601f82011682018060405250810190620019e8919062003f43565b6001600160a01b0316336001600160a01b0316145b801562001a29575062001a258260009081526002602052604090205460a01c637fffffff1690565b4210155b62001a695760405162461bcd60e51b815260206004820152600f60248201526e3932b632b0b9b2a232b2b21032b93960891b604482015260640162000236565b62001a7682600062002965565b62001a848260008062002eda565b60405161495560e01b8152600060048201526001600160a01b0382169061495590602401600060405180830381600087803b15801562001ac357600080fd5b505af115801562000e7f573d6000803e3d6000fd5b6000818152600260205260408120546001600160a01b0316801580159062001b005750803b15155b1562001b0c5792915050565b50600092915050565b60008484848460405160200162001b30949392919062003feb565b604051602081830303815290604052805190602001209050949350505050565b600080600080600080600080600062001b7e8a60009081526003602052604090205460501c637fffffff1690565b9050600062001b8d8b62000b2c565b9050600062001b9c8c6200292f565b905062001ba862003cca565b60008d81526002602052604090205460b01c67ffffffffffff000016815262001bd18d62002ec0565b62001bde57600062001be1565b60015b60ff16816001602002015262001c0f8d60009081526001602052604090205460a01c6001600160501b031690565b60408083019190915260008e8152600360205220546001600160501b0316606082015260008d81526002602052604090205460a01c637fffffff1681600460200201528282826004602002015183600360200201518460026020020151856001602002015186600060200201518a9b509b509b509b509b509b509b509b5050505050919395975091939597565b600062001ca9826200292f565b9050600662001cb88362000b2c565b600681111562001ccc5762001ccc62003d4f565b14801562001d4f5750806001600160a01b0316638da5cb5b6040518163ffffffff1660e01b8152600401602060405180830381865afa15801562001d14573d6000803e3d6000fd5b505050506040513d601f19601f8201168201806040525081019062001d3a919062003f43565b6001600160a01b0316336001600160a01b0316145b801562001d7b575062001d778260009081526002602052604090205460a01c637fffffff1690565b4210155b62001a695760405162461bcd60e51b815260206004820152601260248201527132bc3a2932b632b0b9b2a232b2b21032b93960711b604482015260640162000236565b6005546001600160a01b0316331462001e115760405162461bcd60e51b815260206004820152601460248201527327b7363c902932b3b4b9ba3930b91037bbb732b960611b604482015260640162000236565b60405133904780156108fc02916000818181858888f1935050505062001e8b5760405162461bcd60e51b815260206004820152602860248201527f5769746864726177696e672066756e64732066726f6d20526567697374726172604482015267103330b4b632b21760c11b606482015260840162000236565b565b6001600160a01b0382166000908152602081815260408083208484529091528120546001600160501b03165b90505b92915050565b6000803060405162001ed49062003ce8565b6001600160a01b0390911681526020016040518091039082f090508015801562001f02573d6000803e3d6000fd5b506040519091506001600160a01b038216907f68968799e0f0315403f223f9a149d83d42af5c82f791ca47d9098179dedcd4ef90600090a250565b60008181526002602052604081205460b01c67ffffffffffff00001662001ebc565b600162001f6c8362000b2c565b600681111562001f805762001f8062003d4f565b14801562001f96575062001f948262002ec0565b155b62001fda5760405162461bcd60e51b815260206004820152601360248201527241756374696f6e4e4f546f70656e50726f787960681b604482015260640162000236565b600080828460405162001fed9062003cf6565b6001600160a01b03909216825260208201526040016040518091039082f090508015801562002020573d6000803e3d6000fd5b506000848152600260205260409020549091506001600160a01b031680158015906200204c5750803b15155b620020865760405162461bcd60e51b81526020600482015260096024820152680a8819dddc0818985960ba1b604482015260640162000236565b6000620020938262002f19565b9050620020a082620032e9565b6001600160a01b031663b82b5a58620020b984620033d7565b6040516001600160e01b031960e084901b1681526004810191909152602481018490526001600160a01b0386166044820152606401600060405180830381600087803b1580156200210957600080fd5b505af11580156200211e573d6000803e3d6000fd5b505050505050505050565b600080306040516200213b9062003d04565b6001600160a01b0390911681526020016040518091039082f090508015801562002169573d6000803e3d6000fd5b506040519091506001600160a01b038216907fac68b168d054bd7d2af8e007c9b9b3cd9d21bff4326e7e29f6aeb515119cba8d90600090a250565b600083338484604051602001620021bf949392919062003feb565b6040516020818303038152906040528051906020012090506000620021e5338362002cbb565b90506001600160a01b0381166200222a5760405162461bcd60e51b815260206004820152600860248201526706269643d3d3078360c41b604482015260640162000236565b620022383383600062002ce4565b60006200225085836001600160a01b031631620034f5565b60405163f959e1ad60e01b8152600481018290529091506001600160a01b0383169063f959e1ad90602401600060405180830381600087803b1580156200229657600080fd5b505af1158015620022ab573d6000803e3d6000fd5b505050506000620022bc8762000b2c565b90506002816006811115620022d557620022d562003d4f565b03620023485760405161495560e01b8152600060048201526001600160a01b03841690614955906024015b600060405180830381600087803b1580156200231b57600080fd5b505af115801562002330573d6000803e3d6000fd5b50505050620023423388600062002c4b565b620026e7565b60048160068111156200235f576200235f62003d4f565b14620023c25760405162461bcd60e51b815260206004820152602b60248201527f756e7365616c4269642061756374696f6e537461746520213d204d6f64652e5260448201526a32bb32b0b61032b93937b960a91b606482015260840162000236565b60008781526002602052604090205460b01c67ffffffffffff000016821080620024a45750620024078760009081526003602052604090205460501c637fffffff1690565b620024278860009081526002602052604090205460a01c637fffffff1690565b62002433919062003fd5565b836001600160a01b03166305b344106040518163ffffffff1660e01b8152600401602060405180830381865afa15801562002472573d6000803e3d6000fd5b505050506040513d601f19601f8201168201806040525081019062002498919062003f93565b67ffffffffffffffff16115b15620024d45760405161495560e01b8152600060048201526001600160a01b038416906149559060240162002300565b620024f78760009081526001602052604090205460a01c6001600160501b031690565b8211156200262b5760006200250c886200292f565b6001600160a01b031614620025f657600062002528886200292f565b90506200259c816001600160a01b0316638da5cb5b6040518163ffffffff1660e01b8152600401602060405180830381865afa1580156200256d573d6000803e3d6000fd5b505050506040513d601f19601f8201168201806040525081019062002593919062003f43565b89600062002c4b565b60405161495560e01b8152600060048201526001600160a01b0382169061495590602401600060405180830381600087803b158015620025db57600080fd5b505af1158015620025f0573d6000803e3d6000fd5b50505050505b6200261e876200137c8960009081526001602052604090205460a01c6001600160501b031690565b6200234287848462002eda565b6000878152600360205260409020546001600160501b0316821115620026815762002657878362002965565b60405161495560e01b8152600060048201526001600160a01b038416906149559060240162002300565b60405161495560e01b8152600060048201526001600160a01b0384169061495590602401600060405180830381600087803b158015620026c057600080fd5b505af1158015620026d5573d6000803e3d6000fd5b50505050620026e73388600062002c4b565b50505050505050565b6040516000906200272c908490869085907f4db45745d63e3d3fca02d388bb6d96a256b72fa6a5ca7e7b2c10c90c84130f3b9060200162003feb565b60405160208183030381529060405280519060200120905060006001600160a01b03166200275b858362002cbb565b6001600160a01b03161480156200278d575060008381526002602052604090205460b01c67ffffffffffff0000168210155b620027c85760405162461bcd60e51b815260206004820152600a6024820152691cd85d99515e1119595960b21b604482015260640162000236565b620027d584823362002ce4565b62000b2684848462002c4b565b6000620027ef8362000b2c565b600681111562002803576200280362003d4f565b14620028525760405162461bcd60e51b815260206004820152601d60248201527f737461727441756374696f6e2061756374696f6e206e6f74206f70656e000000604482015260640162000236565b6000808263ffffffff16116200286a57603c6200286c565b815b905062002882838263ffffffff16600062003508565b6200288f83600062003541565b620028d18333620028ab63fffffffe600186901b164262004025565b67ffffffffffffffff166000620028c16200358f565b67ffffffffffffffff16620035fb565b620028f18360009081526002602052604090205460a01c637fffffff1690565b60405184907f87e97e825a1d1fa0c54e1d36c7506c1dea8b1efd451fe68b000cf96f7cf4000390600090a3505050565b600062001eb9838362002cbb565b6000908152600160205260409020546001600160a01b031690565b6000818311156200295d57508162001ebc565b508062001ebc565b60008281526003602052604090205462002997906001600160501b0383169069ffffffffffffffffffff191662003fbf565b6000928352600360205260409092209190915550565b6000620029ba85620032e9565b90506001600160a01b03811662002a085760405162461bcd60e51b81526020600482015260116024820152700a881c1d1bdad95b8818dbdb9d1c9858dd607a1b604482015260640162000236565b6001600160a01b03841662002a4d5760405162461bcd60e51b815260206004820152600a60248201526915103932b1b2b4bb32b960b11b604482015260640162000236565b6001600160a01b03821662002a965760405162461bcd60e51b815260206004820152600e60248201526d0a881919595910dbdb9d1c9858dd60921b604482015260640162000236565b6000831162002ad45760405162461bcd60e51b81526020600482015260096024820152680a881c185e5b595b9d60ba1b604482015260640162000236565b600062002ae186620033d7565b6040516370a0823160e01b81523060048201529091506000906001600160a01b038416906370a0823190602401602060405180830381865afa15801562002b2c573d6000803e3d6000fd5b505050506040513d601f19601f8201168201806040525081019062002b52919062004050565b905063ffffffff811615620026e75760405163176efcd160e11b81526001600160a01b03878116600483015263ffffffff8316602483015260448201879052606482018490528581166084830152841690632eddf9a29060a401600060405180830381600087803b15801562002bc757600080fd5b505af115801562002bdc573d6000803e3d6000fd5b5050505050505050505050565b801562002c275760008281526002602052604090205462002c1790600160bf1b90600160bf1b191662003fbf565b6000838152600260205260409020555b8062002c475760008281526002602052604090208054600160bf1b191690555b5050565b6001600160a01b03831660009081526020818152604080832085845290915290205462002c90906001600160501b0383169069ffffffffffffffffffff191662003fbf565b6001600160a01b03909316600090815260208181526040808320948352939052919091209190915550565b6001600160a01b03918216600090815260208181526040808320938352929052205460501c1690565b6001600160a01b03831660009081526020818152604080832085845290915290205462002c90906001600160501b0316600160501b600160f01b03605084901b1662003fbf565b60008062002d3984620032e9565b90506001600160a01b03811662002d875760405162461bcd60e51b81526020600482015260116024820152700a881c1d1bdad95b8818dbdb9d1c9858dd607a1b604482015260640162000236565b6001600160a01b03831662002dcc5760405162461bcd60e51b815260206004820152600a60248201526915103932b1b2b4bb32b960b11b604482015260640162000236565b6040516370a0823160e01b81523060048201526000906001600160a01b038316906370a0823190602401602060405180830381865afa15801562002e14573d6000803e3d6000fd5b505050506040513d601f19601f8201168201806040525081019062002e3a919062004050565b9050801562002ea45760405161c77160e01b81526001600160a01b0385811660048301526024820183905283169061c77190604401600060405180830381600087803b15801562002e8a57600080fd5b505af115801562002e9f573d6000803e3d6000fd5b505050505b6000811162002eb557600162002eb7565b805b95945050505050565b600090815260026020526040902054600160bf1b16151590565b62002f0260a082901b69ffffffffffffffffffff60a01b166001600160a01b03841662003fbf565b600093845260016020526040909320929092555050565b600080826001600160a01b03166327a58be76040518163ffffffff1660e01b8152600401602060405180830381865afa15801562002f5b573d6000803e3d6000fd5b505050506040513d601f19601f8201168201806040525081019062002f81919062003f43565b90506001600160a01b03811662002fc85760405162461bcd60e51b815260206004820152600a6024820152690a8819ddd998c818985960b21b604482015260640162000236565b6000816001600160a01b0316633f15457f6040518163ffffffff1660e01b8152600401602060405180830381865afa15801562003009573d6000803e3d6000fd5b505050506040513d601f19601f820116820180604052508101906200302f919062003f43565b90506001600160a01b038116620030755760405162461bcd60e51b81526020600482015260096024820152680a88195b9cc818985960ba1b604482015260640162000236565b600080620030838662003670565b90925090506001600160a01b03821630148015620030a15750600081115b620030e75760405162461bcd60e51b81526020600482015260156024820152742a206261642061756374696f6e206164647265737360581b604482015260640162000236565b6000620030f5878362003851565b905060006200310488620033d7565b905060008060005b8062003118816200406a565b915050620031316200312b8683620038dc565b620038ff565b8051602091820120604080519283018790528201819052935060600160408051808303601f19018152908290528051602090910120631ef3fca760e31b82526004820181905292506001600160a01b0389169063f79fe53890602401602060405180830381865afa158015620031ab573d6000803e3d6000fd5b505050506040513d601f19601f82011682018060405250810190620031d1919062004086565b8015620031df5750601a8111155b6200310c57604051631ef3fca760e31b8152600481018390526001600160a01b0389169063f79fe53890602401602060405180830381865afa1580156200322a573d6000803e3d6000fd5b505050506040513d601f19601f8201168201806040525081019062003250919062004086565b620032a0576000620032628a62003ac8565b9050806200327a5750919a9950505050505050505050565b620032906200328a8784620038dc565b62003b4a565b9c9b505050505050505050505050565b60405162461bcd60e51b815260206004820152601760248201527f2a206e6578744275636b65744c6162656c20626164202a000000000000000000604482015260640162000236565b600080826001600160a01b03166327a58be76040518163ffffffff1660e01b8152600401602060405180830381865afa1580156200332b573d6000803e3d6000fd5b505050506040513d601f19601f8201168201806040525081019062003351919062003f43565b9050806001600160a01b03166336aaedbe6200336d85620033d7565b6040518263ffffffff1660e01b81526004016200338c91815260200190565b602060405180830381865afa158015620033aa573d6000803e3d6000fd5b505050506040513d601f19601f82011682018060405250810190620033d0919062003f43565b9392505050565b600080826001600160a01b03166327a58be76040518163ffffffff1660e01b8152600401602060405180830381865afa15801562003419573d6000803e3d6000fd5b505050506040513d601f19601f820116820180604052508101906200343f919062003f43565b90506001600160a01b038116620034885760405162461bcd60e51b815260206004820152600c60248201526b151033bbb331903130b2101560a11b604482015260640162000236565b604051631aae8f7360e11b81526001600160a01b03828116600483015284169063355d1ee690602401602060405180830381865afa158015620034cf573d6000803e3d6000fd5b505050506040513d601f19601f82011682018060405250810190620033d0919062004050565b6000818310156200295d57508162001ebc565b6200352a6001600160501b038216605084901b637fffffff60501b1662003fbf565b600093845260036020526040909320929092555050565b600082815260016020526040902054620035799060a083901b69ffffffffffffffffffff60a01b16906001600160a01b031662003fbf565b6000928352600160205260409092209190915550565b6000806200359c62003b74565b620035a9906064620040aa565b620035b8622520633a62003f79565b620035c4919062003f79565b9050662386f26fc100008167ffffffffffffffff161015620035f657620035f3662386f26fc100008262004025565b90505b919050565b600082156200360b5750600160bf1b5b65ffffffffffff60c01b60b083901b16816200363e60a087901b637fffffff60a01b166001600160a01b03891662003fbf565b6200364a919062003fbf565b62003656919062003fbf565b600096875260026020526040909620959095555050505050565b600080600080846001600160a01b031663578cb8f96040518163ffffffff1660e01b8152600401602060405180830381865afa158015620036b5573d6000803e3d6000fd5b505050506040513d601f19601f82011682018060405250810190620036db919062004050565b9050600081116200373b5760405162461bcd60e51b815260206004820152602360248201527f2a2061756374696f6e732072657175697265203e3d31207472616e73616374696044820152626f6e7360e81b606482015260840162000236565b806200374781620040cd565b604051631aae8f7360e11b8152600481018290529092506001600160a01b038716915063355d1ee690602401602060405180830381865afa15801562003791573d6000803e3d6000fd5b505050506040513d601f19601f82011682018060405250810190620037b7919062004050565b9150600081118015620037ca5750600082115b8015620037dd5750600f60fc1b80831614155b6200373b576001600160a01b03821630146200383c5760405162461bcd60e51b815260206004820152601d60248201527f2a206e6f2061756374696f6e207472616e73616374696f6e2079657421000000604482015260640162000236565b6001600160a01b039190911694909350915050565b6000603065ffffffffffff60a01b846001600160a01b031663355d1ee6856040518263ffffffff1660e01b81526004016200388e91815260200190565b602060405180830381865afa158015620038ac573d6000803e3d6000fd5b505050506040513d601f19601f82011682018060405250810190620038d2919062004050565b16901b9392505050565b6000600883901c60f8620038f284606062003fbf565b62001eb992911b62003fbf565b604080516020808252818301909252606091600091906020820181803683370190505090506000805b8482602081106200393d576200393d6200400f565b1a60f81b6001600160f81b031916156200399c578482602081106200396657620039666200400f565b1a60f81b8383815181106200397f576200397f6200400f565b60200101906001600160f81b031916908160001a9053506200399f565b50805b81620039ab816200406a565b925050602082108015620039bd575080155b620039285760008167ffffffffffffffff811115620039e057620039e0620040e7565b6040519080825280601f01601f19166020018201604052801562003a0b576020820181803683370190505b509050600092505b83838151811062003a285762003a286200400f565b01602001516001600160f81b0319161562003a8a5783838151811062003a525762003a526200400f565b602001015160f81c60f81b81848151811062003a725762003a726200400f565b60200101906001600160f81b031916908160001a9053505b8162003a9681620040cd565b925050828062003aa6906200406a565b93505060208310801562003aba5750600082115b62003a135795945050505050565b6000806001600160a01b0316826001600160a01b03166347c5da986040518163ffffffff1660e01b8152600401602060405180830381865afa15801562003b13573d6000803e3d6000fd5b505050506040513d601f19601f8201168201806040525081019062003b39919062003f43565b6001600160a01b0316141592915050565b600062003b6162003b5b83620038ff565b62003be9565b62001ebc9060ff1660ff19841662003fbf565b60004661050481900362003b8a57600a91505090565b8060890362003b9b57605091505090565b8062aa36a70362003bae57601991505090565b8060050362003bbf57601991505090565b8060640362003bd057605f91505090565b8060380362003be157600a91505090565b600591505090565b8051600090600183810191840101825b8183101562003cb457825160ff16608081101562003c265762003c1e60018562003fbf565b935062003c9e565b60e08160ff16101562003c405762003c1e60028562003fbf565b60f08160ff16101562003c5a5762003c1e60038562003fbf565b60f88160ff16101562003c745762003c1e60048562003fbf565b60fc8160ff16101562003c8e5762003c1e60058562003fbf565b62003c9b60068562003fbf565b93505b508062003cab816200406a565b91505062003bf9565b949350505050565b61025c80620040fe83390190565b6040518060a001604052806005906020820280368337509192915050565b6104fb806200435a83390190565b610252806200485583390190565b61081f8062004aa783390190565b60006020828403121562003d2557600080fd5b5035919050565b6000806040838503121562003d4057600080fd5b50508035926020909101359150565b634e487b7160e01b600052602160045260246000fd5b6007811062003d8457634e487b7160e01b600052602160045260246000fd5b9052565b6020810162001ebc828462003d65565b6001600160a01b038116811462003dae57600080fd5b50565b60008060006060848603121562003dc757600080fd5b8335925060208401359150604084013562003de28162003d98565b809150509250925092565b6000806000806080858703121562003e0457600080fd5b84359350602085013562003e188162003d98565b93969395505050506040820135916060013590565b610100810162003e3e828b62003d65565b6001600160a01b0398909816602082015260408101969096526060860194909452608085019290925260a084015260c083015260e090910152919050565b6000806040838503121562003e9057600080fd5b823562003e9d8162003d98565b946020939093013593505050565b6000806040838503121562003ebf57600080fd5b82359150602083013562003ed38162003d98565b809150509250929050565b60008060006060848603121562003ef457600080fd5b505081359360208301359350604090920135919050565b60008060006060848603121562003f2157600080fd5b833562003f2e8162003d98565b95602085013595506040909401359392505050565b60006020828403121562003f5657600080fd5b8151620033d08162003d98565b634e487b7160e01b600052601160045260246000fd5b808202811582820484141762001ebc5762001ebc62003f63565b60006020828403121562003fa657600080fd5b815167ffffffffffffffff81168114620033d057600080fd5b8082018082111562001ebc5762001ebc62003f63565b8181038181111562001ebc5762001ebc62003f63565b9384526001600160a01b039290921660208401526040830152606082015260800190565b634e487b7160e01b600052603260045260246000fd5b67ffffffffffffffff81811683821601908082111562004049576200404962003f63565b5092915050565b6000602082840312156200406357600080fd5b5051919050565b6000600182016200407f576200407f62003f63565b5060010190565b6000602082840312156200409957600080fd5b81518015158114620033d057600080fd5b600082620040c857634e487b7160e01b600052601260045260246000fd5b500490565b600081620040df57620040df62003f63565b506000190190565b634e487b7160e01b600052604160045260246000fdfe608060405260405161025c38038061025c833981016040819052610022916100bc565b600080546001600160a01b0319166001600160a01b03858116919091178255600280549185166001600160e01b031990921691909117600160a01b426001600160401b031602179055600182905560405130917ff8c55061664758367c865dbb9bc7769b0b38a15fa32b8c62322bd1efc567b8f491a25050506100f8565b80516001600160a01b03811681146100b757600080fd5b919050565b6000806000606084860312156100d157600080fd5b6100da846100a0565b92506100e8602085016100a0565b9150604084015190509250925092565b610155806101076000396000f3fe6080604052600436106100345760003560e01c806305b344101461007d57806323491869146100c35780638da5cb5b146100e7575b600080546001600160a01b0316632cf35bc960e11b82350161005857808252602082f35b6040513683823782833683855af49150503d82833e806100785761020482fd5b503d81f35b34801561008957600080fd5b506002546100a590600160a01b900467ffffffffffffffff1681565b60405167ffffffffffffffff90911681526020015b60405180910390f35b3480156100cf57600080fd5b506100d960015481565b6040519081526020016100ba565b3480156100f357600080fd5b50600254610107906001600160a01b031681565b6040516001600160a01b0390911681526020016100ba56fea2646970667358221220ae137fea438181d0b4c09edab99c1e5c1fa0360ef60600df91cff4303bed4d9364736f6c6343000813003360806040526040516104fb3803806104fb83398101604081905261002291610089565b600080546001600160a01b039092166001600160a01b0319928316179055600280546003805490931633179092556001600160401b034216600160a01b02600160a01b600160e01b031932166001600160e01b0319909316929092179190911790556100b9565b60006020828403121561009b57600080fd5b81516001600160a01b03811681146100b257600080fd5b9392505050565b610433806100c86000396000f3fe60806040526004361061006e5760003560e01c80632b20e3971161004e5780632b20e397146100f25780638da5cb5b14610112578063c546e5fb14610132578063f959e1ad1461015257600080fd5b806149551461007357806305b344101461008857806323491869146100ce575b600080fd5b61008661008136600461037c565b610165565b005b34801561009457600080fd5b506002546100b090600160a01b900467ffffffffffffffff1681565b60405167ffffffffffffffff90911681526020015b60405180910390f35b3480156100da57600080fd5b506100e460015481565b6040519081526020016100c5565b6100fa610256565b6040516001600160a01b0390911681526020016100c5565b34801561011e57600080fd5b506002546100fa906001600160a01b031681565b34801561013e57600080fd5b506003546100fa906001600160a01b031681565b6100866101603660046103a0565b6102d3565b6002546001600160a01b0316806101af5760405162461bcd60e51b815260206004820152600960248201526806f776e65723d3078360bc1b60448201526064015b60405180910390fd5b6001600160a01b038216156101c15750805b6101c9610256565b6001600160a01b0316336001600160a01b03161480156101f157506001600160a01b03811615155b801561021d57506040516001600160a01b038216904780156108fc02916000818181858888f193505050505b6102525760405162461bcd60e51b81526004016101a6906020808252600490820152631a58db1160e21b604082015260600190565b5050565b60008060009054906101000a90046001600160a01b03166001600160a01b031663c546e5fb6040518163ffffffff1660e01b8152600401602060405180830381865afa1580156102aa573d6000803e3d6000fd5b505050506040513d601f19601f820116820180604052508101906102ce91906103b9565b905090565b804710156102de5750565b6102e6610256565b6001600160a01b0316336001600160a01b031614801561033257506002546001600160a01b03166108fc61031a83476103d6565b6040518115909202916000818181858888f193505050505b6103645760405162461bcd60e51b815260206004820152600360248201526218509b60ea1b60448201526064016101a6565b50565b6001600160a01b038116811461036457600080fd5b60006020828403121561038e57600080fd5b813561039981610367565b9392505050565b6000602082840312156103b257600080fd5b5035919050565b6000602082840312156103cb57600080fd5b815161039981610367565b818103818111156103f757634e487b7160e01b600052601160045260246000fd5b9291505056fea26469706673582212205dec9c05a413df56fc7bc34d2b482b8dd34a847209a0653657828352263af68364736f6c634300081300336080604052604051610252380380610252833981016040819052610022916100a4565b600080546001600160a01b0384166001600160a01b03199182161782556002805490911633179055600180546001600160401b034216600160a01b02600160a01b600160e01b0319909116179055600382905560405130917ff8c55061664758367c865dbb9bc7769b0b38a15fa32b8c62322bd1efc567b8f491a250506100de565b600080604083850312156100b757600080fd5b82516001600160a01b03811681146100ce57600080fd5b6020939093015192949293505050565b610165806100ed6000396000f3fe60806040526004361061003f5760003560e01c806305b344101461006d57806323491869146100b35780632b20e397146100d75780638da5cb5b1461010f575b6040516000368183378081368460018060a01b038554165af491503d81823e816100695761020481fd5b3d81f35b34801561007957600080fd5b5060015461009590600160a01b900467ffffffffffffffff1681565b60405167ffffffffffffffff90911681526020015b60405180910390f35b3480156100bf57600080fd5b506100c960035481565b6040519081526020016100aa565b3480156100e357600080fd5b506002546100f7906001600160a01b031681565b6040516001600160a01b0390911681526020016100aa565b34801561011b57600080fd5b506001546100f7906001600160a01b03168156fea26469706673582212206720f0ec30722dcee1d08a5140bdf5e59806cf48d4d6db8fdecec14d5b42806364736f6c63430008130033608060405260405161081f38038061081f83398101604081905261002291610089565b600080546001600160a01b039092166001600160a01b0319928316179055600180546002805490931633179092556001600160401b034216600160a01b02600160a01b600160e01b031932166001600160e01b0319909316929092179190911790556100b9565b60006020828403121561009b57600080fd5b81516001600160a01b03811681146100b257600080fd5b9392505050565b610757806100c86000396000f3fe6080604052600436106100575760003560e01c806149551461048f57806305b34410146104a257806323491869146104e85780632b20e3971461050c5780638da5cb5b14610544578063f959e1ad1461056457600080fd5b3661048a5760025460035460405161185560e21b815260048101919091526000916001600160a01b03169061615490602401602060405180830381865afa1580156100a6573d6000803e3d6000fd5b505050506040513d601f19601f820116820180604052508101906100ca9190610698565b9050806001036101d357600354158015906100e55750600034115b80156100f057503447145b6101265760405162461bcd60e51b8152602060048201526002602482015261329960f11b60448201526064015b60405180910390fd5b600180546001600160a01b031916339081179091556002546003546040516335c32b3360e21b8152600481019390935260248301523460448301526001600160a01b03169063d70caccc90606401600060405180830381600087803b15801561018e57600080fd5b505af11580156101a2573d6000803e3d6000fd5b50506040513392507f1c10a18fffb6543afbf4d75ce6f3cfa56c73dd74e56fdc8c9474f30fc27123869150600090a2005b600181111561023257600354158015906101eb575034155b801561020157506001546001600160a01b031633145b6102325760405162461bcd60e51b81526020600482015260026024820152610caf60f31b604482015260640161011d565b806004036102ca5760025460035460405161824d60e01b81526001600160a01b039092169161824d9161026b9160040190815260200190565b600060405180830381600087803b15801561028557600080fd5b505af1158015610299573d6000803e3d6000fd5b50506040513392507fbb7f5ee433a2b38a41220afcf3d0bbd4859aac783c1b4897c742776030ca19e29150600090a2005b806002036103335760025460035460405161248160e21b81526001600160a01b0390921691619204916103039160040190815260200190565b600060405180830381600087803b15801561031d57600080fd5b505af1158015610331573d6000803e3d6000fd5b005b80600603610434576002546003546001546040805160208101939093526001600160a01b03918216908301524760608301527f4db45745d63e3d3fca02d388bb6d96a256b72fa6a5ca7e7b2c10c90c84130f3b608083015290911690616a269060a001604051602081830303815290604052805190602001206003546040518363ffffffff1660e01b81526004016103d5929190918252602082015260400190565b600060405180830381600087803b1580156103ef57600080fd5b505af1158015610403573d6000803e3d6000fd5b50506040513392507fe71ef3bfd4185ae19262ec51a940e1f049287182a6ab8eb8a2d8fde2ca3f15279150600090a2005b50600034156103315760405133903480156108fc02916000818181858888f19350505050156103315760405162461bcd60e51b8152602060048201526002602482015261232160f11b604482015260640161011d565b600080fd5b61033161049d3660046106b1565b610577565b3480156104ae57600080fd5b506001546104ca90600160a01b900467ffffffffffffffff1681565b60405167ffffffffffffffff90911681526020015b60405180910390f35b3480156104f457600080fd5b506104fe60035481565b6040519081526020016104df565b34801561051857600080fd5b5060025461052c906001600160a01b031681565b6040516001600160a01b0390911681526020016104df565b34801561055057600080fd5b5060015461052c906001600160a01b031681565b6103316105723660046106e1565b61060a565b6002546001600160a01b0316331480156105d557506001600160a01b0381166105ab576001546001600160a01b03166105ad565b805b6001600160a01b03166108fc479081150290604051600060405180830381858888f193505050505b6106075760405162461bcd60e51b8152602060048201526003602482015262195e1160ea1b604482015260640161011d565b50565b8047116106145750565b6002546001600160a01b03163314801561062e5750600047115b801561066657506001546001600160a01b03166108fc61064e83476106fa565b6040518115909202916000818181858888f193505050505b6106075760405162461bcd60e51b81526020600482015260036024820152621854d960ea1b604482015260640161011d565b6000602082840312156106aa57600080fd5b5051919050565b6000602082840312156106c357600080fd5b81356001600160a01b03811681146106da57600080fd5b9392505050565b6000602082840312156106f357600080fd5b5035919050565b8181038181111561071b57634e487b7160e01b600052601160045260246000fd5b9291505056fea2646970667358221220500d35b62b524fb44bb8940b9614de66387412893f5fb9e352070732d4d0e74164736f6c63430008130033a264697066735822122079e543828469a779153bf662b29b5285435a102170aae4fc4984d57bc18ba7ac64736f6c63430008130033",
  "immutableReferences": {},
  "source": "// SPDX-License-Identifier: GPL-3.0\npragma solidity ^0.8.18 <0.8.20;\n\n/*\n\nAuctionMaster ( by pepihasenfuss, copyright (c) 2023, based on ENS 1.0 Temporary Hash Registrar, a Vickrey Auction introduced by Nick Johnson and ENS team )\nA Vickrey auction or sealed-bid second-price auction SBSPA is a type of sealed-bid auction.\n========================\n\n//   ENS, ENSRegistryWithFallback, PublicResolver, Resolver, FIFS-Registrar, Registrar, AuctionRegistrar, BaseRegistrar, ReverseRegistrar, DefaultReverseResolver, ETHRegistrarController,\n//   PriceOracle, SimplePriceOracle, StablePriceOracle, ENSMigrationSubdomainRegistrar, CustomRegistrar, Root, RegistrarMigration are contracts of \"ENS\", by Nick Johnson and team.\n//\n//   Copyright (c) 2018, True Names Limited / ENS Labs Limited\n//\n//   Permission is hereby granted, free of charge, to any person obtaining a copy of this software and associated documentation files (the \"Software\"), to deal in the Software without restriction, including without limitation the rights to use, copy, modify, merge, publish, distribute, sublicense, and/or sell copies of the Software, and to permit persons to whom the Software is furnished to do so, subject to the following conditions:\n//   The above copyright notice and this permission notice shall be included in all copies or substantial portions of the Software.\n//   THE SOFTWARE IS PROVIDED \"AS IS\", WITHOUT WARRANTY OF ANY KIND, EXPRESS OR IMPLIED, INCLUDING BUT NOT LIMITED TO THE WARRANTIES OF MERCHANTABILITY, FITNESS FOR A PARTICULAR PURPOSE AND NONINFRINGEMENT. IN NO EVENT SHALL THE AUTHORS OR COPYRIGHT HOLDERS BE LIABLE FOR ANY CLAIM, DAMAGES OR OTHER LIABILITY, WHETHER IN AN ACTION OF CONTRACT, TORT OR OTHERWISE, ARISING FROM, OUT OF OR IN CONNECTION WITH THE SOFTWARE OR THE USE OR OTHER DEALINGS IN THE SOFTWARE.\n\n*/\n\ninterface Abstract_ENS {\n  function owner(bytes32 node) external view  returns(address);\n  function resolver(bytes32 node) external view  returns(address);\n  function ttl(bytes32 node) external view  returns(uint64);\n  function setOwner(bytes32 node, address ensowner)  external;\n  function setSubnodeOwner(bytes32 node, bytes32 label, address ensowner)  external;\n  function setResolver(bytes32 node, address ensresolver)  external;\n  function setTTL(bytes32 node, uint64 ensttl)  external;\n  function recordExists(bytes32 nodeENS) external view returns (bool);\n\n  event NewOwner(bytes32 indexed node, bytes32 indexed label, address ensowner);\n  event Transfer(bytes32 indexed node, address ensowner);\n  event NewResolver(bytes32 indexed node, address ensresolver);\n  event NewTTL(bytes32 indexed node, uint64 ensttl);\n}\n\nabstract contract ABS_TokenProxy {\n  function balanceOf(address tokenOwner) external virtual view returns (uint thebalance);\n  function name() external virtual view returns (string memory);\n  function transferFrom_78S(address from, address toReceiver, uint amount) external virtual;\n  function tokenAllow(address tokenOwner,address spender) external virtual view returns (uint256 tokens);\n  function transfer_G8l(address toReceiver, uint amount) external virtual;\n  function transferAdjustPrices(address toReceiver, uint amount, uint payment, bytes32 dhash, address deedContract) external virtual;\n  function nameBidBucket(bytes32 dhash,bytes32 labelhash,address deedContract) external virtual;\n}\n\nabstract contract Abstract_Resolver {\n  mapping (bytes32 => string) public name;\n}\n\nabstract contract ABS_ReverseRegistrar {\n  Abstract_Resolver public defaultResolver;\n  function node(address addr) external virtual pure returns (bytes32);\n}\n\nabstract contract ABS_Resolver {\n  mapping(bytes32=>bytes) hashes;\n\n  event AddrChanged(bytes32 indexed node, address a);\n  event AddressChanged(bytes32 indexed node, uint coinType, bytes newAddress);\n  event NameChanged(bytes32 indexed node, string name);\n  event ABIChanged(bytes32 indexed node, uint256 indexed contentType);\n  event PubkeyChanged(bytes32 indexed node, bytes32 x, bytes32 y);\n  event TextChanged(bytes32 indexed node, string indexed indexedKey, string key);\n  event ContenthashChanged(bytes32 indexed node, bytes hash);\n\n  function name(bytes32 node) external virtual view returns (string memory);\n  function addr(bytes32 node) external virtual view returns (address payable);\n\n  function setABI(bytes32 node, uint256 contentType, bytes calldata data) external virtual;\n  function setAddr(bytes32 node, address r_addr) external virtual;\n  function setAddr(bytes32 node, uint coinType, bytes calldata a) external virtual;\n  function setName(bytes32 node, string calldata _name) external virtual;\n  function setText(bytes32 node, string calldata key, string calldata value) external virtual;\n  function setAuthorisation(bytes32 node, address target, bool isAuthorised) external virtual;\n  function supportsInterface(bytes4 interfaceId) external virtual view returns (bool);\n}\n\ncontract AbstractGWMBaseReg {\n  event NameMigrated(uint256 indexed id, address indexed owner, uint expires);\n  event NameRegistered(uint256 indexed id, address indexed owner, uint expires);\n  event NameRenewed(uint256 indexed id, uint expires);\n\n  bytes32 public baseNode;   // The namehash of the TLD this registrar owns (eg, .eth)\n}\n\nabstract contract AbstractETHRegCntrl {\n  event NameRegistered(string name, bytes32 indexed label, address indexed owner, uint cost, uint expires);\n  event NameRenewed(string name, bytes32 indexed label, uint cost, uint expires);\n\n  function rentPrice(string memory name, uint duration) view external virtual returns(uint);\n  function registerWithConfig(string memory name, address owner, uint duration, bytes32 secret, address resolver, address addr) external virtual payable;\n}\n\nabstract contract ABS_GWP {\n  function getGWF() external view virtual returns (address);\n  function getTransactionsCount() external view virtual returns (uint);\n  function getTransactionRecord(uint _tNb) external view virtual returns (uint256);\n}\n\nabstract contract NmWrapper {\n  function setSubnodeRecord(bytes32 parentNode,string memory label,address owner,address resolver,uint64 ttl,uint32 fuses,uint64 expiry) external virtual returns (bytes32 node);\n  function setSubnodeOwner(bytes32 node,string calldata label,address newOwner,uint32 fuses,uint64 expiry) external virtual returns (bytes32);\n  function ownerOf(uint256 id) external virtual view returns (address);\n  function setApprovalForAll(address operator,bool approved) external virtual;\n}\n\nabstract contract ABS_GWF {\n  ABS_Resolver                    public  resolverContract;\n  AbstractETHRegCntrl             public  controllerContract;\n  AbstractGWMBaseReg              public  base;\n  Abstract_ENS                    public  ens;\n  ABS_ReverseRegistrar            public  reverseContract;\n  NmWrapper                       public  ensNameWrapper;\n\n  function getProxyToken(bytes32 _domainHash) public virtual view returns (address p);\n}\n\nabstract contract ABS_Reg {\n  function state_pln(bytes32 _hash) public view virtual returns (uint);\n  function saveExtDeedCntr_gm9(address _sender,bytes32 _hash,uint _value) public payable virtual;\n  function unsealExternalBid_qfG(bytes32 _hash) public payable virtual;\n  function finalizeExternalAuction_WmS(bytes32 _hash) public payable virtual;\n  function cancelExternalBid_9ig(bytes32 seal, bytes32 hash) public payable virtual;\n}\n\nbytes32 constant kkk = 0x4db45745d63e3d3fca02d388bb6d96a256b72fa6a5ca7e7b2c10c90c84130f3b;\n\n// ******************************* DeedProxy CONTRACT **************************\n\npragma solidity ^0.8.18 <0.8.20;\ncontract IntDeedProxy {\n    address internal masterCopy;\n    bytes32 public  lhash;\n    address public  owner;\n    uint64  public  creationDate;\n    event DeedCreated(address indexed);\n  \n    constructor(address _masterCopy,address _owner,bytes32 _lhash) payable { \n      masterCopy   =  _masterCopy;\n      owner        =  _owner;\n      creationDate =   uint64(block.timestamp);\n      lhash        = _lhash;\n      emit DeedCreated(address(this));\n    }\n    \n    fallback () external payable\n    {   \n      // solium-disable-next-line security/no-inline-assembly\n      assembly {\n          let master := and(sload(0),0xffffffffffffffffffffffffffffffffffffffff)\n          if eq(calldataload(0),0xa619486e00000000000000000000000000000000000000000000000000000000) {\n            mstore(0, master)\n            return(0, 0x20)\n          }\n\n          let ptr := mload(0x40)\n          calldatacopy(ptr, 0, calldatasize())\n          let success := delegatecall(gas(),master,ptr,calldatasize(),0,0)\n          returndatacopy(0, 0, returndatasize())\n          if eq(success,0) { revert(0,0x204) }\n          return(0, returndatasize())\n      }\n    }\n}\n// ******************************* DeedProxy CONTRACT **************************\n\nabstract contract ABS_IntDeedMaster {\n  address public  masterCopy;\n  ABS_Reg public  theRegistrar;\n}\n\n// ******************************* DEED MASTER CONTRACT ************************\ncontract intDeedMaster {\n  address internal masterCopy;\n  bytes32 public  lhash;\n  address public  owner;\n  uint64  public  creationDate;\n  event DeedCreated(address indexed);\n  \n  ABS_Reg public  theRegistrar;\n\n  constructor(address _masterCopy) payable\n  {\n    masterCopy   = _masterCopy;\n    owner        = tx.origin;\n    theRegistrar = ABS_Reg(msg.sender);\n    creationDate = uint64(block.timestamp);\n  }\n  \n  function registrar() public payable returns (ABS_Reg) {\n    return ABS_IntDeedMaster(masterCopy).theRegistrar();\n  }\n  \n  function adjustBal_1k3(uint newValue) public payable {                        // 0x0000f6a6\n    if (address(this).balance<newValue) return;\n    require(msg.sender==address(registrar())&&payable(address(uint160(owner))).send(address(this).balance-newValue),\"aBl\");\n  }\n\n  function closeDeed_igk(address receiver) public payable {                     // 0x00004955\n    address l_rcv = owner;\n    require(owner!=address(0x0),'owner=0x0');\n    \n    if (uint160(receiver)>0) l_rcv = receiver;\n    require(msg.sender==address(registrar())&&l_rcv!=address(0x0)&&payable(l_rcv).send(address(this).balance),\"iclD\");\n  }\n}\n\n// ******************************* EXT DEED MASTER CONTRACT ********************\npragma solidity ^0.8.18 <0.8.20;\ncontract extDeedMaster {\n  address internal masterCopy;\n  address public  owner;\n  uint64  public  creationDate;\n  ABS_Reg public  registrar;\n  bytes32 public  lhash;\n\n  event DeedCreated(address indexed);\n  event NewBid(address indexed);\n  event RevealBid(address indexed);\n  event CancelBid(address indexed);\n\n  constructor(address _masterCopy) payable\n  {\n    masterCopy   = _masterCopy;\n    owner        = tx.origin;\n    registrar    = ABS_Reg(msg.sender);\n    creationDate = uint64(block.timestamp);\n  }\n\n  function adjustBal_1k3(uint newValue) public payable {                        // 0x0000f6a6\n    if (address(this).balance<=newValue) return;\n    require(msg.sender==address(registrar)&&address(this).balance>0&&payable(address(uint160(owner))).send(address(this).balance-newValue),\"aSd\");\n  }\n\n  function closeDeed_igk(address receiver) public payable {                     // 0x00004955\n    require(msg.sender==address(registrar)&&payable(address( (receiver!=address(0x0)) ? receiver : owner )).send(address(this).balance),\"exD\");\n  }\n  \n  receive() external payable {    \n    uint lstate = registrar.state_pln(lhash);\n    \n    if (lstate==1) {                                                            // OPEN for bidding\n      require(lhash!=0x0&&msg.value>0&&address(this).balance==msg.value,\"e2\");\n      owner = msg.sender;\n      registrar.saveExtDeedCntr_gm9(msg.sender,lhash,msg.value);\n      emit NewBid(msg.sender);\n    } else\n    {\n      if (lstate>1) require(lhash!=0x0&&msg.value==0&&owner==msg.sender,\"ex\");  // only Deed owner\n\n      if (lstate==4) {                                                      \n        registrar.unsealExternalBid_qfG(lhash);                                 // REVEAL phase\n        emit RevealBid(msg.sender);\n      } else\n      {\n        if (lstate==2) {                                                        // FINALIZE phase\n          registrar.finalizeExternalAuction_WmS(lhash);\n        } else\n        {\n          if (lstate==6) {                                                      // CANCEL after auction done\n            registrar.cancelExternalBid_9ig(keccak256(abi.encode(lhash,owner,address(this).balance,kkk)),lhash);\n            emit CancelBid(msg.sender);\n          } else\n          {\n            lstate = 0;\n            if (msg.value>0) require(!payable(msg.sender).send(msg.value),\"FB\");// fallback: send back payment to sender\n          }\n        }\n      }\n    }\n  }\n}\n// ************************* ExtDeedProxy CONTRACT *****************************\n\npragma solidity ^0.8.18 <0.8.20;\ncontract ExtDeedProxy {\n    address internal masterCopy;\n    address public  owner;\n    uint64  public  creationDate;\n    ABS_Reg public  registrar;\n    bytes32 public  lhash;\n    event DeedCreated(address indexed);\n    \n    constructor(address _masterCopy,bytes32 _lhash) payable { \n      masterCopy   = _masterCopy;\n      registrar    =  ABS_Reg(msg.sender);\n      creationDate =  uint64(block.timestamp);\n      lhash        = _lhash;\n      emit DeedCreated(address(this));\n    }\n    \n    fallback () external payable\n    {   \n      // solium-disable-next-line security/no-inline-assembly\n      assembly {\n          let ptr := mload(0x40)\n          calldatacopy(ptr, 0, calldatasize())\n          let success := delegatecall(gas(),and(sload(0),0xffffffffffffffffffffffffffffffffffffffff),ptr,calldatasize(),0,0)\n          returndatacopy(0, 0, returndatasize())\n          if eq(success,0) { revert(0,0x204) }\n          return(0, returndatasize())\n      }\n    }\n}\n// ************************* ExtDeedProxy CONTRACT *****************************\n\nabstract contract ABS_ExtDeed {\n  ABS_Reg public  registrar;\n  address public  owner;\n}\n\n/**\n * @title AuctionMaster\n * @dev The contract handles the auction process for fund raising\n */\ncontract AuctionMaster {\n    mapping (address => mapping(bytes32 => uint256)) private biddingValue;\n    mapping (bytes32 => uint256) entry_B;\n    mapping (bytes32 => uint256) entry_A;\n    mapping (bytes32 => uint256) entry_C;\n\n    enum Mode { Open, Auction, Owned, Forbidden, Reveal, empty, Over }\n    \n    uint public registryStarted;\n    address public RegOwner;\n\n    event AuctionStarted(bytes32 indexed hash, uint indexed);\n    event NewBid(bytes32 indexed hash, address indexed, uint indexed);\n    event BidRevealed(bytes32 indexed hash, address indexed, uint indexed, uint8);\n    event HashReleased(bytes32 indexed hash, uint indexed);\n    event AuctionFinalized(bytes32 indexed hash, address indexed, uint indexed, uint);\n    event TestReturn(uint256 v1, uint256 v2, uint256 v3, uint256 v4);\n    event Deposit(address indexed, uint256 indexed);\n    event ExternalDeedMaster(address indexed);\n    event InternalDeedMaster(address indexed);\n\n\n    uint256 constant k_maskBidVal   = 0x00000000000000000000000000000000000000000000ffffffffffffffffffff;\n    uint256 constant k_maskSealBid  = 0xffffffffffffffffffffffffffffffffffffffffffff00000000000000000000; \n    uint256 constant k_addressMask  = 0x000000000000000000000000ffffffffffffffffffffffffffffffffffffffff; \n    uint256 constant k_highBidMask  = 0x0000ffffffffffffffffffff0000000000000000000000000000000000000000;\n    uint256 constant k_regDataMask  = 0x00000000000000007fffffff0000000000000000000000000000000000000000;\n    uint256 constant k_regDataMask2 = 0x000000000000000000000000000000000000000000000000000000007fffffff;\n    uint256 constant k_regDataMask3 = 0xffffffffffffffff80000000ffffffffffffffffffffffffffffffffffffffff; \n    uint256 constant k_finalizeMask = 0x0000000000000000800000000000000000000000000000000000000000000000;\n    uint256 constant k_finFlagMask  = 0xffffffffffffffff7fffffffffffffffffffffffffffffffffffffffffffffff;\n    uint256 constant k_minPrcMask   = 0xffffffffffffffff000000000000000000000000000000000000000000000000;\n    uint256 constant k_minPrcMask2  = 0x000000000000000000000000000000000000000000000000ffffffffffffffff;\n    uint256 constant k_minPrcMask3  = 0x0000000000000000ffffffffffffffffffffffffffffffffffffffffffffffff;\n    uint256 constant k_rvlPerMask   = 0x0000000000000000000000000000000000007fffffff00000000000000000000;\n    uint256 constant k_rvlPerMask2  = 0xffffffffffffffffffffffffffffffffffff80000000ffffffffffffffffffff;\n    \n    uint256 constant k_valueMask    = 0x000000000000ffffffffffff0000000000000000000000000000000000000000;\n    uint256 constant k_typeMask     = 0xf000000000000000000000000000000000000000000000000000000000000000;\n\n    uint256 constant k_lenByteMask  = 0xffffffffffffffffffffffffffffffffffffffffffffffffffffffffffffff00;\n\n\n    // 0000000000000000000000000000000000000000000000000000000000000000         32 bytes (minPrc:8, final:01, regDate: 4-01, gwp 20) = 32 bytes  entry_A\n    // 0000000000000000000000003f6d05530286f455e77b1ea1b120670bc7038669 gwp     20 bytes\n    // 00000000000000007fffffff0000000000000000000000000000000000000000 regDate 4 bytes until Jan 2038 0x7fffffff\n    // 0000000000000000800000000000000000000000000000000000000000000000 final   1 bit 0x8 \n    // ffffffffffffffff000000000000000000000000000000000000000000000000 minPrc  8 bytes * 1000 = 18,444.00 ETH 0xffffffffffffffff\n    \n    // 0000000000000000000000000000000000000000000000000000000000000000         32 bytes (deed:20, hiBid: 10, notUsed: 2)  entry_B\n    // 0000000000000000000000005351248ba7800602be2ccaefba6a8c626e52f803 deed    20 bytes \n    // 0000ffffffffffffffffffff0000000000000000000000000000000000000000 hiBid   10 bytes\n    // ffff000000000000000000000000000000000000000000000000000000000000 ???      2 bytes not used\n    \n    // 0000000000000000000000000000000000000000000000000000000000000000         32 bytes (val:10, rvlPer: 4-01bit, notUsed: 18)  entry_C\n    // 00000000000000000000000000000000000000000000ffffffffffffffffffff val     10 bytes  0xffffffffffffffffffff  1208925 ETH\n    // 0000000000000000000000000000000000007fffffff00000000000000000000 rvlPer   4 bytes - 1bit\n    // 000000000000000000000000000000000000                             ????    18 bytes not used\n    \n    \n    // State transitions for names:\n    //   Open -> Auction (startAuction)\n    //   Auction -> Reveal\n    //   Reveal -> Owned\n    //   Reveal -> Open (if nobody bid)\n    //   Owned -> Open (releaseDeed or invalidateName)\n    //   Over  -> Over (auction finalized and done)\n    function state_pln(bytes32 _hash) public view returns (Mode) {              // 0x00006154      \n        if (__finalize(_hash)) return Mode.Over;\n        uint l_regDate = __regDate(_hash);\n        \n        if(block.timestamp < l_regDate) {\n            if (block.timestamp < (l_regDate - __revealPeriod(_hash))) {\n                return Mode.Auction;\n            } else {\n                return Mode.Reveal;\n            }\n        } else {\n            if(__highestBid(_hash) == 0) {\n                return Mode.Open;\n            } else {\n                return Mode.Owned;\n            }\n        }\n    }\n    \n    function entries(bytes32 _hash) public view returns (Mode, address, uint, uint, uint, uint, uint, uint) {\n      uint l_reveal = __revealPeriod(_hash);\n      \n      Mode l_state  = state_pln(_hash);\n      address l_add = address(__deed(_hash));\n      \n      uint[5] memory l_a;\n      l_a[0]   = __minPrice(_hash);\n      l_a[1]   = __finalize(_hash) ? 1 : 0;\n      l_a[2]   = __highestBid(_hash);\n      l_a[3]   = __deedValue(_hash);\n      l_a[4]   = __regDate(_hash);\n      \n      return (l_state, l_add, l_a[4], l_a[3], l_a[2], l_a[1], l_a[0], l_reveal);\n    }\n    \n    \n    // bitMap methods to access bidValue and sealedBid economically\n    \n    function __biddVal(address bidder,bytes32 hash) private view returns (uint) {\n      return uint(biddingValue[bidder][hash] & k_maskBidVal);\n    }\n    \n    function __sealedBid(address bidder,bytes32 hash) private view returns (address) {\n      return address(uint160(uint256(uint256(uint256(biddingValue[bidder][hash])>>80) & k_addressMask)));\n    }\n\n    function saveSealedBid(address bidder,bytes32 seal,address bid) private {\n      biddingValue[bidder][seal] = uint256(uint256(uint256(uint160(bid))<<80) & k_maskSealBid) + uint256(biddingValue[bidder][seal] & k_maskBidVal);\n    }\n    \n    function saveBiddVal(address bidder,bytes32 hash,uint val) private {\n      biddingValue[bidder][hash] = uint256(biddingValue[bidder][hash] & k_maskSealBid) + uint256(val & k_maskBidVal);\n    }\n    \n    function getBiddingValue(address bidder,bytes32 hash) public view returns (uint256) {\n      return uint256(__biddVal(bidder,hash));\n    }\n    \n    function sealedBidContract(address bidder,bytes32 hash) public view returns (address) {\n      return __sealedBid(bidder,hash);\n    }\n    \n  \n    // deed,highestBid ----entry_B----------------------------------------------\n    \n    function __deed(bytes32 hash) private view returns (address) {\n      return address(uint160(uint256(entry_B[hash] & k_addressMask)));\n    }\n    \n    function saveDeed(bytes32 hash,address deed) private {\n      entry_B[hash] = uint256(entry_B[hash] & k_highBidMask) + uint256(uint256(uint160(deed)) & k_addressMask);\n    }\n\n    function __highestBid(bytes32 hash) private view returns (uint) {\n      return uint(uint256(uint256(entry_B[hash] & k_highBidMask)>>160) & k_maskBidVal);\n    }\n    \n    function saveHighestBid(bytes32 hash,uint highBid) private {\n      entry_B[hash] = uint256(entry_B[hash] & k_addressMask) + uint256(uint256(uint256(highBid & k_maskBidVal)<<160) & k_highBidMask);\n    }\n    \n    function saveDeedAndHighBid(bytes32 hash,address deed,uint highBid) private {\n      entry_B[hash] = uint256(uint256(uint160(deed)) & k_addressMask) + uint256(uint256(uint256(highBid & k_maskBidVal)<<160) & k_highBidMask);\n    }\n\n\n    // gwp,regDate,final,minPrc ----entry_A-------------------------------------\n\n    function __gwpc(bytes32 hash) private view returns (address) {\n      return address(uint160(uint256(entry_A[hash] & k_addressMask)));\n    }\n    \n    function saveGWPC(bytes32 hash,address gw) private {\n      entry_A[hash] = uint256(entry_A[hash] & k_highBidMask) + uint256(uint256(uint160(gw)) & k_addressMask);\n    }\n\n    function __regDate(bytes32 hash) private view returns (uint) {\n      return uint(uint256(uint256(entry_A[hash] & k_regDataMask)>>160) & k_regDataMask2);\n    }\n\n    function saveRegDate(bytes32 hash,uint regDate) private {\n      entry_A[hash] = uint256(entry_A[hash] & k_regDataMask3) + uint256(uint256(uint256(regDate & k_regDataMask2)<<160) & k_regDataMask);\n    }\n  \n    function __finalize(bytes32 hash) private view returns (bool) {\n      return bool(uint256(uint256(entry_A[hash] & k_finalizeMask))>0);\n    }\n    \n    function saveFinalize(bytes32 hash,bool finalize) private {\n      if ( finalize) entry_A[hash] = uint256(entry_A[hash] & k_finFlagMask) + uint256(k_finalizeMask);\n      if (!finalize) entry_A[hash] = uint256(entry_A[hash] & k_finFlagMask);\n    }\n\n    function __minPrice(bytes32 hash) private view returns (uint) {\n      return uint(uint256(uint256(entry_A[hash] & k_minPrcMask)>>176) & k_minPrcMask2);\n    }\n\n    function saveMinPrice(bytes32 hash,uint minPrc) private {\n      entry_A[hash] = uint256(entry_A[hash] & k_minPrcMask3) + uint256(uint256(uint256(minPrc & k_minPrcMask2)<<176) & k_minPrcMask);\n    }\n    \n    function saveGWRegDFinaMinPrc(bytes32 hash,address gw,uint regDate,bool finalize,uint minPrc) private {\n      uint256 l_finalize = 0;\n      if (finalize) l_finalize = uint256(k_finalizeMask);\n      entry_A[hash] = uint256(uint256(uint160(gw)) & k_addressMask) + uint256(uint256(uint256(regDate & k_regDataMask2)<<160) & k_regDataMask) + l_finalize + uint256(uint256(uint256(minPrc & k_minPrcMask2)<<176) & k_minPrcMask);\n    }\n\n    // -val,rvlPer----entry_C---------------------------------------------------\n\n    function __deedValue(bytes32 hash) private view returns (uint) {\n      return uint(uint256(uint256(entry_C[hash] & k_maskBidVal)));\n    }\n    \n    function saveDeedValue(bytes32 hash,uint val) private {\n      entry_C[hash] = uint256(entry_C[hash] & k_maskSealBid) + uint256(val & k_maskBidVal);\n    }\n\n    function __revealPeriod(bytes32 hash) private view returns (uint) {\n      return uint(uint256(uint256(uint256(entry_C[hash] & k_rvlPerMask)>>80) & k_regDataMask2));\n    }\n\n    function saveRevealPeriod(bytes32 hash,uint rvlPer) private {\n      entry_C[hash] = uint256(entry_C[hash] & k_rvlPerMask2) + uint256(uint256(uint256(rvlPer & k_regDataMask2)<<80) & k_rvlPerMask);\n    }\n    \n    function saveRevealPerValue(bytes32 hash,uint rvlPer,uint val) private {\n      entry_C[hash] = uint256(uint256(uint256(rvlPer & k_regDataMask2)<<80) & k_rvlPerMask) + uint256(val & k_maskBidVal);\n    }\n  \n    // -------------------------------------------------------------------------\n\n    /**\n     * @dev Constructs a new Registrar, with the provided address as the owner of the root node.\n     */\n    constructor() payable {\n      RegOwner = msg.sender;\n      registryStarted = block.timestamp;\n    }\n\n    /**\n     * @dev Returns lmax the maximum of two unsigned integers\n     * @param a A number to compare\n     * @param b A number to compare\n     * @return lmax The maximum of two unsigned integers\n     */\n    function max(uint a, uint b) internal pure returns (uint lmax) {\n        if (a > b)\n            return a;\n        else\n            return b;\n    }\n\n    /**\n     * @dev Returns the minimum of two unsigned integers\n     * @param a A number to compare\n     * @param b A number to compare\n     * @return lmin The minimum of two unsigned integers\n     */\n    function min(uint a, uint b) internal pure returns (uint lmin) {\n        if (a < b)\n            return a;\n        else\n            return b;\n    }\n\n    /**\n     * @dev Returns the length of a given string\n     * @param s The string to measure the length of\n     * @return The length of the input string\n     */\n    function strlen(string memory s) internal pure returns (uint) {\n        // Starting here means the LSB will be the byte we care about\n        uint ptr;\n        uint end;\n        uint len;\n        assembly {\n            ptr := add(s, 1)\n            end := add(mload(s), ptr)\n        }\n        for (len = 0; ptr < end; len++) {\n            uint8 b;\n            assembly { b := and(mload(ptr), 0xFF) }\n            if (b < 0x80) {\n                ptr += 1;\n            } else if(b < 0xE0) {\n                ptr += 2;\n            } else if(b < 0xF0) {\n                ptr += 3;\n            } else if(b < 0xF8) {\n                ptr += 4;\n            } else if(b < 0xFC) {\n                ptr += 5;\n            } else {\n                ptr += 6;\n            }\n        }\n        return len;\n    }\n    \n    function memcpy(uint dest, uint src, uint len) private pure {\n        // Copy word-length chunks while possible\n        for (; len >= 32; len -= 32) {\n            // solium-disable-next-line security/no-inline-assembly\n            assembly {\n                mstore(dest, mload(src))\n            }\n            dest += 32;\n            src += 32;\n        }\n        \n        if (len==0) return;\n\n        // Copy remaining bytes\n        uint mask = 256 ** (32 - len) - 1;\n        \n        // solium-disable-next-line security/no-inline-assembly\n        assembly {\n            let srcpart := and(mload(src), not(mask))\n            let destpart := and(mload(dest), mask)\n            mstore(dest, or(destpart, srcpart))\n        }\n    }\n\n    function stringMemoryTobytes32(string memory _data) private pure returns(bytes32 a) {\n      // solium-disable-next-line security/no-inline-assembly\n      assembly {\n          a := mload(add(_data, 32))\n      }\n    }\n\n    function bytes32ToBytes32WithLen(bytes32 _b) private pure returns (bytes32) {\n      return bytes32( uint256(uint256(_b) & k_lenByteMask) + uint256(uint256(strlen(bytes32ToStr(_b)))&0xff) );\n    }\n\n    function substring(bytes memory self, uint offset, uint len) internal pure returns(bytes memory) {\n        require(offset + len <= self.length,\"substring!!!\");\n\n        bytes memory ret = new bytes(len);\n        uint dest;\n        uint src;\n\n        // solium-disable-next-line security/no-inline-assembly\n        assembly {\n            dest := add(ret, 32)\n            src  := add(add(self, 32), offset)\n        }\n        memcpy(dest, src, len);\n\n        return ret;\n    }\n\n    function mb32(bytes memory _data) private pure returns(bytes32 a) {\n      // solium-disable-next-line security/no-inline-assembly\n      assembly {\n          a := mload(add(_data, 32))\n      }\n    }\n\n    function toLowerCaseBytes32(bytes32 _in) internal pure returns (bytes32) {\n      return bytes32(uint256(uint256(_in) | 0x2000000000000000000000000000000000000000000000000000000000000000 ));\n    }\n    \n    function bytes32ToStr(bytes32 _b) internal pure returns (string memory) {\n      bytes memory bArr = new bytes(32);\n      uint256 i;\n      \n      uint off = 0;\n      do { \n        if (_b[i] != 0) bArr[i] = _b[i];\n        else off = i;\n        i++;\n      } while(i<32&&off==0);\n      \n      \n      bytes memory rArr = new bytes(off);\n      \n      i=0;\n      do\n       { \n        if (bArr[i] != 0) rArr[i] = bArr[i];\n        off--;\n        i++;\n      } while(i<32&&off>0);\n      \n      return string(rArr); \n    }\n    \n    function getChainId() public view returns (uint) {\n      return block.chainid;\n    }\n\n    function isENSV3(ABS_GWF gwfc) internal view returns (bool) {\n      return (address(gwfc.ensNameWrapper())!=address(0x0));                    // ENS V3 e.g. on goerli\n    }\n\n    function tldOfChain() internal view returns (string memory) {\n      uint chainId = getChainId();\n      if (chainId==1284)     return \".glmr\";\n      if (chainId==137)      return \".matic\";\n      if (chainId==11155111) return \".sepeth\";\n      if (chainId==100)      return \".gnosis\";\n      if (chainId==56)       return \".bsc\";\n      return \".eth\";\n    }\n    \n    function getPercentageOfCost() internal view returns (uint) {\n      uint chainId = getChainId();\n      if (chainId==1284)     return 10;                                         // moonbeam auctions allow 10% of minimumBid == transaction fees\n      if (chainId==137)      return 80;                                         // make polygon auctions cheaper for testing\n      if (chainId==11155111) return 25;                                         // sepolia: It is hard to get SepETH!\n      if (chainId==5)        return 25;                                         // goerli\n      if (chainId==100)      return 95;                                         // gnosis\n      if (chainId==56)       return 10;                                         // bscmain binance mainnet\n      return 5;                                                                 // ethereum mainnet, ganache: Transaction cost not more than 5% of minBid\n    }\n    \n    /** \n     * @dev Returns registry starting date\n     * \n     */\n    function getAllowedTime() public view returns (uint timestamp) {\n      return registryStarted;\n    }\n    \n    function getGWPfromAuction(bytes32 _hash) public view returns (address) {\n      address gwp = __gwpc(_hash);\n      if (gwp!=address(0x0)&&isContract(gwp)) return gwp;\n      return address(0x0);\n    }\n    \n    function getAuctionMinBiddingPrice(bytes32 _hash) public view returns (uint) {\n      return __minPrice(_hash);\n    }\n  \n    function getGasPrice() private view returns (uint256) {\n        uint256 gasPrice;\n        assembly { gasPrice := gasprice() }\n        return gasPrice;\n    }\n    \n    function calculateMinAuctionPrice() private view returns (uint64) {\n      uint64 minP = uint64(getGasPrice() * uint(2433123) * (100 / getPercentageOfCost()));\n      if (minP<0.01 ether) minP += 0.01 ether;\n      return minP;\n    }\n      \n    /**\n     * @dev Start an auction for an available hash\n     *\n     * @param _hash   The hash to start an auction on\n     * @param revealP The reveal period in seconds, length of auction = 2*revealP\n     */\n    function startAuction_ge0(bytes32 _hash, uint revealP) public payable {     // 0x00004632\n      require(state_pln(_hash)==Mode.Open,\"startAuction auction not open\");\n      uint32 l_revealP = uint32(revealP) > 0 ? uint32(revealP) : 1 minutes;\n\n      saveRevealPerValue(_hash,l_revealP,0);\n      saveHighestBid(_hash,0);\n      saveGWRegDFinaMinPrc(_hash,msg.sender,uint64(block.timestamp)+uint64(l_revealP<<1),false,calculateMinAuctionPrice());\n\n      emit AuctionStarted(_hash, __regDate(_hash));\n    }\n\n    /**\n     * @dev Hash the values required for a secret bid\n     * @param hash The node corresponding to the desired namehash\n     * @param value The bid amount\n     * @param salt A random value to ensure secrecy of the bid\n     * @return sealedBid The hash of the bid values\n     */\n     function shaBid(bytes32 hash, address owner, uint value, bytes32 salt) public pure returns (bytes32 sealedBid) {\n        return keccak256(abi.encode(hash, owner, value, salt));\n    }\n\n    function saveExtDeedCntr_gm9(address _sender,bytes32 _hash,uint _value) public payable { // 0x000083bf \n      bytes32 lseal = keccak256(abi.encode(_hash,_sender,_value,kkk));\n      require(__sealedBid(_sender,lseal)==address(0x0)&&_value>=__minPrice(_hash),\"saveExDeed\");\n      \n      saveSealedBid(_sender,lseal,address(msg.sender));                         // lseal\n      saveBiddVal  (_sender,_hash,_value);                                      // _hash\n    }\n  \n    /**\n     * @dev Submit a new sealed bid on a desired hash in a blind auction \n     *\n     * Bids are sent by sending a message to the main contract with a hash and an amount. The hash\n     * contains information about the bid, including the bidded hash, the bid amount, and a random\n     * salt. Bids are not tied to any one auction until they are revealed. This is\n     * followed by a reveal period. Bids revealed after this period will be paid back and cancelled.\n     *\n     * @param seal A sealedBid, created by the shaBid function\n     * @param hash labelhash of name of auction\n     * @param masterContract Master - for IntDeedProxy\n     */\n    function newBidProxy_DKJ(bytes32 seal,bytes32 hash,address masterContract) public payable { // 0x0000f5c2\n      require(seal!=0x0&&__sealedBid(msg.sender,seal)==address(0x0)&&msg.value>=__minPrice(hash),\"newBidProxy\");\n      \n      address deed = address((new IntDeedProxy){value: msg.value}(masterContract,msg.sender,hash));\n      \n      saveSealedBid(msg.sender,seal,deed);                                                                     // creates a new deed contract with owner    \n      saveBiddVal(msg.sender,hash,msg.value);\n    }\n    \n    function createBidBucketProxy(bytes32 _hash,address masterContract) public payable {                       // new ExtDeedProxy contract\n      require(state_pln(_hash)==Mode.Auction&&!__finalize(_hash), \"AuctionNOTopenProxy\");\n      address deed = address((new ExtDeedProxy){value:0}(masterContract,_hash));                               // temporary deed contract, open for an external investor\n      \n      address gwp = address(__gwpc(_hash));                                                                    // GroupWallet Proxy contract GWP\n      require(gwp!=address(0x0)&&isContract(gwp),\"* gwp bad\");\n      \n      bytes32 labelhashOrStr = nextBucketLabel(ABS_GWP(gwp));                                                  // label hash || label string with len\n\n      _tokenContract(ABS_GWP(gwp)).nameBidBucket(getdHash(ABS_GWP(gwp)),labelhashOrStr,deed);                  // domain name hash of e.g. \"mygroupwallet.eth\"\n    }\n\n    // returns latest Auction contract and transaction Id\n    function auctionTRecord(ABS_GWP gwp) internal view returns (address,uint) {\n      uint256 t;\n      uint i = gwp.getTransactionsCount();\n      require(i>0,\"* auctions require >=1 transactions\");\n\n      do {\n        i--;\n        t = gwp.getTransactionRecord(i);\n      } while( (i>0) && (t>0) && ( (t & k_typeMask) != k_typeMask) );\n\n      require(address(uint160(t & k_addressMask))==address(this),\"* no auction transaction yet!\");\n      \n      return (address(uint160(t & k_addressMask)),i);\n    }\n    \n    function getLabelBytes32(ABS_GWP gw,uint _tNb) internal view returns (bytes32) {\n      return bytes32(uint256(gw.getTransactionRecord(_tNb) & k_valueMask)<<48);  // e.g. hash of \"seed\"\n    }\n    \n    function addBucketNbToLabel(bytes32 label32,uint nb) internal pure returns (bytes32) { // *** only one byte *** \n      return bytes32( uint256(uint256(uint256(nb+96))<<248) + uint256(uint256(label32)>>8) );\n    }\n    \n    function getdHash(ABS_GWP gw) internal view returns (bytes32) {\n      address gwfc = gw.getGWF();\n      require(address(gwfc)!=address(0x0),\"* gwfc bad *\");\n      return bytes32(gw.getTransactionRecord(uint256(uint160(gwfc))));          // domain hash, s.a. hash of \"mygroupwallet.eth\"\n    }\n    \n    function nextBucketLabel(ABS_GWP gw) internal view returns (bytes32 l) {\n      address gwfc = gw.getGWF();\n      require(address(gwfc)!=address(0x0),\"* gwfc bad\");\n      \n      Abstract_ENS ens = ABS_GWF(gwfc).ens();\n      require(address(ens)!=address(0x0),\"* ens bad\");\n      \n      (address auctionTAddr,uint tNb) = auctionTRecord(gw);\n      require(auctionTAddr==address(this)&&tNb>0,\"* bad auction address\");\n\n      bytes32 label   = getLabelBytes32(gw,tNb);\n      bytes32 domHash = getdHash(gw);\n      bytes32 labelHash;\n      bytes32 dhash;\n      \n      uint i = 0;\n      do {\n        i++;\n        labelHash  = keccak256(bytes(bytes32ToStr( addBucketNbToLabel(label,i) )));\n        dhash      = keccak256(abi.encodePacked(domHash,labelHash));\n      } while(ens.recordExists(dhash)&&i<=26);\n      \n      if (!ens.recordExists(dhash)) {\n        bool isENSv3 = isENSV3( ABS_GWF(gwfc) );\n\n        if (!isENSv3) return labelHash;\n        else          return bytes32ToBytes32WithLen(addBucketNbToLabel(label,i));\n      }\n\n      require(false,\"* nextBucketLabel bad *\");\n    }\n\n    /**\n     * @dev Submit the properties of a bid to reveal them\n     * @param _hash The node in the sealedBid\n     * @param _value The bid amount in the sealedBid\n     * @param _salt The sale in the sealedBid\n     */\n    function unsealBid_le$(bytes32 _hash, uint _value, bytes32 _salt) public payable {  // 0x0000bf3a\n        bytes32 seal = keccak256(abi.encode(_hash,msg.sender,_value,_salt));    // shaBid(_hash, msg.sender, _value, _salt);\n        intDeedMaster bid = intDeedMaster(payable(__sealedBid(msg.sender,seal)));\n        \n        require(address(bid)!=address(0x0),\"bid==0x0\");\n        saveSealedBid(msg.sender,seal,address(0x0));\n        \n        uint value = min(_value, address(bid).balance);\n        bid.adjustBal_1k3(value);\n\n        Mode auctionState = state_pln(_hash);\n        if(auctionState == Mode.Owned) {\n            bid.closeDeed_igk(address(0x0));                                    // Too late! Get's 100% back.\n            saveBiddVal(msg.sender,_hash,0);\n            //emit BidRevealed(_hash, msg.sender, value, 1);\n        } else if(auctionState != Mode.Reveal) {\n            revert(\"unsealBid auctionState != Mode.Reveal error\");              // Invalid phase\n        } else if (value < __minPrice(_hash) || bid.creationDate() > __regDate(_hash) - __revealPeriod(_hash)) {\n            bid.closeDeed_igk(address(0x0));                                    // Bid too low or too late, refund 100%\n            saveBiddVal(msg.sender,_hash,0);\n            //emit BidRevealed(_hash, msg.sender, value, 0);\n        } else if (value > __highestBid(_hash)) {\n            if(__deed(_hash) != address(0x0)) {                                 // new winner: cancel the other bid, refund 100%\n              intDeedMaster previousWinner = intDeedMaster(__deed(_hash));\n              saveBiddVal(previousWinner.owner(),_hash,0);\n              previousWinner.closeDeed_igk(address(0x0));\n            }\n            // set new winner: per the rules of a vickrey auction, the value becomes the previous highest Bid\n            saveDeedValue(_hash,__highestBid(_hash));                           // will be zero if there's only 1 bidder\n            saveDeedAndHighBid(_hash,address(bid),value);\n            //emit BidRevealed(_hash, msg.sender, value, 2);\n        } else if (value > __deedValue(_hash)) {\n            saveDeedValue(_hash,value);                                         // not winner, but affects second place\n            bid.closeDeed_igk(address(0x0));\n            saveBiddVal(msg.sender,_hash,0);\n            //emit BidRevealed(_hash, msg.sender, value, 3);\n        } else {\n            bid.closeDeed_igk(address(0x0));                                    // bid doesn't affect auction\n            saveBiddVal(msg.sender,_hash,0);\n            //emit BidRevealed(_hash, msg.sender, value, 4);\n        }\n    }\n\n    function unsealExternalBid_qfG(bytes32 _hash) public payable {              // 0x0000824d\n      require(_hash!=0x0&&address(ABS_ExtDeed(payable(msg.sender)).registrar())==address(this)&&ABS_ExtDeed(payable(msg.sender)).owner()==tx.origin,\"extDeed\");\n      \n      address l_sender = tx.origin;\n      uint    l_value  = address(msg.sender).balance;\n      \n      bytes32 seal     = keccak256(abi.encode(_hash,l_sender,l_value,kkk));     // shaBid(_hash,l_sender,l_value,kkk);\n      require(__sealedBid(l_sender,seal)==msg.sender,\"extSealedBid\");\n      \n      extDeedMaster bid = extDeedMaster(payable(__sealedBid(l_sender,seal)));\n      require(address(bid)!=address(0x0),\"bid==0x0\");\n      \n      saveSealedBid(l_sender,seal,address(0x0));\n      \n      if (l_value < __minPrice(_hash) || bid.creationDate() > __regDate(_hash) - __revealPeriod(_hash)) {\n          bid.closeDeed_igk(address(0x0));                                      // Bid too low or too late, refund 100%\n          saveBiddVal(msg.sender,_hash,0);\n          //emit BidRevealed(_hash, l_sender, l_value, 0);\n      } else if (l_value > __highestBid(_hash)) {\n          if( __deed(_hash) != address(0x0)) {                                  // new winner: cancel the other bid, refund 100%\n            extDeedMaster previousWinner = extDeedMaster(payable(__deed(_hash)));\n            saveBiddVal(previousWinner.owner(),_hash,0);\n            previousWinner.closeDeed_igk(address(0x0));\n          }\n          // set new winner: per the rules of a vickery auction, the value becomes the previous highest Bid\n          saveDeedValue(_hash,__highestBid(_hash));                             // will be zero if there's only 1 bidder\n          saveDeedAndHighBid(_hash,address(bid),l_value);\n          //emit BidRevealed(_hash, l_sender, l_value, 2);\n      } else if (l_value > __deedValue(_hash)) {\n          saveDeedValue(_hash,l_value);                                         // not winner, but affects second place\n          bid.closeDeed_igk(address(0x0));\n          saveBiddVal(msg.sender,_hash,0);\n          //emit BidRevealed(_hash, l_sender, l_value, 3);\n      } else {\n          bid.closeDeed_igk(address(0x0));                                      // bid doesn't affect auction\n          saveBiddVal(msg.sender,_hash,0);\n          //emit BidRevealed(_hash, l_sender, l_value, 4);\n      }\n    }\n\n\n    function getNameFromGW(ABS_GWP gw) internal view returns (string memory) {\n      return bytes32ToStr(toLowerCaseBytes32(mb32(bytes( getDomainNameString(gw) ))));\n    }\n\n    function splitTLDFromDomain(string memory domain) internal view returns (bytes memory) {\n      return bytes(substring(bytes(domain), 0, strlen(domain) - strlen(tldOfChain())));\n    }\n    \n    function getRevs(ABS_GWP gw) internal view returns (ABS_ReverseRegistrar) {\n      address GWF = gw.getGWF();\n      require(address(GWF)!=address(0x0),\"* reverseContract\");\n      return ABS_GWF(GWF).reverseContract();\n    }\n\n    function _tokenContract(ABS_GWP gw) internal view returns (ABS_TokenProxy) {\n      ABS_GWF GWF = ABS_GWF(gw.getGWF());\n      return ABS_TokenProxy(GWF.getProxyToken(getdHash(gw)));\n    }\n    \n    function getDomainNameString(ABS_GWP gw) internal view returns (string memory) {\n      if (isENSV3(ABS_GWF(gw.getGWF()))) {\n        ABS_TokenProxy tokenC = _tokenContract(gw);\n        require(address(tokenC)!=address(0x0),\"* getDomainNameString v3\");\n        return tokenC.name();   \n      }\n      else\n      {\n        ABS_ReverseRegistrar reverseR = getRevs(gw);\n        require(address(reverseR)!=address(0x0),\"* getDomainNameString\");\n        return reverseR.defaultResolver().name( reverseR.node(address(gw)) );\n      }\n    }\n    \n    function isContract(address addr) internal view returns (bool) {\n      uint size;\n      assembly { size := extcodesize(addr) }\n      return size > 0;\n    }\n    \n    function transferGroupShares(ABS_GWP gwc, address receiver) internal returns (uint) {\n      ABS_TokenProxy ptoken = _tokenContract(gwc);                              // token contract of group shares\n      \n      require(address(ptoken)!=address(0x0),\"* ptoken contract\");\n      require(address(receiver)!=address(0x0),\"* receiver\");\n      \n      uint bal = ptoken.balanceOf(address(this));\n      if (bal > 0) ptoken.transfer_G8l(receiver,bal);                           // send back shares to GroupWallet\n      \n      return (bal > 0) ? bal : 1;\n    }\n    \n    function transferGroupSharesAdjustPrices(ABS_GWP gwc, address receiver, uint payment, address deedContract) internal {      \n      ABS_TokenProxy ptoken = _tokenContract(gwc);                             // token contract of group shares\n      require(address(ptoken)!=address(0x0),      \"* ptoken contract\");\n      require(address(receiver)!=address(0x0),    \"* receiver\");\n      require(address(deedContract)!=address(0x0),\"* deedContract\");\n      require(payment>0,                          \"* payment\");\n      \n      bytes32 dHash = getdHash(gwc);\n      uint32  bal   = uint32(ptoken.balanceOf(address(this)));\n      if (bal > 0) ptoken.transferAdjustPrices(receiver,bal,payment,dHash,deedContract);\n    }\n    \n    /**\n     * @dev Finalize an auction after the registration date has passed\n     * @param _hash The hash of the name of the auction\n     */\n    function finalizeAuction_H3D(bytes32 _hash) public payable {                // 0x0000283b\n      intDeedMaster l_deed = intDeedMaster(payable(__deed(_hash)));\n      require(((state_pln(_hash)==Mode.Owned) || (state_pln(_hash)==Mode.Over)) && (msg.sender==l_deed.owner()),\"onlyOwnerFinalize\");\n      \n      uint l_deedVal = max(__deedValue(_hash), __minPrice(_hash));              // handles the case when there's only a single bidder value is zero)\n      \n      saveDeedValue(_hash,l_deedVal);                   \n      l_deed.adjustBal_1k3(l_deedVal);\n\n      address gwp = __gwpc(_hash);\n      \n      if (gwp!=address(0x0)&&isContract(gwp)) {\n        transferGroupSharesAdjustPrices(ABS_GWP(gwp),l_deed.owner(),l_deedVal,address(l_deed)); // transfer all token to highest bidder \n        l_deed.closeDeed_igk(gwp);\n      }\n      else\n      {\n        l_deed.closeDeed_igk(address(this));\n      }\n      \n      saveFinalize(_hash,true);                                                 // finalized flag      \n      saveBiddVal(msg.sender,_hash,0);\n      \n      emit AuctionFinalized(_hash, l_deed.owner(), l_deedVal, __regDate(_hash));\n    }\n\n    function finalizeExternalAuction_WmS(bytes32 _hash) public payable {        // 0x00009204\n      extDeedMaster l_deed  = extDeedMaster(payable(__deed(_hash)));\n      require(!__finalize(_hash)&&block.timestamp>=__regDate(_hash)&&__highestBid(_hash)>0&&address(ABS_ExtDeed(payable(msg.sender)).registrar())==address(this)&&tx.origin==l_deed.owner()&&ABS_ExtDeed(payable(msg.sender)).owner()==tx.origin,\"finalizeExt\");\n      \n      uint l_deedVal = max(__deedValue(_hash), __minPrice(_hash));              // handles the case when there's only a single bidder value is zero)\n\n      saveDeedValue(_hash,l_deedVal);\n      l_deed.adjustBal_1k3(l_deedVal);\n\n      address gwp = __gwpc(_hash);\n      \n      if (gwp!=address(0x0)&&isContract(gwp)) {\n        transferGroupSharesAdjustPrices(ABS_GWP(gwp),l_deed.owner(),l_deedVal,address(l_deed)); // transfer all token to highest bidder \n        l_deed.closeDeed_igk(gwp);\n      }\n      else\n      {\n        l_deed.closeDeed_igk(address(this));\n      }\n      \n      saveFinalize(_hash,true);                                                 // finalized flag\n      saveBiddVal(tx.origin,_hash,0);\n      \n      emit AuctionFinalized(_hash, l_deed.owner(), l_deedVal, __regDate(_hash));\n    }\n    \n    /**\n     * @dev Cancel a bid\n     * @param seal The value returned by the shaBid function\n     */\n    function cancelBid_k4U(bytes32 seal, bytes32 hash) public payable {         // 0x000046cb\n      intDeedMaster bid = intDeedMaster(payable(__sealedBid(msg.sender,seal)));\n      \n      if (address(bid) != address(0x0)) {\n        if (block.timestamp < bid.creationDate() + (__revealPeriod(hash)*2)) revert(\"cancelBid auctionLength error\"); \n        bid.closeDeed_igk(address(0x0));                                        // send back cancelled bid\n        saveSealedBid(msg.sender,seal,address(0x0));\n      }\n      \n      saveBiddVal(msg.sender,hash,0);\n      address gwp = __gwpc(hash);\n      \n      if (gwp!=address(0x0)&&isContract(gwp)) {\n        transferGroupShares(ABS_GWP(gwp),gwp);\n      }\n    }\n    \n    function cancelExternalBid_9ig(bytes32 seal, bytes32 hash) public payable { // 0x00006a26\n      require(__finalize(hash)&&(address(ABS_ExtDeed(payable(msg.sender)).registrar())==address(this)),\"cancelExt\");\n      \n      address l_sender = tx.origin;\n      extDeedMaster bid = extDeedMaster(payable(__sealedBid(l_sender,seal)));\n    \n      if (address(bid) != address(0x0)) {\n        if (block.timestamp < bid.creationDate() + (__revealPeriod(hash)*2)) revert(\"cancelExBid auctLength\"); \n        bid.closeDeed_igk(address(0x0));                                        // Send back the canceller bid.\n        saveSealedBid(l_sender,seal,address(0x0));\n      }\n      \n      saveBiddVal(l_sender,hash,0);\n      address gwp = __gwpc(hash);\n      \n      if (gwp!=address(0x0)&&isContract(gwp)) {\n        transferGroupShares(ABS_GWP(gwp),gwp);\n      }\n    }\n\n    /**\n     * @dev After some time, or if we're no longer the registrar, the owner can release\n     *      the name and get their ether back.\n     * @param _hash The node to release\n     */\n    function releaseDeed(bytes32 _hash) public payable {\n      intDeedMaster deed = intDeedMaster(payable(__deed(_hash)));\n      require(state_pln(_hash)==Mode.Over&&msg.sender==deed.owner()&&block.timestamp>=__regDate(_hash),\"releaseDeed err\");\n      saveDeedValue(_hash,0);\n      saveDeedAndHighBid(_hash,address(0x0),0);\n      deed.closeDeed_igk(address(0x0));        \n    }\n    \n    function releaseExternalDeed(bytes32 _hash) public payable {\n      extDeedMaster deed = extDeedMaster(payable(__deed(_hash)));\n      require(state_pln(_hash)==Mode.Over&&msg.sender==deed.owner()&&block.timestamp>=__regDate(_hash),\"extReleaseDeed err\");\n      saveDeedValue(_hash,0);\n      saveDeedAndHighBid(_hash,address(0x0),0);\n      deed.closeDeed_igk(address(0x0));        \n    }\n\n    function deployExtDeedMaster() public payable {\n      address lDeedMst = address((new extDeedMaster){value: 0}(address(this)));\n      emit ExternalDeedMaster(lDeedMst);\n    }\n     \n    function deployIntDeedMaster() public payable {\n      address lDeedMst = address((new intDeedMaster){value: 0}(address(this)));\n      emit InternalDeedMaster(lDeedMst);\n    }\n\n    function version() public pure returns(uint256 v) {\n      return 20010077;\n    }\n    \n    function withdraw() public {\n      require(RegOwner==msg.sender,\"Only Registrar owner\");\n      require(payable(address(uint160(msg.sender))).send(address(this).balance),\"Withdrawing funds from Registrar failed.\");\n    }\n    \n    fallback() external {\n      require(false,\"Registrar fallback!\");\n    }\n    \n    receive() external payable { emit Deposit(msg.sender, msg.value); }\n}",
  "sourcePath": "/Users/pepsi/MetaCoin/contracts/AuctionMaster.sol",
  "compiler": {
    "name": "solc",
    "version": "0.8.19+commit.7dd6d404.Emscripten.clang"
  },
  "schemaVersion": "3.4.10",
  "updatedAt": "2023-06-17T11:57:49.734Z",
  "devdoc": {
    "details": "The contract handles the auction process for fund raising",
    "kind": "dev",
    "methods": {
      "cancelBid_k4U(bytes32,bytes32)": {
        "details": "Cancel a bid",
        "params": {
          "seal": "The value returned by the shaBid function"
        }
      },
      "constructor": {
        "details": "Constructs a new Registrar, with the provided address as the owner of the root node."
      },
      "finalizeAuction_H3D(bytes32)": {
        "details": "Finalize an auction after the registration date has passed",
        "params": {
          "_hash": "The hash of the name of the auction"
        }
      },
      "getAllowedTime()": {
        "details": "Returns registry starting date "
      },
      "newBidProxy_DKJ(bytes32,bytes32,address)": {
        "details": "Submit a new sealed bid on a desired hash in a blind auction  Bids are sent by sending a message to the main contract with a hash and an amount. The hash contains information about the bid, including the bidded hash, the bid amount, and a random salt. Bids are not tied to any one auction until they are revealed. This is followed by a reveal period. Bids revealed after this period will be paid back and cancelled.",
        "params": {
          "hash": "labelhash of name of auction",
          "masterContract": "Master - for IntDeedProxy",
          "seal": "A sealedBid, created by the shaBid function"
        }
      },
      "releaseDeed(bytes32)": {
        "details": "After some time, or if we're no longer the registrar, the owner can release      the name and get their ether back.",
        "params": {
          "_hash": "The node to release"
        }
      },
      "shaBid(bytes32,address,uint256,bytes32)": {
        "details": "Hash the values required for a secret bid",
        "params": {
          "hash": "The node corresponding to the desired namehash",
          "salt": "A random value to ensure secrecy of the bid",
          "value": "The bid amount"
        },
        "returns": {
          "sealedBid": "The hash of the bid values"
        }
      },
      "startAuction_ge0(bytes32,uint256)": {
        "details": "Start an auction for an available hash",
        "params": {
          "_hash": "The hash to start an auction on",
          "revealP": "The reveal period in seconds, length of auction = 2*revealP"
        }
      },
      "unsealBid_le$(bytes32,uint256,bytes32)": {
        "details": "Submit the properties of a bid to reveal them",
        "params": {
          "_hash": "The node in the sealedBid",
          "_salt": "The sale in the sealedBid",
          "_value": "The bid amount in the sealedBid"
        }
      }
    },
    "title": "AuctionMaster",
    "version": 1
  },
  "userdoc": {
    "kind": "user",
    "methods": {},
    "version": 1
  }
}