{
  "contractName": "TokenMaster2",
  "abi": [
    {
      "inputs": [
        {
          "internalType": "bytes32",
          "name": "tokenName",
          "type": "bytes32"
        }
      ],
      "stateMutability": "payable",
      "type": "constructor"
    },
    {
      "anonymous": false,
      "inputs": [
        {
          "indexed": true,
          "internalType": "address",
          "name": "owner",
          "type": "address"
        },
        {
          "indexed": true,
          "internalType": "address",
          "name": "spender",
          "type": "address"
        },
        {
          "indexed": false,
          "internalType": "uint256",
          "name": "value",
          "type": "uint256"
        }
      ],
      "name": "Approval",
      "type": "event"
    },
    {
      "anonymous": false,
      "inputs": [
        {
          "indexed": false,
          "internalType": "address",
          "name": "owner",
          "type": "address"
        },
        {
          "indexed": false,
          "internalType": "address",
          "name": "theContract",
          "type": "address"
        }
      ],
      "name": "Deployment",
      "type": "event"
    },
    {
      "anonymous": false,
      "inputs": [
        {
          "indexed": false,
          "internalType": "address",
          "name": "from",
          "type": "address"
        },
        {
          "indexed": false,
          "internalType": "uint256",
          "name": "value",
          "type": "uint256"
        }
      ],
      "name": "Deposit",
      "type": "event"
    },
    {
      "anonymous": false,
      "inputs": [
        {
          "indexed": false,
          "internalType": "address",
          "name": "target",
          "type": "address"
        },
        {
          "indexed": false,
          "internalType": "bool",
          "name": "frozen",
          "type": "bool"
        }
      ],
      "name": "FrozenFunds",
      "type": "event"
    },
    {
      "anonymous": false,
      "inputs": [
        {
          "indexed": false,
          "internalType": "uint256",
          "name": "v1",
          "type": "uint256"
        },
        {
          "indexed": false,
          "internalType": "uint256",
          "name": "v2",
          "type": "uint256"
        },
        {
          "indexed": false,
          "internalType": "uint256",
          "name": "v3",
          "type": "uint256"
        },
        {
          "indexed": false,
          "internalType": "uint256",
          "name": "v4",
          "type": "uint256"
        }
      ],
      "name": "TestReturn",
      "type": "event"
    },
    {
      "anonymous": false,
      "inputs": [
        {
          "indexed": true,
          "internalType": "address",
          "name": "from",
          "type": "address"
        },
        {
          "indexed": true,
          "internalType": "address",
          "name": "to",
          "type": "address"
        },
        {
          "indexed": false,
          "internalType": "uint256",
          "name": "value",
          "type": "uint256"
        }
      ],
      "name": "Transfer",
      "type": "event"
    },
    {
      "stateMutability": "payable",
      "type": "fallback"
    },
    {
      "stateMutability": "payable",
      "type": "receive"
    },
    {
      "inputs": [],
      "name": "getMasterCopy",
      "outputs": [
        {
          "internalType": "address",
          "name": "",
          "type": "address"
        }
      ],
      "stateMutability": "view",
      "type": "function"
    },
    {
      "inputs": [],
      "name": "owner",
      "outputs": [
        {
          "internalType": "address",
          "name": "ow",
          "type": "address"
        }
      ],
      "stateMutability": "view",
      "type": "function"
    },
    {
      "inputs": [],
      "name": "name",
      "outputs": [
        {
          "internalType": "string",
          "name": "",
          "type": "string"
        }
      ],
      "stateMutability": "view",
      "type": "function"
    },
    {
      "inputs": [],
      "name": "standard",
      "outputs": [
        {
          "internalType": "string",
          "name": "std",
          "type": "string"
        }
      ],
      "stateMutability": "pure",
      "type": "function"
    },
    {
      "inputs": [],
      "name": "symbol",
      "outputs": [
        {
          "internalType": "string",
          "name": "sym",
          "type": "string"
        }
      ],
      "stateMutability": "pure",
      "type": "function"
    },
    {
      "inputs": [],
      "name": "decimals",
      "outputs": [
        {
          "internalType": "uint8",
          "name": "dec",
          "type": "uint8"
        }
      ],
      "stateMutability": "pure",
      "type": "function"
    },
    {
      "inputs": [],
      "name": "totalSupply",
      "outputs": [
        {
          "internalType": "uint256",
          "name": "spl",
          "type": "uint256"
        }
      ],
      "stateMutability": "pure",
      "type": "function"
    },
    {
      "inputs": [],
      "name": "sellPrice",
      "outputs": [
        {
          "internalType": "uint256",
          "name": "sp",
          "type": "uint256"
        }
      ],
      "stateMutability": "view",
      "type": "function"
    },
    {
      "inputs": [],
      "name": "buyPrice",
      "outputs": [
        {
          "internalType": "uint256",
          "name": "bp",
          "type": "uint256"
        }
      ],
      "stateMutability": "view",
      "type": "function"
    },
    {
      "inputs": [
        {
          "internalType": "address",
          "name": "tokenOwner",
          "type": "address"
        }
      ],
      "name": "balanceOf",
      "outputs": [
        {
          "internalType": "uint256",
          "name": "thebalance",
          "type": "uint256"
        }
      ],
      "stateMutability": "view",
      "type": "function"
    },
    {
      "inputs": [
        {
          "internalType": "address",
          "name": "tokenOwner",
          "type": "address"
        }
      ],
      "name": "frozen",
      "outputs": [
        {
          "internalType": "bool",
          "name": "isFrozen",
          "type": "bool"
        }
      ],
      "stateMutability": "view",
      "type": "function"
    },
    {
      "inputs": [
        {
          "internalType": "address",
          "name": "tokenOwner",
          "type": "address"
        },
        {
          "internalType": "address",
          "name": "spender",
          "type": "address"
        }
      ],
      "name": "tokenAllow",
      "outputs": [
        {
          "internalType": "uint256",
          "name": "tokens",
          "type": "uint256"
        }
      ],
      "stateMutability": "view",
      "type": "function"
    },
    {
      "inputs": [
        {
          "internalType": "bytes32",
          "name": "hash",
          "type": "bytes32"
        }
      ],
      "name": "getResolverReport",
      "outputs": [
        {
          "internalType": "address",
          "name": "rslv_owner",
          "type": "address"
        },
        {
          "internalType": "address",
          "name": "gwp",
          "type": "address"
        },
        {
          "internalType": "bytes",
          "name": "abi32_",
          "type": "bytes"
        },
        {
          "internalType": "bytes",
          "name": "abi128_",
          "type": "bytes"
        },
        {
          "internalType": "address[]",
          "name": "GWPowners",
          "type": "address[]"
        }
      ],
      "stateMutability": "view",
      "type": "function"
    },
    {
      "inputs": [
        {
          "internalType": "bytes32",
          "name": "hash",
          "type": "bytes32"
        }
      ],
      "name": "tokenReportBalances",
      "outputs": [
        {
          "internalType": "uint256[]",
          "name": "tokenR",
          "type": "uint256[]"
        },
        {
          "internalType": "address[]",
          "name": "GWPowners",
          "type": "address[]"
        },
        {
          "internalType": "uint256[]",
          "name": "balArr",
          "type": "uint256[]"
        }
      ],
      "stateMutability": "view",
      "type": "function"
    },
    {
      "inputs": [
        {
          "internalType": "bytes32",
          "name": "hash",
          "type": "bytes32"
        },
        {
          "internalType": "address",
          "name": "gwfc",
          "type": "address"
        }
      ],
      "name": "getMemberBalances",
      "outputs": [
        {
          "internalType": "uint256[]",
          "name": "",
          "type": "uint256[]"
        }
      ],
      "stateMutability": "view",
      "type": "function"
    },
    {
      "inputs": [
        {
          "internalType": "string",
          "name": "_domain",
          "type": "string"
        },
        {
          "internalType": "address",
          "name": "gwfc",
          "type": "address"
        },
        {
          "internalType": "bytes32",
          "name": "hash",
          "type": "bytes32"
        }
      ],
      "name": "getDomainReport",
      "outputs": [
        {
          "internalType": "uint256[]",
          "name": "token",
          "type": "uint256[]"
        },
        {
          "internalType": "bytes",
          "name": "structure",
          "type": "bytes"
        },
        {
          "internalType": "address[]",
          "name": "GWPowners",
          "type": "address[]"
        },
        {
          "internalType": "uint256[]",
          "name": "balArr",
          "type": "uint256[]"
        },
        {
          "internalType": "bytes",
          "name": "abi128_",
          "type": "bytes"
        }
      ],
      "stateMutability": "payable",
      "type": "function"
    },
    {
      "inputs": [
        {
          "internalType": "bytes",
          "name": "self",
          "type": "bytes"
        },
        {
          "internalType": "uint256",
          "name": "offset",
          "type": "uint256"
        },
        {
          "internalType": "uint256",
          "name": "len",
          "type": "uint256"
        }
      ],
      "name": "substring",
      "outputs": [
        {
          "internalType": "bytes",
          "name": "",
          "type": "bytes"
        }
      ],
      "stateMutability": "pure",
      "type": "function"
    },
    {
      "inputs": [
        {
          "internalType": "address",
          "name": "spender",
          "type": "address"
        },
        {
          "internalType": "uint256",
          "name": "tokens",
          "type": "uint256"
        }
      ],
      "name": "approve_v2d",
      "outputs": [],
      "stateMutability": "nonpayable",
      "type": "function"
    },
    {
      "inputs": [
        {
          "internalType": "address",
          "name": "toReceiver",
          "type": "address"
        },
        {
          "internalType": "uint256",
          "name": "amount",
          "type": "uint256"
        }
      ],
      "name": "transfer_G8l",
      "outputs": [],
      "stateMutability": "nonpayable",
      "type": "function"
    },
    {
      "inputs": [
        {
          "internalType": "address",
          "name": "toReceiver",
          "type": "address"
        },
        {
          "internalType": "uint256",
          "name": "amount",
          "type": "uint256"
        },
        {
          "internalType": "uint256",
          "name": "payment",
          "type": "uint256"
        },
        {
          "internalType": "bytes32",
          "name": "dhash",
          "type": "bytes32"
        },
        {
          "internalType": "address",
          "name": "deedContract",
          "type": "address"
        }
      ],
      "name": "transferAdjustPrices",
      "outputs": [],
      "stateMutability": "nonpayable",
      "type": "function"
    },
    {
      "inputs": [
        {
          "internalType": "bytes32",
          "name": "dhash",
          "type": "bytes32"
        },
        {
          "internalType": "bytes32",
          "name": "labelhash",
          "type": "bytes32"
        },
        {
          "internalType": "address",
          "name": "deedContract",
          "type": "address"
        }
      ],
      "name": "nameBidBucket",
      "outputs": [],
      "stateMutability": "nonpayable",
      "type": "function"
    },
    {
      "inputs": [
        {
          "internalType": "bytes32",
          "name": "dhash",
          "type": "bytes32"
        },
        {
          "internalType": "bytes32",
          "name": "labelhashOrStr",
          "type": "bytes32"
        },
        {
          "internalType": "address",
          "name": "ppAccount",
          "type": "address"
        }
      ],
      "name": "registerPrePaidBucket",
      "outputs": [],
      "stateMutability": "nonpayable",
      "type": "function"
    },
    {
      "inputs": [
        {
          "internalType": "bytes32",
          "name": "dHash",
          "type": "bytes32"
        },
        {
          "internalType": "address",
          "name": "from",
          "type": "address"
        },
        {
          "internalType": "address",
          "name": "toReceiver",
          "type": "address"
        }
      ],
      "name": "drainShares",
      "outputs": [],
      "stateMutability": "nonpayable",
      "type": "function"
    },
    {
      "inputs": [
        {
          "internalType": "bytes32",
          "name": "dHash",
          "type": "bytes32"
        },
        {
          "internalType": "address",
          "name": "from",
          "type": "address"
        },
        {
          "internalType": "address",
          "name": "toReceiver",
          "type": "address"
        }
      ],
      "name": "drainLegacyShares",
      "outputs": [],
      "stateMutability": "nonpayable",
      "type": "function"
    },
    {
      "inputs": [
        {
          "internalType": "address",
          "name": "from",
          "type": "address"
        },
        {
          "internalType": "address",
          "name": "toReceiver",
          "type": "address"
        },
        {
          "internalType": "uint256",
          "name": "amount",
          "type": "uint256"
        }
      ],
      "name": "transferFrom_78S",
      "outputs": [],
      "stateMutability": "nonpayable",
      "type": "function"
    },
    {
      "inputs": [
        {
          "internalType": "address",
          "name": "newOwner",
          "type": "address"
        }
      ],
      "name": "transferOwnership_m0",
      "outputs": [],
      "stateMutability": "nonpayable",
      "type": "function"
    },
    {
      "inputs": [
        {
          "internalType": "address",
          "name": "target",
          "type": "address"
        },
        {
          "internalType": "bool",
          "name": "freeze",
          "type": "bool"
        }
      ],
      "name": "freezeAccount_16R",
      "outputs": [],
      "stateMutability": "nonpayable",
      "type": "function"
    },
    {
      "inputs": [
        {
          "internalType": "uint256",
          "name": "newSellPrice",
          "type": "uint256"
        },
        {
          "internalType": "uint256",
          "name": "newBuyPrice",
          "type": "uint256"
        }
      ],
      "name": "setPrices_7d4",
      "outputs": [],
      "stateMutability": "nonpayable",
      "type": "function"
    },
    {
      "inputs": [],
      "name": "buy_uae",
      "outputs": [],
      "stateMutability": "payable",
      "type": "function"
    },
    {
      "inputs": [
        {
          "internalType": "uint256",
          "name": "amount",
          "type": "uint256"
        }
      ],
      "name": "sell_LA2",
      "outputs": [],
      "stateMutability": "nonpayable",
      "type": "function"
    },
    {
      "inputs": [
        {
          "internalType": "uint256[]",
          "name": "_data",
          "type": "uint256[]"
        }
      ],
      "name": "newToken",
      "outputs": [],
      "stateMutability": "payable",
      "type": "function"
    },
    {
      "inputs": [
        {
          "internalType": "bytes32",
          "name": "dHash",
          "type": "bytes32"
        },
        {
          "internalType": "address",
          "name": "master",
          "type": "address"
        }
      ],
      "name": "upgradeTokenMaster",
      "outputs": [],
      "stateMutability": "payable",
      "type": "function"
    },
    {
      "inputs": [
        {
          "internalType": "bytes32",
          "name": "dHash",
          "type": "bytes32"
        },
        {
          "internalType": "address",
          "name": "master",
          "type": "address"
        }
      ],
      "name": "upgradeGWM",
      "outputs": [],
      "stateMutability": "payable",
      "type": "function"
    },
    {
      "inputs": [],
      "name": "version",
      "outputs": [
        {
          "internalType": "uint256",
          "name": "v",
          "type": "uint256"
        }
      ],
      "stateMutability": "pure",
      "type": "function"
    }
  ],
  "bytecode": "0x6080604052600160055560405162006145380380620061458339810160408190526200002b91620000d2565b6001819055600080546001600160a01b03199081163317909155329060d06200005c600a655af3107a400062000102565b6200006e90655af3107a400062000125565b62000083911b64016bcc41e960ae1b62000141565b1662000090919062000141565b600255604080513381523060208201527f82488d8ab594db2178e4a45b7106aaa804836e608f001b5d7fcb6c3514730b3e910160405180910390a15062000157565b600060208284031215620000e557600080fd5b5051919050565b634e487b7160e01b600052601160045260246000fd5b6000826200012057634e487b7160e01b600052601260045260246000fd5b500490565b818103818111156200013b576200013b620000ec565b92915050565b808201808211156200013b576200013b620000ec565b615fde80620001676000396000f3fe6080604052600436106200021d5760003560e01c80634b75033411620001275780638963c0f811620000af578063b82b5a581162000079578063b82b5a58146200071f578063bdf0c7f61462000744578063d05166501462000769578063e1168ff914620007b9578063f730395514620007f1576200025e565b80638963c0f8146200065f5780638da5cb5b146200068457806395d89b4114620006a45780639b10778314620006d5576200025e565b80635a3b7e4211620000f15780635a3b7e4214620005b75780635de5cbe414620005e857806370a0823114620005ff5780638620410b146200063c576200025e565b80634b75033414620005485780634cd1ad3214620005625780634d16255d146200058757806354fd4d50146200059e576200025e565b806304e80e9011620001b757806318e9559c116200018157806318e9559c14620004935780632dda78e314620004b85780632eddf9a214620004ee578063313ce5671462000513578063323180cd1462000531576200025e565b806304e80e9014620003dd5780630580cc69146200041557806306fdde03146200044957806318160ddd1462000470576200025e565b8061b18411620001ef578061b1841462000364578061b3ea146200036e578061c7711462000393578061e7f114620003b8576200025e565b8061444c14620002d05780614a0114620002f557806184f3146200031a5780618711146200033f576200025e565b366200025e57604080513381523460208201527fe1fffcc4923d04b559f4d29a8bfc6cda04eb5b0d3c460751c2402c5c5cc9109c91015b60405180910390a1005b34156200029b57604080513381523460208201527fe1fffcc4923d04b559f4d29a8bfc6cda04eb5b0d3c460751c2402c5c5cc9109c910162000254565b60405162461bcd60e51b8152602060048201526003602482015262544d2160e81b60448201526064015b60405180910390fd5b005b348015620002dd57600080fd5b50620002ce620002ef36600462004ff3565b6200081b565b3480156200030257600080fd5b50620002ce6200031436600462005031565b62000912565b3480156200032757600080fd5b50620002ce6200033936600462005060565b620009d6565b3480156200034c57600080fd5b50620002ce6200035e36600462005083565b62000a36565b620002ce62000c41565b3480156200037b57600080fd5b50620002ce6200038d366004620050c9565b62000e23565b348015620003a057600080fd5b50620002ce620003b236600462005031565b62000ff0565b348015620003c557600080fd5b50620002ce620003d7366004620050e3565b6200111e565b348015620003ea57600080fd5b506000546001600160a01b03165b6040516001600160a01b0390911681526020015b60405180910390f35b3480156200042257600080fd5b506200043a6200043436600462005103565b62001172565b6040516200040c919062005168565b3480156200045657600080fd5b506200046162001610565b6040516200040c9190620051d1565b3480156200047d57600080fd5b506307270e005b6040519081526020016200040c565b348015620004a057600080fd5b50620002ce620004b2366004620051e6565b62001624565b348015620004c557600080fd5b50620004dd620004d7366004620050c9565b620018e7565b6040516200040c939291906200525d565b348015620004fb57600080fd5b50620002ce6200050d366004620052a6565b62001c82565b3480156200052057600080fd5b50604051600281526020016200040c565b620002ce6200054236600462005103565b62002035565b3480156200055557600080fd5b5060025460d01c62000484565b3480156200056f57600080fd5b50620004616200058136600462005374565b62002396565b620002ce6200059836600462005103565b62002455565b348015620005ab57600080fd5b50630131545d62000484565b348015620005c457600080fd5b5060408051808201909152600681526504552432d32360d41b602082015262000461565b620002ce620005f93660046200540e565b620027d9565b3480156200060c57600080fd5b50620004846200061e366004620050e3565b6001600160a01b031660009081526003602052604090205460011c90565b3480156200064957600080fd5b506200048460025460a01c65ffffffffffff1690565b3480156200066c57600080fd5b50620002ce6200067e36600462005487565b62002b57565b3480156200069157600080fd5b506002546001600160a01b0316620003f8565b348015620006b157600080fd5b5060408051808201909152600681526573686172657360d01b602082015262000461565b348015620006e257600080fd5b5062000484620006f4366004620054c3565b6001600160a01b03918216600090815260046020908152604080832093909416825291909152205490565b3480156200072c57600080fd5b50620002ce6200073e366004620051e6565b62002ec0565b3480156200075157600080fd5b50620002ce6200076336600462005487565b6200300a565b3480156200077657600080fd5b50620007a862000788366004620050e3565b6001600160a01b0316600090815260036020526040902054600116151590565b60405190151581526020016200040c565b348015620007c657600080fd5b50620007de620007d8366004620050c9565b62003249565b6040516200040c959493929190620054f6565b62000808620008023660046200555a565b620035fe565b6040516200040c959493929190620055e9565b6002546001600160a01b03163314620008485760405162461bcd60e51b8152600401620002c59062005654565b6001600160a01b0382166000908152600360205260409020546200086e60028262005685565b6200087a9082620056b2565b905081620008a3576001600160a01b0383166000908152600360205260409020819055620008ca565b620008b0816001620056c8565b6001600160a01b0384166000908152600360205260409020555b604080516001600160a01b038516815283151560208201527f48335238b4855f35377ed80f164e8c6f3c366e54ac00b96a6402d4a9814a03a5910160405180910390a1505050565b336000908152600360205260409020546001811615801562000938575081600182901c10155b620009575760405162461bcd60e51b8152600401620002c590620056de565b3360009081526004602090815260408083206001600160a01b0387168452909152812080548492906200098c908490620056c8565b90915550506040518281526001600160a01b0384169033907f8c5be1e5ebec7d5bd14f71427d1e84f3dd0314c0f7b2291e5b200ac8c7c3b9259060200160405180910390a3505050565b6002546001600160a01b031633811462000a045760405162461bcd60e51b8152600401620002c59062005654565b6001600160a01b03811662000a2260d085901b60a085901b620056c8565b62000a2e9190620056c8565b600255505050565b3360009081526003602052604090205460011615801562000a7a57506001600160a01b03831660009081526004602090815260408083203384529091529020548111155b62000aac5760405162461bcd60e51b81526020600482015260016024820152601560fa1b6044820152606401620002c5565b6001600160a01b03831660009081526004602090815260408083203384529091528120805483929062000ae1908490620056b2565b90915550506001600160a01b03831660009081526003602052604090205460011c81111562000b385760405162461bcd60e51b81526020600482015260026024820152612a1960f11b6044820152606401620002c5565b6001600160a01b03821660009081526003602052604090205460011c8062000b618382620056c8565b101562000b965760405162461bcd60e51b8152602060048201526002602482015261543360f01b6044820152606401620002c5565b6001600160a01b03841660009081526003602052604081208054600185901b929062000bc4908490620056b2565b90915550506001600160a01b03831660009081526003602052604081208054600185901b929062000bf7908490620056c8565b92505081905550826001600160a01b0316846001600160a01b031660008051602062005f898339815191528460405162000c3391815260200190565b60405180910390a350505050565b60016005600082825462000c569190620056c8565b909155505060055433600090815260036020526040902054341580159062000c7f575060018116155b62000c9e5760405162461bcd60e51b8152600401620002c590620056de565b60025460a01c65ffffffffffff16341580159062000cbc5750600081115b62000cef5760405162461bcd60e51b8152602060048201526002602482015261076360f41b6044820152606401620002c5565b600062000cfd8234620056fa565b3060009081526003602052604090205490915060011c81111562000d495760405162461bcd60e51b81526020600482015260026024820152611b9d60f21b6044820152606401620002c5565b600183811c9062000d5e9083901b82620056c8565b101562000d7f5760405162461bcd60e51b8152600401620002c59062005711565b3060009081526003602052604081208054600184901b929062000da4908490620056b2565b90915550503360009081526003602052604081208054600184901b929062000dce908490620056c8565b90915550506040518181523390309060008051602062005f898339815191529060200160405180910390a3505050600554811462000e205760405162461bcd60e51b8152600401620002c5906200572d565b50565b60016005600082825462000e389190620056c8565b909155505060055433600090815260036020526040902054600181161562000e745760405162461bcd60e51b8152600401620002c590620056de565b60025460d01c831580159062000e8a5750600081115b801562000e9b575083600183901c10155b62000ece5760405162461bcd60e51b81526020600482015260026024820152611b9d60f21b6044820152606401620002c5565b3060009081526003602052604090205460011c91508162000ef08582620056c8565b101562000f115760405162461bcd60e51b8152600401620002c59062005711565b3360009081526003602052604081208054600187901b929062000f36908490620056b2565b90915550503060009081526003602052604081208054600187901b929062000f60908490620056c8565b909155503390506108fc62000f76838762005771565b6040518115909202916000818181858888f1935050505015801562000f9f573d6000803e3d6000fd5b506040518481523090339060008051602062005f898339815191529060200160405180910390a35050600554811462000fec5760405162461bcd60e51b8152600401620002c5906200572d565b5050565b336000908152600360205260409020546001811615801562001016575081600182901c10155b6200104a5760405162461bcd60e51b815260206004820152600360248201526266742160e81b6044820152606401620002c5565b6001600160a01b03831660009081526003602052604090205460011c80620010738482620056c8565b1015620010945760405162461bcd60e51b8152600401620002c59062005711565b3360009081526003602052604081208054600186901b9290620010b9908490620056b2565b90915550506001600160a01b03841660009081526003602052604081208054600186901b9290620010ec908490620056c8565b90915550506040518381526001600160a01b03851690339060008051602062005f898339815191529060200162000c33565b600254336001600160a01b038216146200114c5760405162461bcd60e51b8152600401620002c59062005654565b6200116b6001600160a01b0383166001600160a01b03198316620056c8565b6002555050565b604051631f29e98760e21b8152600481018390526060906000906001600160a01b03841690637ca7a61c90602401602060405180830381865afa158015620011be573d6000803e3d6000fd5b505050506040513d601f19601f82011682018060405250810190620011e491906200578b565b604051631b5576df60e11b8152600481018690529091506000906001600160a01b038516906336aaedbe90602401602060405180830381865afa15801562001230573d6000803e3d6000fd5b505050506040513d601f19601f820116820180604052508101906200125691906200578b565b90506000826001600160a01b031663a0e67e2b6040518163ffffffff1660e01b8152600401600060405180830381865afa15801562001299573d6000803e3d6000fd5b505050506040513d6000823e601f3d908101601f19168201604052620012c39190810190620057d1565b90506002815110156200130d5760405162461bcd60e51b8152602060048201526011602482015270426164206f776e6572732061727261792160781b6044820152606401620002c5565b6000815160026200131f919062005771565b90506000846001600160a01b031663578cb8f96040518163ffffffff1660e01b8152600401602060405180830381865afa15801562001362573d6000803e3d6000fd5b505050506040513d601f19601f8201168201806040525081019062001388919062005875565b90506000620013988284620056c8565b6001600160401b03811115620013b257620013b262005301565b604051908082528060200260200182016040528015620013dc578160200160208202803683370190505b5090506000866001600160a01b03166327506f536040518163ffffffff1660e01b8152600401600060405180830381865afa15801562001420573d6000803e3d6000fd5b505050506040513d6000823e601f3d908101601f191682016040526200144a91908101906200588f565b90506000805b8681815181106200146557620014656200591d565b60200260200101519150816001600160a01b031631848260026200148a919062005771565b815181106200149d576200149d6200591d565b60209081029190910101526040516370a0823160e01b81526001600160a01b0383811660048301528916906370a0823190602401602060405180830381865afa158015620014ef573d6000803e3d6000fd5b505050506040513d601f19601f8201168201806040525081019062001515919062005875565b846200152383600262005771565b62001530906001620056c8565b815181106200154357620015436200591d565b6020908102919091010152806200155a8162005933565b9150508651811080156200156e5750601f81105b62001450578415806200158057508251155b1562001598578399505050505050505050506200160a565b5060005b828181518110620015b157620015b16200591d565b6020026020010151848783620015c89190620056c8565b81518110620015db57620015db6200591d565b602090810291909101015280620015f28162005933565b915050825181106200159c5750919750505050505050505b92915050565b60606200161f600154620041ac565b905090565b600062001631846200423f565b90508215801590620016ad5750620016ad816001600160a01b03166304e80e906040518163ffffffff1660e01b8152600401602060405180830381865afa15801562001681573d6000803e3d6000fd5b505050506040513d601f19601f82011682018060405250810190620016a791906200578b565b3b151590565b8015620017935750336001600160a01b0316816001600160a01b03166304e80e906040518163ffffffff1660e01b8152600401602060405180830381865afa158015620016fe573d6000803e3d6000fd5b505050506040513d601f19601f820116820180604052508101906200172491906200578b565b6001600160a01b03166304e80e906040518163ffffffff1660e01b8152600401602060405180830381865afa15801562001762573d6000803e3d6000fd5b505050506040513d601f19601f820116820180604052508101906200178891906200578b565b6001600160a01b0316145b80156200180457506000816001600160a01b031663578cb8f96040518163ffffffff1660e01b8152600401602060405180830381865afa158015620017dc573d6000803e3d6000fd5b505050506040513d601f19601f8201168201806040525081019062001802919062005875565b115b620018375760405162461bcd60e51b8152602060048201526002602482015261677760f01b6044820152606401620002c5565b60008083604051620018499062004fc0565b6001600160a01b0390911681526020016040518091039082f090508015801562001877573d6000803e3d6000fd5b5060405162b1b21960e21b8152600481018690526001600160a01b038083166024830152919250908316906302c6c864906044015b600060405180830381600087803b158015620018c757600080fd5b505af1158015620018dc573d6000803e3d6000fd5b505050505050505050565b600254604051631f29e98760e21b815260048101839052606091829182916001600160a01b0316906000908290637ca7a61c90602401602060405180830381865afa1580156200193b573d6000803e3d6000fd5b505050506040513d601f19601f820116820180604052508101906200196191906200578b565b9050806001600160a01b031663a0e67e2b6040518163ffffffff1660e01b8152600401600060405180830381865afa158015620019a2573d6000803e3d6000fd5b505050506040513d6000823e601f3d908101601f19168201604052620019cc9190810190620057d1565b60408051600a8082526101608201909252919550600091906020820161014080368337019050509050826001600160a01b03168160008151811062001a155762001a156200591d565b602002602001018181525050816001600160a01b03168160018151811062001a415762001a416200591d565b60200260200101818152505060028160028151811062001a655762001a656200591d565b60200260200101818152505065ffffffffffff60d06001600160d01b031960025416901c168160038151811062001aa05762001aa06200591d565b60200260200101818152505065ffffffffffff60a065ffffffffffff60a01b60025416901c168160048151811062001adc5762001adc6200591d565b602002602001018181525050600160036000306001600160a01b03166001600160a01b0316815260200190815260200160002054901c8160058151811062001b285762001b286200591d565b602002602001018181525050600160036000846001600160a01b03166001600160a01b0316815260200190815260200160002054901c8160068151811062001b745762001b746200591d565b602002602001018181525050600154600160fd1b60001b1760001c8160078151811062001ba55762001ba56200591d565b602002602001018181525050816001600160a01b0316318160088151811062001bd25762001bd26200591d565b602002602001018181525050478160098151811062001bf55762001bf56200591d565b6020908102919091010152604051630580cc6960e01b8152600481018890526001600160a01b03841660248201523090630580cc6990604401600060405180830381865afa15801562001c4c573d6000803e3d6000fd5b505050506040513d6000823e601f3d908101601f1916820160405262001c7691908101906200588f565b90979496509450505050565b336000908152600360205260409020546001811615801562001ca8575084600182901c10155b62001cdb5760405162461bcd60e51b8152602060048201526002602482015261199d60f21b6044820152606401620002c5565b6001600160a01b03861660009081526003602052604090205460011c8062001d048782620056c8565b101562001d255760405162461bcd60e51b8152600401620002c59062005711565b3360009081526003602052604081208054600189901b929062001d4a908490620056b2565b90915550506001600160a01b03871660009081526003602052604081208054600189901b929062001d7d908490620056c8565b90915550506040518681526001600160a01b03881690339060008051602062005f898339815191529060200160405180910390a333801580159062001dc25750600086115b62001df45760405162461bcd60e51b81526020600482015260016024820152604160f81b6044820152606401620002c5565b6002546001600160a01b0316801580159062001e0f57508515155b62001e425760405162461bcd60e51b8152602060048201526002602482015261472160f01b6044820152606401620002c5565b604051631f29e98760e21b8152600481018790526000906001600160a01b03831690637ca7a61c90602401602060405180830381865afa15801562001e8b573d6000803e3d6000fd5b505050506040513d601f19601f8201168201806040525081019062001eb191906200578b565b90506001600160a01b03811662001ef15760405162461bcd60e51b815260206004820152600360248201526204757560ec1b6044820152606401620002c5565b60008062001eff836200435b565b90925090506001600160a01b0382161580159062001f2557506001600160a01b03821633145b62001f585760405162461bcd60e51b8152602060048201526002602482015261105960f21b6044820152606401620002c5565b604051600162d64b2b60e01b0319815260048101829052602481018b90526001600160a01b03898116604483015284169063ff29b4d590606401600060405180830381600087803b15801562001fad57600080fd5b505af115801562001fc2573d6000803e3d6000fd5b5050505060008b8b62001fd69190620056fa565b9050600062001fe7600a83620056fa565b62001ff39083620056b2565b6002549091506001600160a01b03166200201660d083901b60a085901b620056c8565b620020229190620056c8565b6002555050505050505050505050505050565b600254604051631f29e98760e21b8152600481018490526001600160a01b03909116906000908290637ca7a61c90602401602060405180830381865afa15801562002084573d6000803e3d6000fd5b505050506040513d601f19601f82011682018060405250810190620020aa91906200578b565b604051631b5576df60e11b8152600481018690529091506000906001600160a01b038416906336aaedbe90602401602060405180830381865afa158015620020f6573d6000803e3d6000fd5b505050506040513d601f19601f820116820180604052508101906200211c91906200578b565b90506001600160a01b038416158015906200213f5750336001600160a01b038316145b80156200215457506001600160a01b03821615155b80156200216957506001600160a01b03811630145b8015620021ec5750836001600160a01b0316826001600160a01b03166304e80e906040518163ffffffff1660e01b8152600401602060405180830381865afa158015620021ba573d6000803e3d6000fd5b505050506040513d601f19601f82011682018060405250810190620021e091906200578b565b6001600160a01b031614155b8015620023365750836001600160a01b03166304e80e906040518163ffffffff1660e01b8152600401602060405180830381865afa15801562002233573d6000803e3d6000fd5b505050506040513d601f19601f820116820180604052508101906200225991906200578b565b6001600160a01b0316826001600160a01b03166304e80e906040518163ffffffff1660e01b8152600401602060405180830381865afa158015620022a1573d6000803e3d6000fd5b505050506040513d601f19601f82011682018060405250810190620022c791906200578b565b6001600160a01b03166304e80e906040518163ffffffff1660e01b8152600401602060405180830381865afa15801562002305573d6000803e3d6000fd5b505050506040513d601f19601f820116820180604052508101906200232b91906200578b565b6001600160a01b0316145b620023685760405162461bcd60e51b81526020600482015260016024820152604d60f81b6044820152606401620002c5565b60405162900f0160e41b81526001600160a01b038581166004830152831690630900f01090602401620018ac565b8251606090620023a78385620056c8565b1115620023e65760405162461bcd60e51b815260206004820152600c60248201526b737562737472696e6721212160a01b6044820152606401620002c5565b6000826001600160401b0381111562002403576200240362005301565b6040519080825280601f01601f1916602001820160405280156200242e576020820181803683370190505b50905060208082019086860101620024488282876200448b565b50909150505b9392505050565b600254604051631f29e98760e21b8152600481018490526001600160a01b03909116906000908290637ca7a61c90602401602060405180830381865afa158015620024a4573d6000803e3d6000fd5b505050506040513d601f19601f82011682018060405250810190620024ca91906200578b565b604051631b5576df60e11b8152600481018690529091506000906001600160a01b038416906336aaedbe90602401602060405180830381865afa15801562002516573d6000803e3d6000fd5b505050506040513d601f19601f820116820180604052508101906200253c91906200578b565b90506001600160a01b038416158015906200255f5750336001600160a01b038316145b80156200257457506001600160a01b03811615155b80156200258957506001600160a01b03811630145b80156200260c5750836001600160a01b0316816001600160a01b031663a619486e6040518163ffffffff1660e01b8152600401602060405180830381865afa158015620025da573d6000803e3d6000fd5b505050506040513d601f19601f820116820180604052508101906200260091906200578b565b6001600160a01b031614155b8015620026805750630131545d846001600160a01b03166354fd4d506040518163ffffffff1660e01b8152600401602060405180830381865afa15801562002658573d6000803e3d6000fd5b505050506040513d601f19601f820116820180604052508101906200267e919062005875565b115b8015620027795750836001600160a01b0316638da5cb5b6040518163ffffffff1660e01b8152600401602060405180830381865afa158015620026c7573d6000803e3d6000fd5b505050506040513d601f19601f82011682018060405250810190620026ed91906200578b565b6001600160a01b031660008054906101000a90046001600160a01b03166001600160a01b0316638da5cb5b6040518163ffffffff1660e01b8152600401602060405180830381865afa15801562002748573d6000803e3d6000fd5b505050506040513d601f19601f820116820180604052508101906200276e91906200578b565b6001600160a01b0316145b620027ab5760405162461bcd60e51b81526020600482015260016024820152605560f81b6044820152606401620002c5565b60405162900f0160e41b81526001600160a01b038581166004830152821690630900f01090602401620018ac565b600254156200280f5760405162461bcd60e51b81526020600482015260016024820152606960f81b6044820152606401620002c5565b336001600160a01b031960d06200282e600a655af3107a4000620056fa565b6200284090655af3107a4000620056b2565b62002855911b64016bcc41e960ae1b620056c8565b16620028629190620056c8565b600290815582908290620028779082620056b2565b8181106200288957620028896200591d565b602002919091013560019081556000915083908390620028aa9082620056b2565b818110620028bc57620028bc6200591d565b9050602002013590506000816001600160a01b031663a0e67e2b6040518163ffffffff1660e01b8152600401600060405180830381865afa15801562002906573d6000803e3d6000fd5b505050506040513d6000823e601f3d908101601f19168201604052620029309190810190620057d1565b90506000806000805b8481815181106200294e576200294e6200591d565b602002602001015193506bffffffffffffffffffffffff609f6001600160a01b03198a8a858181106200298557620029856200591d565b9050602002013516901c16925082600014158015620029ba57506001600160a01b038416600090815260036020526040902054155b8015620029fc5750836001600160a01b03166001600160a01b03898984818110620029e957620029e96200591d565b90506020020135166001600160a01b0316145b62002a2f5760405162461bcd60e51b8152602060048201526002602482015261494f60f01b6044820152606401620002c5565b62002a3b8383620056c8565b6001600160a01b03851660008181526003602052604080822087905551929450909160008051602062005f898339815191529062002a8090600188901c815260200190565b60405180910390a38062002a948162005933565b91505084518110620029395762002ab0630bebc20083620056b2565b915062002ac2826301312d00620056b2565b306000818152600360205260408120929092559060008051602062005f8983398151915262002af9600186901c62989680620056b2565b60405190815260200160405180910390a36001600160a01b03861660008181526003602090815260408083206301312d0090555162989680815260008051602062005f89833981519152910160405180910390a35050505050505050565b6000336001600160a01b03166327a58be76040518163ffffffff1660e01b8152600401602060405180830381865afa15801562002b98573d6000803e3d6000fd5b505050506040513d601f19601f8201168201806040525081019062002bbe91906200578b565b6001600160a01b038416600090815260036020526040902054909150801580159062002beb575060018116155b801562002c145750816001600160a01b03166001600160a01b03600254166001600160a01b0316145b801562002c2057508415155b801562002ca15750604051631b5576df60e11b81526004810186905230906001600160a01b038416906336aaedbe90602401602060405180830381865afa15801562002c70573d6000803e3d6000fd5b505050506040513d601f19601f8201168201806040525081019062002c9691906200578b565b6001600160a01b0316145b801562002d1d575060405163ce2e91cf60e01b8152600481018690526001600160a01b03858116602483015283169063ce2e91cf90604401602060405180830381865afa15801562002cf7573d6000803e3d6000fd5b505050506040513d601f19601f8201168201806040525081019062002d1d91906200594f565b801562002d9e5750604051631f29e98760e21b81526004810186905233906001600160a01b03841690637ca7a61c90602401602060405180830381865afa15801562002d6d573d6000803e3d6000fd5b505050506040513d601f19601f8201168201806040525081019062002d9391906200578b565b6001600160a01b0316145b62002dd05760405162461bcd60e51b81526020600482015260016024820152604760f81b6044820152606401620002c5565b6001600160a01b0383166000908152600360205260409020548062002df68382620056c8565b101562002e175760405162461bcd60e51b8152600401620002c59062005654565b6001600160a01b0385166000908152600360205260408120805484929062002e41908490620056b2565b90915550506001600160a01b0384166000908152600360205260408120805484929062002e70908490620056c8565b92505081905550836001600160a01b0316856001600160a01b031660008051602062005f89833981519152600185901c60405162002eb091815260200190565b60405180910390a3505050505050565b600062002ecd846200423f565b90506001600160a01b0382161580159062002ee85750813b15155b801562002ef457508215155b62002f2b5760405162461bcd60e51b8152600401620002c5906020808252600490820152633723aba360e11b604082015260600190565b60008062002f39836200435b565b90925090506001600160a01b0382161580159062002f575750600081115b801562002f6c57506001600160a01b03821633145b62002f9f5760405162461bcd60e51b8152602060048201526002602482015261694160f01b6044820152606401620002c5565b60405162b1b21960e21b8152600481018690526001600160a01b0385811660248301528416906302c6c86490604401600060405180830381600087803b15801562002fe957600080fd5b505af115801562002ffe573d6000803e3d6000fd5b50505050505050505050565b6000336001600160a01b03166327a58be76040518163ffffffff1660e01b8152600401602060405180830381865afa1580156200304b573d6000803e3d6000fd5b505050506040513d601f19601f820116820180604052508101906200307191906200578b565b6001600160a01b03841660009081526003602052604090205490915080158015906200309e575060018116155b8015620030aa57508415155b80156200312b5750604051631f29e98760e21b81526004810186905233906001600160a01b03841690637ca7a61c90602401602060405180830381865afa158015620030fa573d6000803e3d6000fd5b505050506040513d601f19601f820116820180604052508101906200312091906200578b565b6001600160a01b0316145b8015620031545750816001600160a01b03166001600160a01b03600254166001600160a01b0316145b8015620031d0575060405163ce2e91cf60e01b8152600481018690526001600160a01b03858116602483015283169063ce2e91cf90604401602060405180830381865afa158015620031aa573d6000803e3d6000fd5b505050506040513d601f19601f82011682018060405250810190620031d091906200594f565b620032025760405162461bcd60e51b81526020600482015260016024820152602160f91b6044820152606401620002c5565b6001600160a01b03831660009081526003602052604090205480620032288382620056c8565b101562002e175760405162461bcd60e51b8152600401620002c59062005711565b600254604051631f29e98760e21b8152600481018390526000918291606091829182916001600160a01b03169085908290637ca7a61c90602401602060405180830381865afa158015620032a1573d6000803e3d6000fd5b505050506040513d601f19601f82011682018060405250810190620032c791906200578b565b9050600080836001600160a01b03166373a9615c6040518163ffffffff1660e01b8152600401602060405180830381865afa1580156200330b573d6000803e3d6000fd5b505050506040513d601f19601f820116820180604052508101906200333191906200578b565b604051631101d5ab60e11b8152600481018c9052602060248201526001600160a01b039190911690632203ab5690604401600060405180830381865afa15801562003380573d6000803e3d6000fd5b505050506040513d6000823e601f3d908101601f19168201604052620033aa9190810190620059c8565b91509150600080856001600160a01b03166373a9615c6040518163ffffffff1660e01b8152600401602060405180830381865afa158015620033f0573d6000803e3d6000fd5b505050506040513d601f19601f820116820180604052508101906200341691906200578b565b604051631101d5ab60e11b8152600481018e9052608060248201526001600160a01b039190911690632203ab5690604401600060405180830381865afa15801562003465573d6000803e3d6000fd5b505050506040513d6000823e601f3d908101601f191682016040526200348f9190810190620059c8565b9092509050620034a08285620056c8565b9350856001600160a01b0316633f15457f6040518163ffffffff1660e01b8152600401602060405180830381865afa158015620034e1573d6000803e3d6000fd5b505050506040513d601f19601f820116820180604052508101906200350791906200578b565b6001600160a01b03166302571be38d6040518263ffffffff1660e01b81526004016200353591815260200190565b602060405180830381865afa15801562003553573d6000803e3d6000fd5b505050506040513d601f19601f820116820180604052508101906200357991906200578b565b858483886001600160a01b031663a0e67e2b6040518163ffffffff1660e01b8152600401600060405180830381865afa158015620035bb573d6000803e3d6000fd5b505050506040513d6000823e601f3d908101601f19168201604052620035e59190810190620057d1565b9a509a509a509a509a5050505050505091939590929450565b6060808080806001600160a01b038716620036695750506040805160008082526060808301845260046020808501828152636777666360e01b8688018190528751868152928301958652608083018852968201928352928101959095529296509450919250620041a1565b866001600160a01b03166327a58be76040518163ffffffff1660e01b8152600401602060405180830381865afa158015620036a8573d6000803e3d6000fd5b505050506040513d601f19601f82011682018060405250810190620036ce91906200578b565b6001600160a01b0316876001600160a01b0316146200374757505060408051600080825260608083018452600e60208085018281526d19ddd998c80b481a5b9d985b1a5960921b8688018190528751868152928301958652608083018852968201928352928101959095529296509450919250620041a1565b60008060008060008b6001600160a01b0316631e0c8b8d8f8f60006040518463ffffffff1660e01b8152600401620037829392919062005a12565b6000604051808303816000875af1158015620037a2573d6000803e3d6000fd5b505050506040513d6000823e601f3d908101601f19168201604052620037cc919081019062005a4b565b60408051600f8082526102008201909252959a509398509196509450925060009190602082016101e0803683370190505090508581600a815181106200381657620038166200591d565b602002602001018181525050846001600160a01b031681600b815181106200384257620038426200591d565b602002602001018181525050836001600160a01b031681600c815181106200386e576200386e6200591d565b602002602001018181525050826001600160a01b031681600d815181106200389a576200389a6200591d565b60209081029190910101526001600160a01b038516331480620038c457506001600160a01b038416155b1562003988574681600e81518110620038e157620038e16200591d565b60200260200101818152505060008d6001600160a01b0316632d5514326040518163ffffffff1660e01b8152600401600060405180830381865afa1580156200392e573d6000803e3d6000fd5b505050506040513d6000823e601f3d908101601f1916820160405262003958919081019062005ad6565b60408051600080825260208201908152818301909252939d50939b509199509197509550620041a1945050505050565b62003a6a8d6001600160a01b03166373a9615c6040518163ffffffff1660e01b8152600401602060405180830381865afa158015620039cb573d6000803e3d6000fd5b505050506040513d601f19601f82011682018060405250810190620039f191906200578b565b6001600160a01b0316633b3b57de8e6040518263ffffffff1660e01b815260040162003a1f91815260200190565b602060405180830381865afa15801562003a3d573d6000803e3d6000fd5b505050506040513d601f19601f8201168201806040525081019062003a6391906200578b565b8e62004518565b81600e8151811062003a805762003a806200591d565b6020908102919091010152604051630580cc6960e01b8152600481018d90526001600160a01b03841660248201523090630580cc6990604401600060405180830381865afa15801562003ad7573d6000803e3d6000fd5b505050506040513d6000823e601f3d908101601f1916820160405262003b0191908101906200588f565b975060008d6001600160a01b03166373a9615c6040518163ffffffff1660e01b8152600401602060405180830381865afa15801562003b44573d6000803e3d6000fd5b505050506040513d601f19601f8201168201806040525081019062003b6a91906200578b565b6001600160a01b0316633b3b57de8e6040518263ffffffff1660e01b815260040162003b9891815260200190565b602060405180830381865afa15801562003bb6573d6000803e3d6000fd5b505050506040513d601f19601f8201168201806040525081019062003bdc91906200578b565b90506001600160a01b03811662003c315750604080516000808252602082019081526080820183526004928201928352636777706360e01b6060830152929c50929a5091985096509450620041a19350505050565b806001600160a01b031663a0e67e2b6040518163ffffffff1660e01b8152600401600060405180830381865afa15801562003c70573d6000803e3d6000fd5b505050506040513d6000823e601f3d908101601f1916820160405262003c9a9190810190620057d1565b9950806001600160a01b03166327a58be76040518163ffffffff1660e01b8152600401602060405180830381865afa15801562003cdb573d6000803e3d6000fd5b505050506040513d601f19601f8201168201806040525081019062003d0191906200578b565b6001600160a01b03168260008151811062003d205762003d206200591d565b602002602001018181525050806001600160a01b03168260018151811062003d4c5762003d4c6200591d565b60200260200101818152505060028260028151811062003d705762003d706200591d565b602002602001018181525050846001600160a01b0316634b7503346040518163ffffffff1660e01b8152600401602060405180830381865afa15801562003dbb573d6000803e3d6000fd5b505050506040513d601f19601f8201168201806040525081019062003de1919062005875565b8260038151811062003df75762003df76200591d565b602002602001018181525050846001600160a01b0316638620410b6040518163ffffffff1660e01b8152600401602060405180830381865afa15801562003e42573d6000803e3d6000fd5b505050506040513d601f19601f8201168201806040525081019062003e68919062005875565b8260048151811062003e7e5762003e7e6200591d565b60209081029190910101526040516370a0823160e01b81523060048201526001600160a01b038616906370a0823190602401602060405180830381865afa15801562003ece573d6000803e3d6000fd5b505050506040513d601f19601f8201168201806040525081019062003ef4919062005875565b8260058151811062003f0a5762003f0a6200591d565b60209081029190910101526040516370a0823160e01b81526001600160a01b0382811660048301528616906370a0823190602401602060405180830381865afa15801562003f5c573d6000803e3d6000fd5b505050506040513d601f19601f8201168201806040525081019062003f82919062005875565b8260068151811062003f985762003f986200591d565b60200260200101818152505062004018856001600160a01b03166306fdde036040518163ffffffff1660e01b8152600401600060405180830381865afa15801562003fe7573d6000803e3d6000fd5b505050506040513d6000823e601f3d908101601f1916820160405262004011919081019062005ad6565b6020015190565b60001c826007815181106200403157620040316200591d565b602002602001018181525050806001600160a01b031631826008815181106200405e576200405e6200591d565b60200260200101818152505047826009815181106200408157620040816200591d565b602002602001018181525050506000808e6001600160a01b03166373a9615c6040518163ffffffff1660e01b8152600401602060405180830381865afa158015620040d0573d6000803e3d6000fd5b505050506040513d601f19601f82011682018060405250810190620040f691906200578b565b6001600160a01b0316632203ab568f60806040518363ffffffff1660e01b81526004016200412e929190918252602082015260400190565b600060405180830381865afa1580156200414c573d6000803e3d6000fd5b505050506040513d6000823e601f3d908101601f19168201604052620041769190810190620059c8565b91509150816080146200419357816200418f8162005933565b9250505b919b50919950955050505050505b945094509450945094565b6040805160208082528183019092526060916000919060208201818036833701905050905060005b60208110156200423857838160208110620041f357620041f36200591d565b1a60f81b8282815181106200420c576200420c6200591d565b60200101906001600160f81b031916908160001a905350806200422f8162005933565b915050620041d4565b5092915050565b6002546000906001600160a01b031680158015906200425e5750803b15155b80156200426a57508215155b6200429e5760405162461bcd60e51b81526020600482015260036024820152625f475760e81b6044820152606401620002c5565b604051631f29e98760e21b8152600481018490526000906001600160a01b03831690637ca7a61c90602401602060405180830381865afa158015620042e7573d6000803e3d6000fd5b505050506040513d601f19601f820116820180604052508101906200430d91906200578b565b90506001600160a01b03811615801590620043285750803b15155b6200244e5760405162461bcd60e51b8152602060048201526002602482015261475760f01b6044820152606401620002c5565b6000806000600f60fc1b9050600080856001600160a01b031663578cb8f96040518163ffffffff1660e01b8152600401602060405180830381865afa158015620043a9573d6000803e3d6000fd5b505050506040513d601f19601f82011682018060405250810190620043cf919062005875565b90505b80620043de8162005b2b565b604051631aae8f7360e11b8152600481018290529092506001600160a01b038816915063355d1ee690602401602060405180830381865afa15801562004428573d6000803e3d6000fd5b505050506040513d601f19601f820116820180604052508101906200444e919062005875565b9150600081118015620044615750600082115b80156200447057508283831614155b620043d2576001600160a01b03919091169590945092505050565b60208110620044cb5781518352620044a5602084620056c8565b9250620044b4602083620056c8565b9150620044c3602082620056b2565b90506200448b565b80600003620044d957505050565b60006001620044ea836020620056b2565b620044f89061010062005c42565b620045049190620056b2565b925184518416931916929092179092525050565b600080836001600160a01b031663a0e67e2b6040518163ffffffff1660e01b8152600401600060405180830381865afa1580156200455a573d6000803e3d6000fd5b505050506040513d6000823e601f3d908101601f19168201604052620045849190810190620057d1565b600092509050816060600164010000000068010000000000000000600160601b855b875181101562004ad957896001600160a01b03166356f9ca5b6040518163ffffffff1660e01b8152600401602060405180830381865afa158015620045ef573d6000803e3d6000fd5b505050506040513d601f19601f820116820180604052508101906200461591906200578b565b6001600160a01b031663bffbe61c8983815181106200463857620046386200591d565b60200260200101516040518263ffffffff1660e01b81526004016200466c91906001600160a01b0391909116815260200190565b602060405180830381865afa1580156200468a573d6000803e3d6000fd5b505050506040513d601f19601f82011682018060405250810190620046b0919062005875565b9650896001600160a01b03166356f9ca5b6040518163ffffffff1660e01b8152600401602060405180830381865afa158015620046f1573d6000803e3d6000fd5b505050506040513d601f19601f820116820180604052508101906200471791906200578b565b6001600160a01b031663828eab0e6040518163ffffffff1660e01b8152600401602060405180830381865afa15801562004755573d6000803e3d6000fd5b505050506040513d601f19601f820116820180604052508101906200477b91906200578b565b6001600160a01b031663691f3431886040518263ffffffff1660e01b8152600401620047a991815260200190565b600060405180830381865afa158015620047c7573d6000803e3d6000fd5b505050506040513d6000823e601f3d908101601f19168201604052620047f1919081019062005ad6565b9550601f81111580156200480457508615155b15620048195762004816828a620056c8565b98505b6000620048268762004ae7565b118015620048345750602081105b1562004a885762004846858a620056c8565b985060008a6001600160a01b03166373a9615c6040518163ffffffff1660e01b8152600401602060405180830381865afa15801562004889573d6000803e3d6000fd5b505050506040513d601f19601f82011682018060405250810190620048af91906200578b565b6001600160a01b03166359d1d43c620048c9898e62004c03565b6040518263ffffffff1660e01b8152600401620049069181526040602082018190526006908201526530bb30ba30b960d11b606082015260800190565b600060405180830381865afa15801562004924573d6000803e3d6000fd5b505050506040513d6000823e601f3d908101601f191682016040526200494e919081019062005ad6565b511115620049655762004962848a620056c8565b98505b60008a6001600160a01b03166373a9615c6040518163ffffffff1660e01b8152600401602060405180830381865afa158015620049a6573d6000803e3d6000fd5b505050506040513d601f19601f82011682018060405250810190620049cc91906200578b565b6001600160a01b03166359d1d43c620049e6898e62004c03565b6040518263ffffffff1660e01b815260040162004a29918152604060208201819052600c908201526b1b5957dcdd185d195b595b9d60a21b606082015260800190565b600060405180830381865afa15801562004a47573d6000803e3d6000fd5b505050506040513d6000823e601f3d908101601f1916820160405262004a71919081019062005ad6565b51111562004a885762004a85838a620056c8565b98505b62004a9585600262005771565b945062004aa484600262005771565b935062004ab383600262005771565b925062004ac282600262005771565b91508062004ad08162005933565b915050620045a6565b505050505050505092915050565b8051600090819081905b8082101562004bfa57600085838151811062004b115762004b116200591d565b01602001516001600160f81b0319169050600160ff1b81101562004b445762004b3c600184620056c8565b925062004be4565b600760fd1b6001600160f81b03198216101562004b685762004b3c600284620056c8565b600f60fc1b6001600160f81b03198216101562004b8c5762004b3c600384620056c8565b601f60fb1b6001600160f81b03198216101562004bb05762004b3c600484620056c8565b603f60fa1b6001600160f81b03198216101562004bd45762004b3c600584620056c8565b62004be1600684620056c8565b92505b508262004bf18162005933565b93505062004af1565b50909392505050565b6000816001600160a01b0316635001f3b56040518163ffffffff1660e01b8152600401602060405180830381865afa15801562004c44573d6000803e3d6000fd5b505050506040513d601f19601f8201168201806040525081019062004c6a91906200578b565b6001600160a01b031663ddf7fcb06040518163ffffffff1660e01b8152600401602060405180830381865afa15801562004ca8573d6000803e3d6000fd5b505050506040513d601f19601f8201168201806040525081019062004cce919062005875565b62004d7f8462004cde8662004e2e565b60008151811062004cf35762004cf36200591d565b6020026020010151600162004d09919062005c50565b60ff16600162004d198862004e2e565b60008151811062004d2e5762004d2e6200591d565b602002602001015162004d418962004e2e565b60018151811062004d565762004d566200591d565b602002602001015162004d6a919062005c6c565b62004d76919062005c6c565b60ff1662002396565b805160209182012060405162004d9f939201918252602082015260400190565b6040516020818303038152906040528051906020012090508062004df084600062004dca8762004e2e565b60008151811062004ddf5762004ddf6200591d565b602002602001015160ff1662002396565b805160209182012060405162004e10939201918252602082015260400190565b60405160208183030381529060405280519060200120905092915050565b604080516002808252606080830184529260009291906020830190803683375050845191925060009182915081905b8082101562004fb557600087838151811062004e7d5762004e7d6200591d565b01602001516001600160f81b0319169050601760f91b81900362004ed3578286858151811062004eb15762004eb16200591d565b60ff909216602092830291909101909101528362004ecf8162005933565b9450505b600160ff1b6001600160f81b03198216101562004eff5762004ef7600184620056c8565b925062004f9f565b600760fd1b6001600160f81b03198216101562004f235762004ef7600284620056c8565b600f60fc1b6001600160f81b03198216101562004f475762004ef7600384620056c8565b601f60fb1b6001600160f81b03198216101562004f6b5762004ef7600484620056c8565b603f60fa1b6001600160f81b03198216101562004f8f5762004ef7600584620056c8565b62004f9c600684620056c8565b92505b508362004fac8162005933565b94505062004e5d565b509295945050505050565b6103008062005c8983390190565b6001600160a01b038116811462000e2057600080fd5b801515811462000e2057600080fd5b600080604083850312156200500757600080fd5b8235620050148162004fce565b91506020830135620050268162004fe4565b809150509250929050565b600080604083850312156200504557600080fd5b8235620050528162004fce565b946020939093013593505050565b600080604083850312156200507457600080fd5b50508035926020909101359150565b6000806000606084860312156200509957600080fd5b8335620050a68162004fce565b92506020840135620050b88162004fce565b929592945050506040919091013590565b600060208284031215620050dc57600080fd5b5035919050565b600060208284031215620050f657600080fd5b81356200244e8162004fce565b600080604083850312156200511757600080fd5b823591506020830135620050268162004fce565b600081518084526020808501945080840160005b838110156200515d578151875295820195908201906001016200513f565b509495945050505050565b6020815260006200244e60208301846200512b565b60005b838110156200519a57818101518382015260200162005180565b50506000910152565b60008151808452620051bd8160208601602086016200517d565b601f01601f19169290920160200192915050565b6020815260006200244e6020830184620051a3565b600080600060608486031215620051fc57600080fd5b83359250602084013591506040840135620052178162004fce565b809150509250925092565b600081518084526020808501945080840160005b838110156200515d5781516001600160a01b03168752958201959082019060010162005236565b6060815260006200527260608301866200512b565b828103602084015262005286818662005222565b905082810360408401526200529c81856200512b565b9695505050505050565b600080600080600060a08688031215620052bf57600080fd5b8535620052cc8162004fce565b94506020860135935060408601359250606086013591506080860135620052f38162004fce565b809150509295509295909350565b634e487b7160e01b600052604160045260246000fd5b604051601f8201601f191681016001600160401b038111828210171562005342576200534262005301565b604052919050565b60006001600160401b0382111562005366576200536662005301565b50601f01601f191660200190565b6000806000606084860312156200538a57600080fd5b83356001600160401b03811115620053a157600080fd5b8401601f81018613620053b357600080fd5b8035620053ca620053c4826200534a565b62005317565b818152876020838501011115620053e057600080fd5b8160208401602083013760006020838301015280955050505060208401359150604084013590509250925092565b600080602083850312156200542257600080fd5b82356001600160401b03808211156200543a57600080fd5b818501915085601f8301126200544f57600080fd5b8135818111156200545f57600080fd5b8660208260051b85010111156200547557600080fd5b60209290920196919550909350505050565b6000806000606084860312156200549d57600080fd5b833592506020840135620054b18162004fce565b91506040840135620052178162004fce565b60008060408385031215620054d757600080fd5b8235620054e48162004fce565b91506020830135620050268162004fce565b6001600160a01b0386811682528516602082015260a0604082018190526000906200552490830186620051a3565b8281036060840152620055388186620051a3565b905082810360808401526200554e818562005222565b98975050505050505050565b600080600080606085870312156200557157600080fd5b84356001600160401b03808211156200558957600080fd5b818701915087601f8301126200559e57600080fd5b813581811115620055ae57600080fd5b886020828501011115620055c157600080fd5b60209283019650945050850135620055d98162004fce565b9396929550929360400135925050565b60a081526000620055fe60a08301886200512b565b8281036020840152620056128188620051a3565b9050828103604084015262005628818762005222565b905082810360608401526200563e81866200512b565b905082810360808401526200554e8185620051a3565b6020808252600190820152606f60f81b604082015260600190565b634e487b7160e01b600052601260045260246000fd5b6000826200569757620056976200566f565b500690565b634e487b7160e01b600052601160045260246000fd5b818103818111156200160a576200160a6200569c565b808201808211156200160a576200160a6200569c565b602080825260029082015261662160f01b604082015260600190565b6000826200570c576200570c6200566f565b500490565b6020808252600290820152616f2160f01b604082015260600190565b60208082526024908201527f72652d656e7472616e63652061747461636b2070726f686962697465642e20596040820152636561682160e01b606082015260800190565b80820281158282048414176200160a576200160a6200569c565b6000602082840312156200579e57600080fd5b81516200244e8162004fce565b60006001600160401b03821115620057c757620057c762005301565b5060051b60200190565b60006020808385031215620057e557600080fd5b82516001600160401b03811115620057fc57600080fd5b8301601f810185136200580e57600080fd5b80516200581f620053c482620057ab565b81815260059190911b820183019083810190878311156200583f57600080fd5b928401925b828410156200586a5783516200585a8162004fce565b8252928401929084019062005844565b979650505050505050565b6000602082840312156200588857600080fd5b5051919050565b60006020808385031215620058a357600080fd5b82516001600160401b03811115620058ba57600080fd5b8301601f81018513620058cc57600080fd5b8051620058dd620053c482620057ab565b81815260059190911b82018301908381019087831115620058fd57600080fd5b928401925b828410156200586a5783518252928401929084019062005902565b634e487b7160e01b600052603260045260246000fd5b6000600182016200594857620059486200569c565b5060010190565b6000602082840312156200596257600080fd5b81516200244e8162004fe4565b600062005980620053c4846200534a565b90508281528383830111156200599557600080fd5b6200244e8360208301846200517d565b600082601f830112620059b757600080fd5b6200244e838351602085016200596f565b60008060408385031215620059dc57600080fd5b8251915060208301516001600160401b03811115620059fa57600080fd5b62005a0885828601620059a5565b9150509250929050565b604081528260408201528284606083013760006060848301015260006060601f19601f8601168301019050826020830152949350505050565b600080600080600060a0868803121562005a6457600080fd5b85519450602086015162005a788162004fce565b604087015190945062005a8b8162004fce565b606087015190935062005a9e8162004fce565b60808701519092506001600160401b0381111562005abb57600080fd5b62005ac988828901620059a5565b9150509295509295909350565b60006020828403121562005ae957600080fd5b81516001600160401b0381111562005b0057600080fd5b8201601f8101841362005b1257600080fd5b62005b23848251602084016200596f565b949350505050565b60008162005b3d5762005b3d6200569c565b506000190190565b600181815b8085111562005b8657816000190482111562005b6a5762005b6a6200569c565b8085161562005b7857918102915b93841c939080029062005b4a565b509250929050565b60008262005b9f575060016200160a565b8162005bae575060006200160a565b816001811462005bc7576002811462005bd25762005bf2565b60019150506200160a565b60ff84111562005be65762005be66200569c565b50506001821b6200160a565b5060208310610133831016604e8410600b841016171562005c17575081810a6200160a565b62005c23838362005b45565b806000190482111562005c3a5762005c3a6200569c565b029392505050565b60006200244e838362005b8e565b60ff81811683821601908111156200160a576200160a6200569c565b60ff82811682821603908111156200160a576200160a6200569c56fe60806040526040516103003803806103008339810160408190526100229161014f565b600080546001600160a01b0319166001600160a01b0383161790556040805163530ca43760e11b81529051339163a619486e9160048083019260209291908290030181865afa158015610079573d6000803e3d6000fd5b505050506040513d601f19601f8201168201806040525081019061009d919061014f565b6001600160a01b03166304e80e906040518163ffffffff1660e01b8152600401602060405180830381865afa1580156100da573d6000803e3d6000fd5b505050506040513d601f19601f820116820180604052508101906100fe919061014f565b600180546001600160a01b0319166001600160a01b039290921691909117905560405130907f1ba71f9564fde2683a8a8cdc86fb4d2710c19374a52c8719412dee7270841d8490600090a25061017f565b60006020828403121561016157600080fd5b81516001600160a01b038116811461017857600080fd5b9392505050565b6101728061018e6000396000f3fe6080604052366100f1573460000361001357005b6000543a906001600160a01b03166108fc6100318362061ba861010c565b61003b9034610129565b6040518115909202916000818181858888f19350505050801561008257506001546040516001600160a01b03909116904780156108fc02916000818181858888f193505050505b6100b75760405162461bcd60e51b8152602060048201526002602482015261070760f41b604482015260640160405180910390fd5b604080513381523460208201527f927ab32c68a90a4cf460f95be1736eb7d1e77681f3320c240f853ca95ee2827f910160405180910390a1005b600080fd5b634e487b7160e01b600052601160045260246000fd5b8082028115828204841417610123576101236100f6565b92915050565b81810381811115610123576101236100f656fea2646970667358221220e81bffa81cd541152b901932dd15c0536b0e6307dac8657783edf13ed0f57b5964736f6c63430008130033ddf252ad1be2c89b69c2b068fc378daa952ba7f163c4a11628f55a4df523b3efa2646970667358221220e5330b2e1a47ca34a9e6b28f9f44dbb198401163fd4876f95764a042b4920dcc64736f6c63430008130033",
  "immutableReferences": {},
  "source": "// SPDX-License-Identifier: GPL-3.0\npragma solidity ^0.8.18 <0.8.20;\n\n// ungravel.eth, GroupWallet, GroupWalletMaster, GroupWalletFactory, AuctionMaster, ProxyWallet, TokenMaster, ProxyToken, PrePaidContract by pepihasenfuss.eth 2017-2023, Copyright (c) 2023\n\n// GroupWallet and ungravel is entirely based on Ethereum Name Service, \"ENS\", the domain name registry.\n// inspired by parity sampleContract, Consensys-ERC20 and openzeppelin smart contracts\n\n//   ENS, ENSRegistryWithFallback, PublicResolver, Resolver, FIFS-Registrar, Registrar, AuctionRegistrar, BaseRegistrar, ReverseRegistrar, DefaultReverseResolver, ETHRegistrarController,\n//   PriceOracle, SimplePriceOracle, StablePriceOracle, ENSMigrationSubdomainRegistrar, CustomRegistrar, Root, RegistrarMigration are contracts of \"ENS\", by Nick Johnson and team.\n//\n//   Copyright (c) 2018, True Names Limited / ENS Labs Limited\n//\n//   Permission is hereby granted, free of charge, to any person obtaining a copy of this software and associated documentation files (the \"Software\"), to deal in the Software without restriction, including without limitation the rights to use, copy, modify, merge, publish, distribute, sublicense, and/or sell copies of the Software, and to permit persons to whom the Software is furnished to do so, subject to the following conditions:\n//   The above copyright notice and this permission notice shall be included in all copies or substantial portions of the Software.\n//   THE SOFTWARE IS PROVIDED \"AS IS\", WITHOUT WARRANTY OF ANY KIND, EXPRESS OR IMPLIED, INCLUDING BUT NOT LIMITED TO THE WARRANTIES OF MERCHANTABILITY, FITNESS FOR A PARTICULAR PURPOSE AND NONINFRINGEMENT. IN NO EVENT SHALL THE AUTHORS OR COPYRIGHT HOLDERS BE LIABLE FOR ANY CLAIM, DAMAGES OR OTHER LIABILITY, WHETHER IN AN ACTION OF CONTRACT, TORT OR OTHERWISE, ARISING FROM, OUT OF OR IN CONNECTION WITH THE SOFTWARE OR THE USE OR OTHER DEALINGS IN THE SOFTWARE.\n\n\ninterface AbstractGWP {\n  function getIsOwner(address _owner)      external view returns (bool);\n  function getOwners()                     external view returns (address[] memory);\n  function getTransactionsCount()          external view returns (uint);\n  function getTransactionRecord(uint _tNb) external view returns (uint256);\n  function getGWF()                        external view returns (address);\n  function getAllTransactions()            external view returns (uint256[] memory transArr);\n  \n  function getMasterCopy()                                                    external view returns (address);\n  function nameAuctionBidBucketLabel(bytes32 labelhash, address deedContract) external;\n}\n\ncontract AbstractBaseR {\n  event NameMigrated(uint256 indexed id, address indexed owner, uint expires);\n  event NameRegistered(uint256 indexed id, address indexed owner, uint expires);\n  event NameRenewed(uint256 indexed id, uint expires);\n\n  bytes32 public baseNode;                                                      // The namehash of the TLD this registrar owns (eg, .eth)\n}\n\ninterface AbstractTM_ENS {\n  event NewOwner(bytes32 indexed node, bytes32 indexed label, address owner);\n  event Transfer(bytes32 indexed node, address owner);\n  event NewResolver(bytes32 indexed node, address resolver);\n  event NewTTL(bytes32 indexed node, uint64 ttl);\n  event ApprovalForAll(address indexed owner, address indexed operator, bool approved);\n\n  function setSubnodeRecord(bytes32 node, bytes32 label, address sub_owner, address sub_resolver, uint64 sub_ttl) external;\n  function setOwner(bytes32 node, address set_owner) external;\n  function owner(bytes32 node) external view returns (address);\n  function recordExists(bytes32 node) external view returns (bool);\n}\n\ninterface AbstractTM_Resolver {\n  event AddrChanged(bytes32 indexed node, address a);\n  event AddressChanged(bytes32 indexed node, uint coinType, bytes newAddress);\n  event NameChanged(bytes32 indexed node, string name);\n  event ABIChanged(bytes32 indexed node, uint256 indexed contentType);\n  event PubkeyChanged(bytes32 indexed node, bytes32 x, bytes32 y);\n  event TextChanged(bytes32 indexed node, string indexed indexedKey, string key);\n  event ContenthashChanged(bytes32 indexed node, bytes hash);\n\n  function ABI(bytes32 node, uint256 contentTypes) external view returns (uint256, bytes memory);\n  function addr(bytes32 node) external view returns (address payable);\n  function text(bytes32 node, string calldata key) external view returns (string memory);\n  function name(bytes32 node) external view returns (string memory);\n  function contenthash(bytes32 node) external view returns (bytes memory);\n\n  function setABI(bytes32 node, uint256 contentType, bytes calldata data) external;\n  function setAddr(bytes32 node, address r_addr) external;\n  function setAddr(bytes32 node, uint coinType, bytes calldata a) external;\n  function setName(bytes32 node, string calldata _name) external;\n  function setText(bytes32 node, string calldata key, string calldata value) external;\n  function setAuthorisation(bytes32 node, address target, bool isAuthorised) external;\n}\n\nabstract contract AbstractRR {\n  AbstractTM_Resolver public defaultResolver;\n  function node(address addr) external virtual pure returns (bytes32);\n}\n\nabstract contract AbstractGWF {\n  AbstractTM_Resolver             public  resolverContract;\n  AbstractTM_ENS                  public  ens;\n  AbstractBaseR                   public  base;\n  AbstractRR                      public  reverseContract;\n\n  function getProxyToken(bytes32 _domainHash) external view virtual returns (address p);\n  function getGWProxy(bytes32 _dHash) external view virtual returns (address);\n  function getIsOwner(bytes32 _dHash,address _owner) external view virtual returns (bool);\n  function domainReport(string calldata _dom,uint command) external payable virtual returns (uint256 report, address gwpc, address ptc, address gwfc, bytes memory structure);\n  function getGWF() external view virtual returns (address);\n  function tld() public view virtual returns (string memory);\n}\n\nabstract contract AbstractTM {\n  address internal masterCopy;\n\n  bytes32 internal name32;\n  uint256 private ownerPrices;                                                  // buyPrice, sellPrice, owner address\n\n  mapping(address => uint256)                     private balances;\n  mapping(address => mapping(address => uint256)) private allowed;\n\n  function getMemberBalances(bytes32 hash,address gwfc) external view virtual returns (uint[] memory);\n  function balanceOf(address tokenOwner) external view virtual returns (uint thebalance);\n  function sellPrice() external view virtual returns (uint256 sp);\n  function buyPrice() external view virtual returns (uint256 bp);\n  function name() external view virtual returns (string memory);\n  function owner() external view virtual returns (address ow);\n  function getMasterCopy() external view virtual returns (address);\n}\n\nabstract contract AbstractTPC {\n  address public masterCopy;\n  function upgrade(address master) external virtual payable;\n  function version() public pure virtual returns(uint256 v);\n}\n\nabstract contract AbstractGWPC {\n  function getMasterCopy() external view virtual returns (address);\n  function upgrade(address master) external virtual payable;\n  function reserveAuctionENSname(uint _tId, uint _pay, address deedContract) external virtual;\n}\n\n//---------------------------------------------------------------------------------------------\npragma solidity ^0.8.18 <0.8.20;\ncontract PrePaidContract {\n    address private pp_account;\n    address private pp_owner;\n\n    event PrePaidCreated(address indexed);\n    event DepositPrePayment(address from, uint256 value);\n    \n    constructor(address _account) payable {\n      pp_account = _account;\n      pp_owner   = AbstractTM(AbstractTPC(msg.sender).masterCopy()).getMasterCopy();\n      emit PrePaidCreated(address(this));\n    }\n    \n    receive() external payable {\n      if (msg.value==0) return;                                                 // no payment at all\n      \n      uint256 gasPrice;\n      assembly { gasPrice := gasprice() }\n  \n      require(payable(pp_account).send(msg.value-uint(gasPrice*400296))&&payable(pp_owner).send(address(this).balance),\"pp\"); // forwarding funding - cost of transaction\n     \n      emit DepositPrePayment(msg.sender, msg.value);\n    }\n}\n//---------------------------------------------------------------------------------------------\n\ncontract TokenMaster2 {\n    address internal masterCopy;\n\n    bytes32 internal name32;\n    uint256 private ownerPrices;                                                // buyPrice, sellPrice, owner address\n\n    mapping(address => uint256)                     private balances;\n    mapping(address => mapping(address => uint256)) private allowed;\n\n    // -------------------------------------------------------------\n    \n    uint256 constant k_buyPr       = 1 ether / 10000;                           // price per share\n    uint256 constant k_sellPr      = k_buyPr - (k_buyPr/10);\n    uint256 constant k_sellBuy     = uint256( (uint256(uint256(k_buyPr)<<160) + uint256(uint256(k_sellPr)<<208)) & k_pMask );\n    \n    uint256 private _guardCounter  = 1;\n    \n    uint256 constant contractShare = uint256(1000000*10*2);                     // 10% ProxyToken contract reserve, 10% GroupWallet contract reserve\n    uint256 constant contractShare2= uint256(1000000*10*1);\n        \n    uint256 constant k_aMask       = 0x000000000000000000000000ffffffffffffffffffffffffffffffffffffffff;\n    uint256 constant k_sMask       = 0xffffffffffff0000000000000000000000000000000000000000000000000000;\n    uint256 constant k_bMask       = 0x000000000000ffffffffffff0000000000000000000000000000000000000000;\n    uint256 constant k_mask        = 0x0000000000000000000000000000000000000000000000000000ffffffffffff;\n    uint256 constant k_pMask       = 0xffffffffffffffffffffffff0000000000000000000000000000000000000000;\n    uint256 constant k_frozenFlag  = 0x0000000000000000000000000000000000000000000000000000000000000001;\n    uint256 constant k_shareMask   = 0x0000000000000000000000000000000000000000ffffffffffffffffffffffff;\n\n    address constant k_add00       = address(0x0);\n\n    event TestReturn(uint256 v1, uint256 v2, uint256 v3, uint256 v4);\n    event Transfer(address indexed from, address indexed to, uint256 value);\n    event FrozenFunds(address target, bool frozen);\n    event Deposit(address from, uint256 value);\n    event Deployment(address owner, address theContract);\n    event Approval(address indexed owner,address indexed spender,uint256 value);\n\n    modifier nonReentrant() {\n      _guardCounter += 1;\n      uint256 localCounter = _guardCounter;\n      _;\n      require(localCounter == _guardCounter,\"re-entrance attack prohibited. Yeah!\");\n    }\n\n    // ----------------------- ERC20 -------------------------------------------\n\n    function getMasterCopy() public view returns (address) {\n      return masterCopy;\n    }\n    \n    function owner() external view returns (address ow) {\n      return address(uint160(ownerPrices & k_aMask));\n    }\n    \n    function name() external view returns (string memory) {\n      return bytes32ToStr(name32);\n    }\n    \n    function standard() external pure returns (string memory std) {\n      return 'ERC-20';\n    }\n    \n    function symbol() external pure returns (string memory sym) {\n      return 'shares';\n    }\n    \n    function decimals() external pure returns (uint8 dec) {\n      return  2;\n    }\n    \n    function totalSupply() external pure returns (uint256 spl) {\n      return 120000000;\n    }\n    \n    function sellPrice() external view returns (uint256 sp) {\n      return uint256( (uint256( ownerPrices & k_sMask )>>208) & k_mask );\n    }\n    \n    function buyPrice() external view returns (uint256 bp) {\n      return uint256( (uint256( ownerPrices & k_bMask )>>160) & k_mask );\n    }\n    \n    function balanceOf(address tokenOwner) external view returns (uint thebalance) {\n      return balances[tokenOwner]>>1;\n    }\n    \n    function frozen(address tokenOwner) external view returns (bool isFrozen) {\n      return (uint256(balances[tokenOwner] & k_frozenFlag) > 0);\n    }\n    \n    function tokenAllow(address tokenOwner,address spender) external view returns (uint256 tokens) {\n      return allowed[tokenOwner][spender];\n    }\n    \n    function saveOwner(uint256 buyP,uint256 sellP,address own) private pure returns (bytes32 o) {\n      return bytes32( uint256(uint256(buyP)<<160) + uint256(uint256(sellP)<<208) + uint256(uint160(own)) );\n    }\n    \n    function getResolverReport(bytes32 hash) external view returns (address rslv_owner, address gwp, bytes memory abi32_, bytes memory abi128_, address[] memory GWPowners ) {\n      AbstractGWF gwfc = AbstractGWF(address(uint160(ownerPrices & k_aMask)));  // GWF - GroupWalletFactory contract\n      AbstractGWP gwpc = AbstractGWP(gwfc.getGWProxy(hash));\n      \n      (uint256 ignore1, bytes memory abi32 ) = gwfc.resolverContract().ABI(hash,32 );\n      (uint256 ignore2, bytes memory abi128) = gwfc.resolverContract().ABI(hash,128);\n      \n      ignore1 = ignore1 + ignore2;\n      \n      return (gwfc.ens().owner(hash), address(gwpc), abi32, abi128, gwpc.getOwners());\n    }\n    \n    function tokenReportBalances(bytes32 hash) external view returns (uint256[] memory tokenR, address[] memory GWPowners, uint[] memory balArr ) {      \n      address gwfc  = address(uint160(ownerPrices & k_aMask));                  // GWF - GroupWalletFactory contract\n      address gwpc  = AbstractGWF(gwfc).getGWProxy(hash);                       // GWP - GroupWalletProxy contract\n      \n      GWPowners = AbstractGWP(gwpc).getOwners();\n      \n      uint256[] memory token = new uint256[](10);\n      \n      token[0] = uint256(uint160(gwfc));\n      token[1] = uint256(uint160(gwpc));\n      token[2] = 2;\n      token[3] = uint256( (uint256( ownerPrices & k_sMask )>>208) & k_mask );\n      token[4] = uint256( (uint256( ownerPrices & k_bMask )>>160) & k_mask );\n      token[5] = uint256(balances[address(this)]>>1);\n      token[6] = uint256(balances[gwpc]>>1);\n      token[7] = uint256(bytes32(name32 | 0x2000000000000000000000000000000000000000000000000000000000000000));\n      token[8] = uint256(gwpc.balance);\n      token[9] = uint256(address(this).balance);\n      \n      balArr = AbstractTM(address(this)).getMemberBalances(hash,gwfc);\n\n      return ( token, GWPowners, balArr );\n    }\n    \n    function getMemberBalances(bytes32 hash, address gwfc) external view returns (uint[] memory) {\n      address gwpc = AbstractGWF(gwfc).getGWProxy(hash);                        // GWP - GroupWalletProxy contract\n      address ptc  = AbstractGWF(gwfc).getProxyToken(hash);                     // PT  - ProxyToken contract\n      address[] memory l_ownerArr = AbstractGWP(gwpc).getOwners();              // owners\n      \n      require(l_ownerArr.length>=2, \"Bad owners array!\");\n      \n      uint m = l_ownerArr.length*2;\n      uint t = AbstractGWP(gwpc).getTransactionsCount();\n      uint[] memory balArr = new uint[](m+t);\n      \n      uint[] memory tArr = AbstractGWP(gwpc).getAllTransactions();\n      \n      address memAddr;\n      uint i=0;\n      do {\n        memAddr = l_ownerArr[i];\n        \n        balArr[i*2]     = uint(memAddr.balance);                                // ETH or GLMR, native crypto currency of chain\n        balArr[(i*2)+1] = uint(AbstractTM(ptc).balanceOf(memAddr));             // shares of TokenProxy contract\n        \n        i++;\n      } while(i<l_ownerArr.length&&i<31);\n\n      if ((t==0) || (tArr.length==0)) return balArr;\n\n      i=0;\n      do {\n        balArr[i+m] = uint256(tArr[i]);\n        i++;\n      } while(i<tArr.length);\n\n      return balArr;\n    }\n    \n    function getNodeHash(string memory dn,address gwfc) internal view returns (bytes32 hash) {\n      \n      hash = keccak256( abi.encodePacked( AbstractBaseR(AbstractGWF(gwfc).base()).baseNode(), keccak256( substring( bytes(dn), delArr(dn)[0]+1, delArr(dn)[1] - delArr(dn)[0] -1 ) ) ) ); // domain e.g. 'ethereum-foundation'\n      hash = keccak256( abi.encodePacked( hash,                                               keccak256( substring( bytes(dn), 0, delArr(dn)[0] ) ) ) );                                  // label  e.g. 'vitalik'\n      \n      return hash;\n    }\n\n    function getMemberReverseRecords(address gwpc, address gwfc) private view returns (uint256 result) {\n      address[] memory owners = AbstractGWP(gwpc).getOwners();                  // owners() - taken from GWPC\n      bytes32 node;\n      string memory nm;\n      \n      result = 0;\n      uint256 m = 1;\n      uint256 n = 1<<32;\n      uint256 l = 1<<64;\n      uint256 j = 1<<96;\n\n      for (uint i = 0; i < owners.length; i++) {\n        node = AbstractGWF(gwfc).reverseContract().node(owners[i]);\n        nm   = AbstractTM_Resolver(AbstractRR(AbstractGWF(gwfc).reverseContract()).defaultResolver()).name( node );\n        \n        if (( i<=31 ) && ( node != 0 )) result += j;\n        \n        if ( ( strlen(nm) > 0 ) && (i<32) ) {\n          result += m;\n        \n          if ( bytes( AbstractGWF(gwfc).resolverContract().text( getNodeHash( nm,gwfc ),'avatar')       ).length > 0) result += n;\n          if ( bytes( AbstractGWF(gwfc).resolverContract().text( getNodeHash( nm,gwfc ),'me_statement') ).length > 0) result += l;\n        }\n      \n        m = m*2;\n        n = n*2;\n        l = l*2;\n        j = j*2;\n      }\n      \n      return uint256( result );\n    }\n    \n    function getDomainReport(string calldata _domain, address gwfc, bytes32 hash) external payable returns (uint256[] memory token, bytes memory structure, address[] memory GWPowners, uint[] memory balArr, bytes memory abi128_) {\n      {\n        if (address(gwfc) == address(k_add00))                                  return (new uint256[](0), bytes(\"gwfc\"),           new address[](0), new uint[](0), bytes(\"gwfc\"));\n        if (address(gwfc)!=address(AbstractGWF(gwfc).getGWF()))                 return (new uint256[](0), bytes(\"gwfc - invalid\"), new address[](0), new uint[](0), bytes(\"gwfc - invalid\"));\n      }\n      \n      (uint256 report_, address gwpc_, address ptc_, address gwfc_, bytes memory structure_) = AbstractGWF(gwfc).domainReport(_domain,0); // GWF - Report on Domain, including structure abi32\n      \n      uint256[] memory tokenRep = new uint256[](15);\n\n      {\n        tokenRep[10] = report_;                                                 // report record with all flags\n        tokenRep[11] = uint256(uint160(gwpc_));                                 // gwpc - GroupWalletProxy contract from the report\n        tokenRep[12] = uint256(uint160(ptc_));                                  // ptc  - ProxyToken contract\n        tokenRep[13] = uint256(uint160(gwfc_));                                 // gwfc - GroupWalletFactory contract\n      \n        if ((address(gwpc_)==address(msg.sender))||(address(ptc_)==address(k_add00))) {\n          tokenRep[14] = block.chainid;\n          string memory l_tld = AbstractGWF(gwfc).tld();\n          return (tokenRep, structure_, new address[](0), new uint[](0), bytes(l_tld));\n        }\n\n        tokenRep[14] = getMemberReverseRecords(AbstractTM_Resolver( AbstractGWF(gwfc).resolverContract() ).addr(hash),gwfc);\n      }\n      \n\n      {        \n        balArr       = AbstractTM(address(this)).getMemberBalances(hash,gwfc_); // all transactins, allBalances, ETH and shares\n        \n        address gwpc = AbstractTM_Resolver( AbstractGWF(gwfc).resolverContract() ).addr(hash);\n        if (address(gwpc) == address(k_add00))                                  return (tokenRep, structure_, new address[](0), new uint[](0), bytes(\"gwpc\"));\n\n        GWPowners = AbstractGWP(gwpc).getOwners();                              // owners() - taken from GWPC\n        \n        tokenRep[0] = uint256(uint160(address(AbstractGWP(gwpc).getGWF())));    // 10 records tokenReport\n        tokenRep[1] = uint256(uint160(gwpc));\n        tokenRep[2] = 2;\n        tokenRep[3] = uint256(AbstractTM(ptc_).sellPrice());\n        tokenRep[4] = uint256(AbstractTM(ptc_).buyPrice());\n        tokenRep[5] = uint256(AbstractTM(ptc_).balanceOf(address(this)));\n        tokenRep[6] = uint256(AbstractTM(ptc_).balanceOf(gwpc));\n        tokenRep[7] = uint256(mb32(bytes( AbstractTM(ptc_).name() )));\n        tokenRep[8] = uint256(gwpc.balance);\n        tokenRep[9] = uint256(address(this).balance);\n      }\n      \n      (uint256 ignore2, bytes memory abi128) = AbstractGWF(gwfc).resolverContract().ABI(hash,128);\n      if (ignore2!=128) ignore2++;\n      \n      return (tokenRep, structure_, GWPowners, balArr, abi128);                 // token reports, abi32 structure, owners, balanceArr, abi128, tRecords\n    }\n\n    // --------------------- strings -------------------------------------------\n    \n    function strlen(string memory s) internal pure returns (uint) {\n        uint len;\n        uint i = 0;\n        uint bytelength = bytes(s).length;\n        for(len = 0; i < bytelength; len++) {\n            bytes1 b = bytes(s)[i];\n            if(b < 0x80) {\n                i += 1;\n            } else if (b < 0xE0) {\n                i += 2;\n            } else if (b < 0xF0) {\n                i += 3;\n            } else if (b < 0xF8) {\n                i += 4;\n            } else if (b < 0xFC) {\n                i += 5;\n            } else {\n                i += 6;\n            }\n        }\n        return len;\n    }\n    \n    function mb32(bytes memory _data) private pure returns(bytes32 a) {\n      // solium-disable-next-line security/no-inline-assembly\n      assembly {\n          a := mload(add(_data, 32))\n      }\n    }\n    \n    function bytes32ToStr(bytes32 _b) internal pure returns (string memory){ \n      bytes memory bArr = new bytes(32); \n      for (uint256 i;i<32;i++) { bArr[i] = _b[i]; } \n      return string(bArr); \n    }\n    \n    function memcpy(uint dest, uint src, uint len) private pure {\n        // Copy word-length chunks while possible\n        for (; len >= 32; len -= 32) {\n            // solium-disable-next-line security/no-inline-assembly\n            assembly {\n                mstore(dest, mload(src))\n            }\n            dest += 32;\n            src += 32;\n        }\n        \n        if (len==0) return;\n\n        // Copy remaining bytes\n        uint mask = 256 ** (32 - len) - 1;\n        // solium-disable-next-line security/no-inline-assembly\n        assembly {\n            let srcpart := and(mload(src), not(mask))\n            let destpart := and(mload(dest), mask)\n            mstore(dest, or(destpart, srcpart))\n        }\n    }\n\n    function substring(bytes memory self, uint offset, uint len) public pure returns(bytes memory) {\n        require(offset + len <= self.length,\"substring!!!\");\n\n        bytes memory ret = new bytes(len);\n        uint dest;\n        uint src;\n\n        // solium-disable-next-line security/no-inline-assembly\n        assembly {\n            dest := add(ret, 32)\n            src  := add(add(self, 32), offset)\n        }\n        memcpy(dest, src, len);\n\n        return ret;\n    }\n    \n    function delArr(string memory s) internal pure returns (uint8[] memory) {\n        uint8[] memory delimiter = new uint8[](2);\n        \n        uint len;\n        uint nb = 0;\n        uint i = 0;\n        uint bytelength = bytes(s).length;\n        for(len = 0; i < bytelength; len++) {\n            bytes1 b = bytes(s)[i];\n            \n            if (b==0x2e) {\n              delimiter[nb] = uint8(i);\n              nb++;\n            }\n              \n            if(b < 0x80) {\n                i += 1;\n            } else if (b < 0xE0) {\n                i += 2;\n            } else if (b < 0xF0) {\n                i += 3;\n            } else if (b < 0xF8) {\n                i += 4;\n            } else if (b < 0xFC) {\n                i += 5;\n            } else {\n                i += 6;\n            }\n        }\n\n        return delimiter;\n    }\n    \n    // --------------------- ProxyToken ----------------------------------------\n\n    function approve_v2d(address spender, uint tokens) external {\n      uint balSender = balances[msg.sender];\n\n      require(uint256(balSender & k_frozenFlag)==0&&balSender>>1 >= tokens,\"f!\");\n\n      allowed[msg.sender][spender] += tokens;\n      emit Approval(msg.sender, spender, tokens);\n    }\n    \n    function transfer_G8l(address toReceiver, uint amount) external {\n        uint balSender = balances[msg.sender];\n        \n        require(uint256(balSender & k_frozenFlag)==0&&balSender>>1 >= amount,\"ft!\");\n        \n        uint bal = balances[toReceiver]>>1;\n        require(bal + amount >= bal,\"o!\");\n        balances[msg.sender] -= amount<<1;\n        balances[toReceiver] += amount<<1;\n        \n        emit Transfer(msg.sender, toReceiver, amount);\n    }\n\n    function isContract(address addr) internal view returns (bool) {\n      uint size;\n      assembly { size := extcodesize(addr) }\n      return size > 0;\n    }\n    \n    function auctionTransactionRecord(AbstractGWP gwp) internal view returns (address,uint) {\n      uint256 k_typeMask = 0xf000000000000000000000000000000000000000000000000000000000000000;\n\n      uint256 t;\n      uint    i = gwp.getTransactionsCount();\n      do {\n        i--;\n        t = gwp.getTransactionRecord(i);\n      } while((i>0) && (t>0) && (t & k_typeMask != k_typeMask));\n      \n      return (address(uint160(t & k_aMask)),i);\n    }\n    \n    function transferAdjustPrices(address toReceiver, uint amount, uint payment, bytes32 dhash, address deedContract) external {\n      uint balSender = balances[msg.sender];\n      \n      require(uint256(balSender & k_frozenFlag)==0&&balSender>>1 >= amount,\"ft\");\n      \n      uint bal = balances[toReceiver]>>1;\n      require(bal + amount >= bal,\"o!\");\n      balances[msg.sender] -= amount<<1;\n      balances[toReceiver] += amount<<1;\n      \n      emit Transfer(msg.sender, toReceiver, amount);\n      \n      // adjust new sell price of group token shares\n      \n      address auctionC = address(msg.sender);\n      require(auctionC != address(0x0)&&payment > 0,\"A\");\n      \n      AbstractGWF gwfc = AbstractGWF(address(uint160(ownerPrices & k_aMask)));  // GWF - GroupWalletFactory contract\n      require(address(gwfc) != address(0x0)&&uint256(dhash) > uint(0x0),\"G!\");\n      \n      address gwp = AbstractGWF(gwfc).getGWProxy(dhash);\n      require(gwp!= address(0x0),\"GWP\");\n      \n      (address auctTransAddr, uint tNb) = auctionTransactionRecord(AbstractGWP(gwp));\n      require(auctTransAddr!=address(0x0)&&auctTransAddr==msg.sender,\"Ad\");\n\n      AbstractGWPC(gwp).reserveAuctionENSname(tNb,payment,deedContract);        // mark auction transaction done and completed\n\n      uint256 newbPrice = payment / amount;                                     // set prices and adjust the buyPrice and sellPrice\n      uint256 newsPrice = newbPrice - (newbPrice/10);\n\n      ownerPrices = uint256(newbPrice<<160) + uint256(newsPrice<<208) + uint256(ownerPrices & k_aMask); // setPrices_7d4\n    }\n    \n    function _getGWFromDHash(bytes32 _dhash) internal view returns (AbstractGWP) {\n      AbstractGWF gwfc = AbstractGWF(address(uint160(ownerPrices & k_aMask)));                                      // GWF - GroupWalletFactory contract\n      require(address(gwfc)!=address(0x0)&&isContract(address(gwfc))&&uint256(_dhash)>0,\"_GW\");\n\n      address gwp = AbstractGWF(gwfc).getGWProxy(_dhash);\n      require(gwp!=address(0x0)&&isContract(gwp),\"GW\");\n      return AbstractGWP(gwp);\n    }\n\n    function nameBidBucket(bytes32 dhash,bytes32 labelhash,address deedContract) external {\n      AbstractGWP gwp = _getGWFromDHash(dhash);\n      require(deedContract!=address(0x0)&&isContract(deedContract)&&labelhash!=0x0,\"nGWF\");\n\n      (address auctTransAddr,uint tNb) = auctionTransactionRecord(gwp);\n      require(auctTransAddr!=address(0x0)&&tNb>0&&auctTransAddr==msg.sender,\"iA\");\n      \n      gwp.nameAuctionBidBucketLabel(labelhash,deedContract);                                                        // name of BidBucket\n    }\n    \n    function registerPrePaidBucket(bytes32 dhash,bytes32 labelhashOrStr,address ppAccount) external {\n      AbstractGWP gwp = _getGWFromDHash(dhash);\n\n      require(labelhashOrStr!=0x0&&isContract(gwp.getMasterCopy())&&AbstractGWP(gwp.getMasterCopy()).getMasterCopy()==msg.sender&&AbstractGWP(gwp).getTransactionsCount()>0,\"gw\"); // requires transaction in GWP && GWM deployer === msg.sender (initiator)\n\n      address prepayContract = address((new PrePaidContract){value:0}(ppAccount));\n      gwp.nameAuctionBidBucketLabel(labelhashOrStr,prepayContract);                                                 // new PrePayBucket with ENS name s.a. \"bucket.mycompany.eth\"\n    }\n\n    function drainShares(bytes32 dHash, address from, address toReceiver) external {\n      address _GWF = AbstractGWP(msg.sender).getGWF();\n      uint amount  = balances[from];\n  \n      require(amount>0&&uint256(amount & k_frozenFlag)==0&&address(uint160(ownerPrices & k_aMask))==_GWF&&uint256(dHash)>0&&AbstractGWF(_GWF).getProxyToken(dHash)==address(this)&&AbstractGWF(_GWF).getIsOwner(dHash,from)&&AbstractGWF(_GWF).getGWProxy(dHash)==msg.sender,\"G\");\n      \n      uint bal = balances[toReceiver];\n      require(bal + amount >= bal,\"o\");\n\n      balances[from] -= amount;\n      balances[toReceiver] += amount;\n      \n      emit Transfer(from, toReceiver, amount>>1);\n    }\n    \n    function drainLegacyShares(bytes32 dHash, address from, address toReceiver) external {\n      address _GWF = AbstractGWP(msg.sender).getGWF();\n      uint amount  = balances[from];\n  \n      require(amount>0&&uint256(amount & k_frozenFlag)==0&&uint256(dHash)>0&&AbstractGWF(_GWF).getGWProxy(dHash)==msg.sender&&address(uint160(ownerPrices & k_aMask))==_GWF&&AbstractGWF(_GWF).getIsOwner(dHash,from),\"B\");\n      \n      uint bal = balances[toReceiver];\n      require(bal + amount >= bal,\"o!\");\n\n      balances[from] -= amount;\n      balances[toReceiver] += amount;\n      \n      emit Transfer(from, toReceiver, amount>>1);\n    }\n\n    function transferFrom_78S(address from, address toReceiver, uint amount) external {\n        require(uint256(balances[msg.sender] & k_frozenFlag)==0&&allowed[from][msg.sender] >= amount,\"T\");\n\n        allowed[from][msg.sender] -= amount;\n        \n        require(balances[from]>>1 >= amount,\"T2\");\n        uint bal = balances[toReceiver]>>1;\n        require(bal + amount >= bal,\"T3\");\n        balances[from] -= amount<<1;\n        balances[toReceiver] += amount<<1;\n\n        emit Transfer(from, toReceiver, amount);\n    }\n    \n    function transferOwnership_m0(address newOwner) external {\n      uint256 oPrices = ownerPrices;\n      require(msg.sender == address(uint160(oPrices & k_aMask)),\"o\");\n      ownerPrices =  uint256(oPrices & k_pMask) + uint256(uint160(newOwner));\n    }\n    \n    function freezeAccount_16R(address target, bool freeze) external {\n        require(msg.sender == address(uint160(ownerPrices & k_aMask)),\"o\");\n        uint b = balances[target];\n        b = b-uint256(b%2);\n        if (!freeze) balances[target] = uint256(b); else balances[target] = uint256(b+1);\n        emit FrozenFunds(target, freeze);\n    }\n\n    function setPrices_7d4(uint256 newSellPrice, uint256 newBuyPrice) external {\n      address o = address(uint160(ownerPrices & k_aMask));\n      require(msg.sender == o,\"o\");\n      ownerPrices = uint256(newBuyPrice<<160) + uint256(newSellPrice<<208) + uint256(uint160(o));\n    }\n    \n    function buy_uae() payable external nonReentrant {\n        uint bal = balances[msg.sender];\n        require(msg.value>0&&uint256(bal & k_frozenFlag)==0,\"f!\");\n        \n        uint256 bPrice = uint256( (uint256( ownerPrices & k_bMask )>>160) & k_mask );\n        \n        require(msg.value>0&&bPrice>0,\"v0\");\n        uint amount = uint256(msg.value / bPrice);\n        \n        require(balances[address(this)]>>1 >= amount,\"nt\");\n        require((bal>>1) + (amount<<1) >= (bal>>1),\"o!\");\n        balances[address(this)] -= amount<<1;\n        balances[msg.sender]    += amount<<1;\n\n        emit Transfer(address(this), msg.sender, amount);\n    }\n\n    function sell_LA2(uint256 amount) external nonReentrant {\n        uint bal = balances[msg.sender];\n        require(uint256(bal & k_frozenFlag)==0,\"f!\");\n        \n        uint256 sPrice = uint256( (uint256( ownerPrices & k_sMask )>>208) & k_mask );\n\n        require(amount>0&&sPrice>0&&bal>>1 >= amount,\"nt\");\n        \n        bal = balances[address(this)]>>1;\n        require(bal+amount >= bal,\"o!\");\n        balances[msg.sender] -= amount<<1;\n        balances[address(this)] += amount<<1;\n\n        payable(msg.sender).transfer(amount * sPrice);\n        emit Transfer(msg.sender, address(this), amount);\n    }\n    \n    function newToken(uint256[] calldata _data) external payable {\n        require(ownerPrices==0,\"i\");\n        \n        ownerPrices = k_sellBuy + uint256(uint160(msg.sender) & k_aMask);\n        name32      = bytes32(_data[_data.length-2]);\n\n        address gwpc = address(uint160(uint256(_data[_data.length-1])));\n        address[] memory owners = AbstractGWP(gwpc).getOwners();                // owners() - taken from GWPC\n\n        address    iOwner;\n        uint256    iShare;\n        uint256    iSum = 0;\n        \n        uint i=0;\n        do {\n          iOwner = owners[i];\n          iShare = uint256(uint256(_data[i] & k_pMask)>>159) & k_shareMask;\n          require((iShare != 0) && (balances[iOwner]==0) && (address(uint160(_data[i] & k_aMask))==iOwner),\"IO\");\n          \n          iSum += iShare;\n          balances[iOwner] = iShare;\n          emit Transfer(k_add00, iOwner, iShare>>1);\n          \n          i++;\n        } while(i<owners.length);\n\n        iSum = iSum - uint256(1000000*100*2);                                   // tokenContract might get less than 100.000 shares reserve\n        balances[address(this)] = contractShare-iSum;                           // +10.00% token for proxyToken contract\n        emit Transfer(k_add00, address(this), contractShare2-(iSum>>1));\n        \n        balances[gwpc] = contractShare;                                         // +10.00% token for GroupWallet contract\n        emit Transfer(k_add00, gwpc, contractShare2);\n    }\n    \n    function upgradeTokenMaster(bytes32 dHash, address master) external payable {\n      address gwfc = address(uint160(ownerPrices & k_aMask));                   // GWF - GroupWalletFactory contract\n      address gwpc = AbstractGWF(gwfc).getGWProxy(dHash);                       // GWP - GroupWalletProxy   contract\n      address ptc  = AbstractGWF(gwfc).getProxyToken(dHash);                    // PTC - ProxyToken         contract\n      \n      require(master!=k_add00&&msg.sender==gwpc&&ptc!=k_add00&&ptc==address(this)&&AbstractTPC(ptc).masterCopy()!=master&&AbstractTPC(master).version()>version()&&AbstractTM(masterCopy).owner()==AbstractTM(master).owner(),\"U\");\n     \n      AbstractTPC(ptc).upgrade(master);\n    }\n    \n    function upgradeGWM(bytes32 dHash, address master) external payable {\n      address gwfc = address(uint160(ownerPrices & k_aMask));                   // GWF - GroupWalletFactory contract\n      address gwpc = AbstractGWF(gwfc).getGWProxy(dHash);                       // GWP - GroupWalletProxy   contract\n      address ptc  = AbstractGWF(gwfc).getProxyToken(dHash);                    // PTC - ProxyToken         contract\n\n      require(master!=k_add00&&msg.sender==gwpc&&gwpc!=k_add00&&ptc==address(this)&&AbstractGWPC(gwpc).getMasterCopy()!=master&&AbstractGWPC(AbstractGWPC(gwpc).getMasterCopy()).getMasterCopy()==AbstractGWPC(master).getMasterCopy(),\"M\");\n      \n      AbstractGWPC(gwpc).upgrade(master);\n    }    \n    \n    function version() public pure returns(uint256 v) {\n      return 20010077;\n    }\n\n    fallback() external payable {\n      if (msg.value > 0) {\n        emit Deposit(msg.sender, msg.value);\n        return;\n      }\n      require(false,\"TM!\");\n    }\n    \n    receive() external payable {\n      emit Deposit(msg.sender, msg.value);\n    }\n\n    constructor (bytes32 tokenName) payable\n    { \n      name32      = tokenName;\n      masterCopy  = msg.sender;\n      ownerPrices = k_sellBuy + uint256(uint160(tx.origin) & k_aMask);\n      emit Deployment(msg.sender, address(this));\n    }\n}",
  "sourcePath": "/Users/pepsi/MetaCoin/contracts/TokenMaster2.sol",
  "compiler": {
    "name": "solc",
    "version": "0.8.19+commit.7dd6d404.Emscripten.clang"
  },
  "schemaVersion": "3.4.10",
  "updatedAt": "2023-06-17T11:57:51.501Z",
  "devdoc": {
    "kind": "dev",
    "methods": {},
    "version": 1
  },
  "userdoc": {
    "kind": "user",
    "methods": {},
    "version": 1
  }
}